{
  "contractName": "BasMail",
  "abi": [
    {
      "inputs": [
        {
          "internalType": "address",
          "name": "_os",
          "type": "address"
        }
      ],
      "payable": false,
      "stateMutability": "nonpayable",
      "type": "constructor"
    },
    {
      "anonymous": false,
      "inputs": [
        {
          "indexed": false,
          "internalType": "bytes32",
          "name": "domainHash",
          "type": "bytes32"
        }
      ],
      "name": "AbandMail",
      "type": "event"
    },
    {
      "anonymous": false,
      "inputs": [
        {
          "indexed": false,
          "internalType": "bytes32",
          "name": "domainHash",
          "type": "bytes32"
        },
        {
          "indexed": false,
          "internalType": "uint256",
          "name": "extendTime",
          "type": "uint256"
        }
      ],
      "name": "MailRecharged",
      "type": "event"
    },
    {
      "anonymous": false,
      "inputs": [
        {
          "indexed": false,
          "internalType": "bytes32",
          "name": "domainHash",
          "type": "bytes32"
        },
        {
          "indexed": false,
          "internalType": "bytes",
          "name": "aliasName",
          "type": "bytes"
        },
        {
          "indexed": false,
          "internalType": "bytes",
          "name": "bcAddress",
          "type": "bytes"
        }
      ],
      "name": "MailUpdate",
      "type": "event"
    },
    {
      "anonymous": false,
      "inputs": [
        {
          "indexed": false,
          "internalType": "bytes32",
          "name": "domainHash",
          "type": "bytes32"
        },
        {
          "indexed": false,
          "internalType": "bytes32",
          "name": "nameHash",
          "type": "bytes32"
        },
        {
          "indexed": false,
          "internalType": "address",
          "name": "owner",
          "type": "address"
        }
      ],
      "name": "NewMail",
      "type": "event"
    },
    {
      "constant": false,
      "inputs": [
        {
          "internalType": "address",
          "name": "newDao",
          "type": "address"
        }
      ],
      "name": "ChangeDAO",
      "outputs": [],
      "payable": false,
      "stateMutability": "nonpayable",
      "type": "function"
    },
    {
      "constant": true,
      "inputs": [],
      "name": "DAOAddress",
      "outputs": [
        {
          "internalType": "address",
          "name": "",
          "type": "address"
        }
      ],
      "payable": false,
      "stateMutability": "view",
      "type": "function"
    },
    {
      "constant": true,
      "inputs": [
        {
          "internalType": "bytes32",
          "name": "",
          "type": "bytes32"
        }
      ],
      "name": "_mailrecords",
      "outputs": [
        {
          "internalType": "bytes32",
          "name": "domainHash",
          "type": "bytes32"
        },
        {
          "internalType": "bytes32",
          "name": "mailHash",
          "type": "bytes32"
        },
        {
          "internalType": "bool",
          "name": "valid",
          "type": "bool"
        },
        {
          "internalType": "bytes",
          "name": "aliasName",
          "type": "bytes"
        },
        {
          "internalType": "bytes",
          "name": "bcAddress",
          "type": "bytes"
        }
      ],
      "payable": false,
      "stateMutability": "view",
      "type": "function"
    },
    {
      "constant": false,
      "inputs": [
        {
          "internalType": "address",
          "name": "_addr",
          "type": "address"
        }
      ],
      "name": "addDataKeeper",
      "outputs": [],
      "payable": false,
      "stateMutability": "nonpayable",
      "type": "function"
    },
    {
      "constant": true,
      "inputs": [
        {
          "internalType": "address",
          "name": "",
          "type": "address"
        }
      ],
      "name": "dataKeeper",
      "outputs": [
        {
          "internalType": "bool",
          "name": "",
          "type": "bool"
        }
      ],
      "payable": false,
      "stateMutability": "view",
      "type": "function"
    },
    {
      "constant": true,
      "inputs": [],
      "name": "ownership",
      "outputs": [
        {
          "internalType": "contract BasExpiredOwnership",
          "name": "",
          "type": "address"
        }
      ],
      "payable": false,
      "stateMutability": "view",
      "type": "function"
    },
    {
      "constant": false,
      "inputs": [
        {
          "internalType": "address",
          "name": "_ok",
          "type": "address"
        }
      ],
      "name": "removeDataKeeper",
      "outputs": [],
      "payable": false,
      "stateMutability": "nonpayable",
      "type": "function"
    },
    {
      "constant": false,
      "inputs": [
        {
          "internalType": "address",
          "name": "_os",
          "type": "address"
        }
      ],
      "name": "setOwnership",
      "outputs": [],
      "payable": false,
      "stateMutability": "nonpayable",
      "type": "function"
    },
    {
      "constant": true,
      "inputs": [
        {
          "internalType": "bytes32",
          "name": "mailHash",
          "type": "bytes32"
        }
      ],
      "name": "domainHashOf",
      "outputs": [
        {
          "internalType": "bytes32",
          "name": "",
          "type": "bytes32"
        }
      ],
      "payable": false,
      "stateMutability": "view",
      "type": "function"
    },
    {
      "constant": false,
      "inputs": [
        {
          "internalType": "bytes32",
          "name": "mailHash",
          "type": "bytes32"
        },
        {
          "internalType": "bytes",
          "name": "aliasName",
          "type": "bytes"
        },
        {
          "internalType": "bytes",
          "name": "bcAddress",
          "type": "bytes"
        }
      ],
      "name": "updateMail",
      "outputs": [],
      "payable": false,
      "stateMutability": "nonpayable",
      "type": "function"
    },
    {
      "constant": false,
      "inputs": [
        {
          "internalType": "bytes32",
          "name": "domainHash",
          "type": "bytes32"
        },
        {
          "internalType": "bytes32",
          "name": "mailHash",
          "type": "bytes32"
        },
        {
          "internalType": "address",
          "name": "owner",
          "type": "address"
        },
        {
          "internalType": "uint256",
          "name": "expire",
          "type": "uint256"
        }
      ],
      "name": "newEmail",
      "outputs": [],
      "payable": false,
      "stateMutability": "nonpayable",
      "type": "function"
    },
    {
      "constant": false,
      "inputs": [
        {
          "internalType": "bytes32",
          "name": "mailHash",
          "type": "bytes32"
        },
        {
          "internalType": "uint256",
          "name": "extendTime",
          "type": "uint256"
        }
      ],
      "name": "recharge",
      "outputs": [],
      "payable": false,
      "stateMutability": "nonpayable",
      "type": "function"
    },
    {
      "constant": false,
      "inputs": [
        {
          "internalType": "bytes32",
          "name": "hash",
          "type": "bytes32"
        }
      ],
      "name": "abandon",
      "outputs": [],
      "payable": false,
      "stateMutability": "nonpayable",
      "type": "function"
    }
  ],
  "bytecode": "0x608060405234801561001057600080fd5b50604051611af9380380611af98339818101604052602081101561003357600080fd5b8101908080519060200190929190505050336000806101000a81548173ffffffffffffffffffffffffffffffffffffffff021916908373ffffffffffffffffffffffffffffffffffffffff16021790555080600160006101000a81548173ffffffffffffffffffffffffffffffffffffffff021916908373ffffffffffffffffffffffffffffffffffffffff16021790555050611a24806100d56000396000f3fe608060405234801561001057600080fd5b50600436106100cf5760003560e01c80638133aff01161008c578063a701602311610066578063a7016023146103cc578063c7bd220214610410578063d237e1921461046c578063d392eab114610598576100cf565b80638133aff0146103225780638a42876b1461035a578063a42420911461039e576100cf565b80631e886969146100d45780631f5d78ad146101185780632ae48f5e1461015a57806337135212146102325780635c290250146102945780635d03147a146102d8575b600080fd5b610116600480360360208110156100ea57600080fd5b81019080803573ffffffffffffffffffffffffffffffffffffffff1690602001909291905050506105e2565b005b6101446004803603602081101561012e57600080fd5b81019080803590602001909291905050506106f6565b6040518082815260200191505060405180910390f35b6102306004803603606081101561017057600080fd5b81019080803590602001909291908035906020019064010000000081111561019757600080fd5b8201836020820111156101a957600080fd5b803590602001918460018302840111640100000000831117156101cb57600080fd5b9091929391929390803590602001906401000000008111156101ec57600080fd5b8201836020820111156101fe57600080fd5b8035906020019184600183028401116401000000008311171561022057600080fd5b9091929391929390505050610716565b005b6102926004803603608081101561024857600080fd5b810190808035906020019092919080359060200190929190803573ffffffffffffffffffffffffffffffffffffffff169060200190929190803590602001909291905050506109f3565b005b6102d6600480360360208110156102aa57600080fd5b81019080803573ffffffffffffffffffffffffffffffffffffffff169060200190929190505050610d4e565b005b6102e0610e6b565b604051808273ffffffffffffffffffffffffffffffffffffffff1673ffffffffffffffffffffffffffffffffffffffff16815260200191505060405180910390f35b6103586004803603604081101561033857600080fd5b810190808035906020019092919080359060200190929190505050610e91565b005b61039c6004803603602081101561037057600080fd5b81019080803573ffffffffffffffffffffffffffffffffffffffff169060200190929190505050611217565b005b6103ca600480360360208110156103b457600080fd5b810190808035906020019092919050505061131c565b005b61040e600480360360208110156103e257600080fd5b81019080803573ffffffffffffffffffffffffffffffffffffffff169060200190929190505050611569565b005b6104526004803603602081101561042657600080fd5b81019080803573ffffffffffffffffffffffffffffffffffffffff16906020019092919050505061166f565b604051808215151515815260200191505060405180910390f35b6104986004803603602081101561048257600080fd5b810190808035906020019092919050505061168f565b60405180868152602001858152602001841515151581526020018060200180602001838103835285818151815260200191508051906020019080838360005b838110156104f25780820151818401526020810190506104d7565b50505050905090810190601f16801561051f5780820380516001836020036101000a031916815260200191505b50838103825284818151815260200191508051906020019080838360005b8381101561055857808201518184015260208101905061053d565b50505050905090810190601f1680156105855780820380516001836020036101000a031916815260200191505b5097505050505050505060405180910390f35b6105a0611802565b604051808273ffffffffffffffffffffffffffffffffffffffff1673ffffffffffffffffffffffffffffffffffffffff16815260200191505060405180910390f35b6000809054906101000a900473ffffffffffffffffffffffffffffffffffffffff1673ffffffffffffffffffffffffffffffffffffffff163373ffffffffffffffffffffffffffffffffffffffff16146106a4576040517f08c379a000000000000000000000000000000000000000000000000000000000815260040180806020018281038252600a8152602001807f61646d696e206f6e6c790000000000000000000000000000000000000000000081525060200191505060405180910390fd5b600260008273ffffffffffffffffffffffffffffffffffffffff1673ffffffffffffffffffffffffffffffffffffffff16815260200190815260200160002060006101000a81549060ff021916905550565b600060036000838152602001908152602001600020600001549050919050565b3385600080600160009054906101000a900473ffffffffffffffffffffffffffffffffffffffff1673ffffffffffffffffffffffffffffffffffffffff166333eeb127846040518263ffffffff1660e01b815260040180828152602001915050604080518083038186803b15801561078d57600080fd5b505afa1580156107a1573d6000803e3d6000fd5b505050506040513d60408110156107b757600080fd5b810190808051906020019092919080519060200190929190505050915091508373ffffffffffffffffffffffffffffffffffffffff168273ffffffffffffffffffffffffffffffffffffffff1614801561081057504281115b610882576040517f08c379a00000000000000000000000000000000000000000000000000000000081526004018080602001828103825260158152602001807f6f6e6c79206f776e657220697320696e76616c6964000000000000000000000081525060200191505060405180910390fd5b886003600082815260200190815260200160002060020160009054906101000a900460ff166108fc576040517f08c379a00000000000000000000000000000000000000000000000000000000081526004018080602001828103825260238152602001806119cd6023913960400191505060405180910390fd5b8888600360008d81526020019081526020016000206003019190610921929190611827565b508686600360008d81526020019081526020016000206004019190610947929190611827565b507f572ecefef376a39b01928600d236f6e11cbff1bdb9d30a5dd7d72327c9a07c058a8a8a8a8a6040518086815260200180602001806020018381038352878782818152602001925080828437600081840152601f19601f8201169050808301925050508381038252858582818152602001925080828437600081840152601f19601f82011690508083019250505097505050505050505060405180910390a150505050505050505050565b600260003373ffffffffffffffffffffffffffffffffffffffff1673ffffffffffffffffffffffffffffffffffffffff16815260200190815260200160002060009054906101000a900460ff16610ab2576040517f08c379a00000000000000000000000000000000000000000000000000000000081526004018080602001828103825260168152602001807f4f6e6c792064617461206b65657065722076616c69640000000000000000000081525060200191505060405180910390fd5b6000801b600360008581526020019081526020016000206000015414610b40576040517f08c379a00000000000000000000000000000000000000000000000000000000081526004018080602001828103825260198152602001807f656d61696c20686173206265656e20726567697374657265640000000000000081525060200191505060405180910390fd5b600160009054906101000a900473ffffffffffffffffffffffffffffffffffffffff1673ffffffffffffffffffffffffffffffffffffffff16634f9a1fbb8484846040518463ffffffff1660e01b8152600401808481526020018373ffffffffffffffffffffffffffffffffffffffff1673ffffffffffffffffffffffffffffffffffffffff1681526020018281526020019350505050600060405180830381600087803b158015610bf157600080fd5b505af1158015610c05573d6000803e3d6000fd5b505050506040518060a001604052808581526020018481526020016001151581526020016040518060200160405280600081525081526020016040518060200160405280600081525081525060036000858152602001908152602001600020600082015181600001556020820151816001015560408201518160020160006101000a81548160ff0219169083151502179055506060820151816003019080519060200190610cb49291906118a7565b506080820151816004019080519060200190610cd19291906118a7565b509050507f20f3794f70576de98bb3758dc95010f495b687345fa10628b0e4016e20a42607848484604051808481526020018381526020018273ffffffffffffffffffffffffffffffffffffffff1673ffffffffffffffffffffffffffffffffffffffff168152602001935050505060405180910390a150505050565b6000809054906101000a900473ffffffffffffffffffffffffffffffffffffffff1673ffffffffffffffffffffffffffffffffffffffff163373ffffffffffffffffffffffffffffffffffffffff1614610e10576040517f08c379a000000000000000000000000000000000000000000000000000000000815260040180806020018281038252600a8152602001807f61646d696e206f6e6c790000000000000000000000000000000000000000000081525060200191505060405180910390fd5b6001600260008373ffffffffffffffffffffffffffffffffffffffff1673ffffffffffffffffffffffffffffffffffffffff16815260200190815260200160002060006101000a81548160ff02191690831515021790555050565b600160009054906101000a900473ffffffffffffffffffffffffffffffffffffffff1681565b816003600082815260200190815260200160002060020160009054906101000a900460ff16610f0b576040517f08c379a00000000000000000000000000000000000000000000000000000000081526004018080602001828103825260238152602001806119cd6023913960400191505060405180910390fd5b600260003373ffffffffffffffffffffffffffffffffffffffff1673ffffffffffffffffffffffffffffffffffffffff16815260200190815260200160002060009054906101000a900460ff16610fca576040517f08c379a00000000000000000000000000000000000000000000000000000000081526004018080602001828103825260168152602001807f4f6e6c792064617461206b65657065722076616c69640000000000000000000081525060200191505060405180910390fd5b600073ffffffffffffffffffffffffffffffffffffffff16600160009054906101000a900473ffffffffffffffffffffffffffffffffffffffff1673ffffffffffffffffffffffffffffffffffffffff16637dd56411856040518263ffffffff1660e01b81526004018082815260200191505060206040518083038186803b15801561105557600080fd5b505afa158015611069573d6000803e3d6000fd5b505050506040513d602081101561107f57600080fd5b810190808051906020019092919050505073ffffffffffffffffffffffffffffffffffffffff16141561111a576040517f08c379a00000000000000000000000000000000000000000000000000000000081526004018080602001828103825260178152602001807f6e6f207375636820656d61696c206f776e65727368697000000000000000000081525060200191505060405180910390fd5b600160009054906101000a900473ffffffffffffffffffffffffffffffffffffffff1673ffffffffffffffffffffffffffffffffffffffff1663c3f7beda84846040518363ffffffff1660e01b81526004018083815260200182815260200192505050602060405180830381600087803b15801561119757600080fd5b505af11580156111ab573d6000803e3d6000fd5b505050506040513d60208110156111c157600080fd5b8101908080519060200190929190505050507f1c0239827918e02705374caee2ddd0ca4e87be1d332dd4d81940ff0aa7f5b2c48383604051808381526020018281526020019250505060405180910390a1505050565b6000809054906101000a900473ffffffffffffffffffffffffffffffffffffffff1673ffffffffffffffffffffffffffffffffffffffff163373ffffffffffffffffffffffffffffffffffffffff16146112d9576040517f08c379a000000000000000000000000000000000000000000000000000000000815260040180806020018281038252600a8152602001807f61646d696e206f6e6c790000000000000000000000000000000000000000000081525060200191505060405180910390fd5b806000806101000a81548173ffffffffffffffffffffffffffffffffffffffff021916908373ffffffffffffffffffffffffffffffffffffffff16021790555050565b3381600080600160009054906101000a900473ffffffffffffffffffffffffffffffffffffffff1673ffffffffffffffffffffffffffffffffffffffff166333eeb127846040518263ffffffff1660e01b815260040180828152602001915050604080518083038186803b15801561139357600080fd5b505afa1580156113a7573d6000803e3d6000fd5b505050506040513d60408110156113bd57600080fd5b810190808051906020019092919080519060200190929190505050915091508373ffffffffffffffffffffffffffffffffffffffff168273ffffffffffffffffffffffffffffffffffffffff1614801561141657504281115b611488576040517f08c379a00000000000000000000000000000000000000000000000000000000081526004018080602001828103825260158152602001807f6f6e6c79206f776e657220697320696e76616c6964000000000000000000000081525060200191505060405180910390fd5b60006003600087815260200190815260200160002060020160006101000a81548160ff021916908315150217905550604051806020016040528060008152506003600087815260200190815260200160002060030190805190602001906114f0929190611927565b506040518060200160405280600081525060036000878152602001908152602001600020600401908051906020019061152a929190611927565b507f0175419262f4cada22c8d14a6739ac30cea1b70b6c1568c903a7bfad75aeeb98856040518082815260200191505060405180910390a15050505050565b6000809054906101000a900473ffffffffffffffffffffffffffffffffffffffff1673ffffffffffffffffffffffffffffffffffffffff163373ffffffffffffffffffffffffffffffffffffffff161461162b576040517f08c379a000000000000000000000000000000000000000000000000000000000815260040180806020018281038252600a8152602001807f61646d696e206f6e6c790000000000000000000000000000000000000000000081525060200191505060405180910390fd5b80600160006101000a81548173ffffffffffffffffffffffffffffffffffffffff021916908373ffffffffffffffffffffffffffffffffffffffff16021790555050565b60026020528060005260406000206000915054906101000a900460ff1681565b60036020528060005260406000206000915090508060000154908060010154908060020160009054906101000a900460ff1690806003018054600181600116156101000203166002900480601f01602080910402602001604051908101604052809291908181526020018280546001816001161561010002031660029004801561175a5780601f1061172f5761010080835404028352916020019161175a565b820191906000526020600020905b81548152906001019060200180831161173d57829003601f168201915b505050505090806004018054600181600116156101000203166002900480601f0160208091040260200160405190810160405280929190818152602001828054600181600116156101000203166002900480156117f85780601f106117cd576101008083540402835291602001916117f8565b820191906000526020600020905b8154815290600101906020018083116117db57829003601f168201915b5050505050905085565b6000809054906101000a900473ffffffffffffffffffffffffffffffffffffffff1681565b828054600181600116156101000203166002900490600052602060002090601f016020900481019282601f1061186857803560ff1916838001178555611896565b82800160010185558215611896579182015b8281111561189557823582559160200191906001019061187a565b5b5090506118a391906119a7565b5090565b828054600181600116156101000203166002900490600052602060002090601f016020900481019282601f106118e857805160ff1916838001178555611916565b82800160010185558215611916579182015b828111156119155782518255916020019190600101906118fa565b5b50905061192391906119a7565b5090565b828054600181600116156101000203166002900490600052602060002090601f016020900481019282601f1061196857805160ff1916838001178555611996565b82800160010185558215611996579182015b8281111561199557825182559160200191906001019061197a565b5b5090506119a391906119a7565b5090565b6119c991905b808211156119c55760008160009055506001016119ad565b5090565b9056fe746865206d61696c206164647265737320686173206265656e206162616e646f6e6564a265627a7a72315820f2a47da3c46241560111e23f28b5f07df24c8ad3d4fd2dd272b11be5ed2905ef64736f6c63430005100032",
  "source": "pragma solidity >=0.5.0;\n\nimport \"./BasDomain.sol\";\nimport \"./BasOwnership.sol\";\nimport \"./BasToken.sol\";\nimport \"./BasMiner.sol\";\nimport \"./BasLib.sol\";\n\n/*\n[DEPLOYED]\nthis contract keeps mail data\n*/\ncontract BasMail is ManagedByOwner, ManagedByContract{\n    \n    /*\n    we keep mailHash rather than mail string\n    to prevent mail address crawler aquiring all mails\n    */\n    struct MailRecord {\n        bytes32     domainHash;\n        bytes32     mailHash;\n        bool        valid;\n        bytes       aliasName;\n        bytes       bcAddress;\n    }\n    \n    event NewMail(bytes32 domainHash,\n                bytes32 nameHash,\n                address owner);\n    event MailUpdate(bytes32 domainHash,\n                    bytes aliasName,\n                    bytes bcAddress);\n    event AbandMail(bytes32 domainHash);\n    event MailRecharged(bytes32 domainHash,\n                    uint extendTime);\n                    \n    constructor(address _os) public{\n        ownership = BasExpiredOwnership(_os);\n    }\n    \n    mapping(bytes32 => MailRecord) public _mailrecords;\n    \n    modifier OnlyAlive(bytes32 hash){\n        require(_mailrecords[hash].valid, \"the mail address has been abandoned\");\n        _;\n    }\n\n    function domainHashOf(bytes32 mailHash) \n                    view \n                    external \n                    returns(bytes32){\n        return _mailrecords[mailHash].domainHash;\n    }\n    \n    function updateMail(bytes32 mailHash,\n                        bytes calldata aliasName,\n                        bytes calldata bcAddress)\n                        OnlyOwner(msg.sender, mailHash)\n                        OnlyAlive(mailHash)\n                        external{\n\n        _mailrecords[mailHash].aliasName = aliasName;\n        _mailrecords[mailHash].bcAddress = bcAddress;\n\n        emit MailUpdate(mailHash, aliasName, bcAddress);\n    }\n    \n    function newEmail(bytes32 domainHash,\n                    bytes32 mailHash,\n                    address owner,\n                    uint expire)\n                    external \n                    OnlyDataKeeper{\n        \n        require(_mailrecords[mailHash].domainHash == bytes32(0), \"email has been registered\");\n        \n        ownership.newOwnership(mailHash, owner, expire);\n        \n        _mailrecords[mailHash] = MailRecord(domainHash, mailHash, true, '', '');\n        \n        emit NewMail(domainHash, mailHash, owner);\n    }\n    \n    function recharge(bytes32 mailHash,\n                    uint extendTime)\n                    external\n                    OnlyAlive(mailHash) \n                    OnlyDataKeeper{\n                        \n        require(ownership.ownerOf(mailHash) != address(0), \"no such email ownership\");\n        \n        ownership.extendTime(mailHash, extendTime);\n        \n        emit MailRecharged(mailHash, extendTime);\n    }\n    \n    /*\n    we don't simply delete mail data, because there is a chance the mail is re-registered\n    which may cause secure problem\n    */\n    function abandon(bytes32 hash)\n                OnlyOwner(msg.sender, hash)\n                external{\n        \n        _mailrecords[hash].valid = false;\n        \n        _mailrecords[hash].aliasName = \"\";\n        _mailrecords[hash].bcAddress = \"\";\n        \n        emit AbandMail(hash);\n    }\n}\n\n/*\n[DEPLOYED]\nthis contract manages mail registry and mail admin options\n*/\ncontract BasMailManager is ManagedByDAO{\n    using SafeMath for uint256;\n    \n    \n    event PriceSetting(uint256 MAX_MAIL_YEAR,\n                    uint256 OPEN_ACTION_GAS,\n                    uint256 REG_MAIL_GAS);\n    \n    event AllocationSetting(uint256 BASIC_M,\n                            uint256 TOP_DOMAIN_M,\n                            uint256 TOP_DOMAIN_O);\n    \n    event MailServerOpen(uint256 receiptID,\n                address payer, \n                bytes32 domainHash, \n                uint256 cost);\n                        \n    event MailServerRemoved(address owner,\n                            bytes32 mailHash);\n    event MailServerCloseToPublic(address owner,\n                            bytes32 mailHash);\n    event MailServerOpenToPublic(address owner,\n                            bytes32 mailHash);\n    event MailServerAdminChanged(address owner,\n                            bytes32 mailHash);\n    \n    event Register(uint receiptID,\n                address payer, \n                bytes32 domainHash, \n                uint cost);\n                \n    event Recharge(uint receiptID,\n                address payer, \n                bytes32 mailHash,\n                uint cost);\n                \n    string constant MINER = \"miner\";\n    \n    uint256 public MAX_MAIL_YEAR        = 5;\n    uint256 public OPEN_ACTION_GAS      = 100 * (10 ** 18);\n    uint256 public REG_MAIL_GAS         = 2 * (10 ** 18);\n    uint256 public BASIC_M              = 40;\n    uint256 public TOP_DOMAIN_M         = 40;\n    uint256 public TOP_DOMAIN_O         = 20;\n    \n    function priceSetting(uint256 max_mail_year,\n                        uint256 open_action_gas,\n                        uint256 reg_mail_gas)\n                        public\n                        OnlyDAO{\n                MAX_MAIL_YEAR           = max_mail_year;\n                OPEN_ACTION_GAS         = open_action_gas;\n                REG_MAIL_GAS            = reg_mail_gas;\n                \n                emit PriceSetting(max_mail_year, open_action_gas, reg_mail_gas);\n    }\n    \n    function allocationSetting(uint256 basic_m,\n                            uint256 top_domain_m,\n                            uint256 top_domain_o)\n                            public\n                            OnlyDAO{\n                                \n                require(basic_m <= 100 &&\n                        top_domain_m.add(top_domain_o) <= 100,\n                        \"param error\");\n                BASIC_M                 = basic_m;\n                TOP_DOMAIN_M            = top_domain_m;\n                TOP_DOMAIN_O            = top_domain_o;\n                \n                emit AllocationSetting (basic_m, top_domain_m, top_domain_o);\n    }\n    \n    struct MainServiceConf{\n        bool    active;\n        bool    openToPublic;\n    }\n    \n    ERC20 public            token;\n    uint public             receiptID;\n    BasAccountant public    accountant;\n    BasMail public          mailData;\n    BasSubDomain public     subDomainData;\n    BasRootDomain public    rootDomainData;\n    \n    mapping(bytes32 => MainServiceConf) public    mailConfigs;\n    mapping(address => address)         public    adminOfOwner;\n\n    constructor(address _t,\n                address _acc,\n                address _rd,\n                address _sd,\n                address _mail)\n                public{\n        token           = ERC20(_t);\n        accountant      = BasAccountant(_acc);\n        mailData        = BasMail(_mail);\n        rootDomainData  = BasRootDomain(_rd);\n        subDomainData   = BasSubDomain(_sd);\n    }\n    \n    function setupDataRef(address _t, \n                address _acc, \n                address _rd,  \n                address _sd, \n                address _mail) \n                external\n                OnlyDAO{\n        token           = ERC20(_t);\n        accountant      = BasAccountant(_acc);\n        mailData        = BasMail(_mail);\n        rootDomainData  = BasRootDomain(_rd);\n        subDomainData   = BasSubDomain(_sd);\n    }\n    \n    modifier ValidEmailDuration(uint8 durationInYear){\n        require(durationInYear > 0 && \n                durationInYear <= MAX_MAIL_YEAR, \n                \"Invalid email duration\");\n        _;\n    }\n    \n    /*\n    actually the ownership behind hasDomain call will be the same\n    */\n    modifier DomainValid(bytes32 domainHash){\n        require(rootDomainData.hasDomain(domainHash)\n                ||subDomainData.hasDomain(domainHash), \n                \"no such domain name\");\n        _;\n    }\n    \n    modifier OnlyDomainOwner(bytes32 domainHash){\n        require(rootDomainData.domainIsValid(msg.sender, domainHash)\n                || subDomainData.domainIsValid(msg.sender, domainHash),\n                \"only domain valid\");\n        _;\n    }\n    \n    modifier MailServiceOpened(bytes32 domainHash){\n        require(mailConfigs[domainHash].active, \"no such domain service config\");\n        _;\n    }\n    \n\n    /*\n    all domains can open Mail service\n    but only rare root domain can open to public\n    */\n    function openMailService(bytes32 domainHash,\n                            bool openToPublic)\n                        OnlyDomainOwner(domainHash)\n                        DomainValid(domainHash)\n                        external{\n        \n        require(mailConfigs[domainHash].active == false, \"opened already\"); \n        token.transferFrom(msg.sender, address(accountant), OPEN_ACTION_GAS);\n        \n        if (openToPublic){\n            require(rootDomainData.isRare(domainHash), \n                \"Only top root domain can be used for public email user\");\n        }\n        \n        mailConfigs[domainHash] = MainServiceConf(true, openToPublic);\n        \n        accountant.allocateProfit(accountant.contractReceivers(MINER), OPEN_ACTION_GAS.mul(BASIC_M).div(100));\n        \n        emit MailServerOpen(receiptID++, msg.sender, domainHash, OPEN_ACTION_GAS);\n    }\n\n\n    function removeMailServer(bytes32 domainHash)\n                        MailServiceOpened(domainHash)\n                        OnlyDomainOwner(domainHash) external{\n\n        delete mailConfigs[domainHash];\n        \n        emit MailServerRemoved(msg.sender, domainHash);\n    }\n\n    /*\n    skip is rare check\n    */\n    function closeToPublic(bytes32 domainHash)\n                        MailServiceOpened(domainHash)\n                        OnlyDomainOwner(domainHash) external{\n\n        mailConfigs[domainHash].openToPublic = false;\n        \n        emit MailServerCloseToPublic(msg.sender, domainHash);\n    }\n\n    /*\n    can insert freely\n    but only domain owner will be used\n    */    \n    function setAdmin(address admin)\n                external{\n        adminOfOwner[msg.sender] = admin;\n    }\n\n    /*\n    only rare root domain can open to public\n    */\n    function openToPublic(bytes32 domainHash)\n                        MailServiceOpened(domainHash)\n                        OnlyDomainOwner(domainHash) external{\n        \n        MainServiceConf storage conf = mailConfigs[domainHash];\n        \n        require(rootDomainData.isRare(domainHash), \n                \"Only top root domain can be used for public email user\");\n        \n        conf.openToPublic = true;\n\n        emit MailServerOpenToPublic(msg.sender, domainHash);\n    }\n    \n    /*\n    there are generally two type of mail domain\n    1. rare root domain, user can register mail when domain is open to public\n    2. other domain, only domain user or domain admin can register mail\n    */\n    function registerMail(bytes32 domainHash,\n                         bytes32 mailhash,\n                        uint8 durationInYear)\n                        ValidEmailDuration(durationInYear)\n                        external{\n        \n        MainServiceConf memory conf = mailConfigs[domainHash];\n        require(conf.active, \"domain hasn't open to email register\");\n        \n        \n        //actually rootDomainData and subDomainData shares the same owner contract\n        address domainOwner;\n        if (rootDomainData.isRare(domainHash)){\n            domainOwner = rootDomainData.getValidOwner(domainHash);\n            require(conf.openToPublic, \"not open to public\");\n        }else{\n            domainOwner = subDomainData.getValidOwner(domainHash);\n            require(msg.sender == domainOwner || msg.sender == adminOfOwner[msg.sender],\n                    \"only owner or admin can register\");\n        }\n        \n        uint cost = REG_MAIL_GAS.mul(durationInYear);\n        \n        token.transferFrom(msg.sender, address(accountant), cost);\n        \n        mailData.newEmail(domainHash, mailhash, msg.sender, now.add(durationInYear * 365 days));\n        \n        _allocateProfit(cost,conf.openToPublic, domainOwner);\n        \n        emit Register(receiptID++, msg.sender, domainHash, cost);\n    }\n    \n    function recharge(bytes32 mailHash, \n                    uint8 durationInYear) \n                    ValidEmailDuration(durationInYear)\n                    external{\n        \n        bytes32 domainHash = mailData.domainHashOf(mailHash);\n        \n        MainServiceConf memory conf = mailConfigs[domainHash];\n        require(conf.active, \"domain hasn't open to email register\");\n        \n        //actually the ownership of root domain or sub domain is the same\n        address domainOwner = rootDomainData.getValidOwner(domainHash);\n        if (domainOwner == address(0)){\n            domainOwner = subDomainData.getValidOwner(domainHash);\n        }\n        \n        uint cost = REG_MAIL_GAS.mul(durationInYear);\n        \n        token.transferFrom(msg.sender, address(accountant), cost);\n        \n        mailData.recharge(mailHash, durationInYear * 365 days);\n        \n        _allocateProfit(cost, conf.openToPublic, domainOwner);\n         \n        emit Recharge(receiptID++, msg.sender, mailHash, cost);\n    }\n    \n    function _allocateProfit(uint cost,\n                    bool isOpenToPub,\n                    address topDomainOwner) private{\n                        \n        \n         if (isOpenToPub){\n            accountant.allocateProfit(accountant.contractReceivers(MINER), cost.mul(TOP_DOMAIN_M).div(100));\n            accountant.allocateProfit(topDomainOwner, cost.mul(TOP_DOMAIN_O).div(100));\n        }else{\n            accountant.allocateProfit(accountant.contractReceivers(MINER), cost.mul(BASIC_M).div(100));\n        }\n    }\n}",
  "sourcePath": "/Users/mini2/workspace/truffle suite/BasChain/truffle_smart_contracts/contracts/BasMail.sol",
  "compiler": {
    "name": "solc",
    "version": "0.5.16+commit.9c3226ce.Emscripten.clang"
  },
  "schemaVersion": "3.0.23",
  "updatedAt": "2020-04-29T08:50:58.405Z",
  "networkType": "ethereum",
  "devdoc": {
    "methods": {}
  },
  "userdoc": {
    "methods": {}
  }
}