{
  "contractName": "BasMarket",
  "abi": [
    {
      "inputs": [
        {
          "internalType": "address",
          "name": "_t",
          "type": "address"
        },
        {
          "internalType": "address",
          "name": "_rd",
          "type": "address"
        },
        {
          "internalType": "address",
          "name": "_sd",
          "type": "address"
        }
      ],
      "payable": false,
      "stateMutability": "nonpayable",
      "type": "constructor"
    },
    {
      "anonymous": false,
      "inputs": [
        {
          "indexed": false,
          "internalType": "bytes32",
          "name": "nameHash",
          "type": "bytes32"
        },
        {
          "indexed": false,
          "internalType": "address",
          "name": "operator",
          "type": "address"
        },
        {
          "indexed": false,
          "internalType": "uint256",
          "name": "price",
          "type": "uint256"
        }
      ],
      "name": "SellAdded",
      "type": "event"
    },
    {
      "anonymous": false,
      "inputs": [
        {
          "indexed": false,
          "internalType": "bytes32",
          "name": "nameHash",
          "type": "bytes32"
        },
        {
          "indexed": false,
          "internalType": "address",
          "name": "operator",
          "type": "address"
        },
        {
          "indexed": false,
          "internalType": "uint256",
          "name": "price",
          "type": "uint256"
        }
      ],
      "name": "SellChanged",
      "type": "event"
    },
    {
      "anonymous": false,
      "inputs": [
        {
          "indexed": false,
          "internalType": "bytes32",
          "name": "nameHash",
          "type": "bytes32"
        },
        {
          "indexed": false,
          "internalType": "address",
          "name": "operator",
          "type": "address"
        }
      ],
      "name": "SellRemoved",
      "type": "event"
    },
    {
      "anonymous": false,
      "inputs": [
        {
          "indexed": false,
          "internalType": "bytes32",
          "name": "nameHash",
          "type": "bytes32"
        },
        {
          "indexed": true,
          "internalType": "address",
          "name": "from",
          "type": "address"
        },
        {
          "indexed": true,
          "internalType": "address",
          "name": "to",
          "type": "address"
        },
        {
          "indexed": false,
          "internalType": "uint256",
          "name": "price",
          "type": "uint256"
        }
      ],
      "name": "SoldBySell",
      "type": "event"
    },
    {
      "constant": true,
      "inputs": [],
      "name": "AT_LEAST_REMAIN_TIME",
      "outputs": [
        {
          "internalType": "uint256",
          "name": "",
          "type": "uint256"
        }
      ],
      "payable": false,
      "stateMutability": "view",
      "type": "function"
    },
    {
      "constant": false,
      "inputs": [
        {
          "internalType": "address",
          "name": "newDao",
          "type": "address"
        }
      ],
      "name": "ChangeDAO",
      "outputs": [],
      "payable": false,
      "stateMutability": "nonpayable",
      "type": "function"
    },
    {
      "constant": true,
      "inputs": [],
      "name": "DAOAddress",
      "outputs": [
        {
          "internalType": "address",
          "name": "",
          "type": "address"
        }
      ],
      "payable": false,
      "stateMutability": "view",
      "type": "function"
    },
    {
      "constant": true,
      "inputs": [
        {
          "internalType": "address",
          "name": "",
          "type": "address"
        },
        {
          "internalType": "bytes32",
          "name": "",
          "type": "bytes32"
        }
      ],
      "name": "DomainSellOrders",
      "outputs": [
        {
          "internalType": "uint256",
          "name": "",
          "type": "uint256"
        }
      ],
      "payable": false,
      "stateMutability": "view",
      "type": "function"
    },
    {
      "constant": true,
      "inputs": [],
      "name": "ownership",
      "outputs": [
        {
          "internalType": "contract BasTradableOwnership",
          "name": "",
          "type": "address"
        }
      ],
      "payable": false,
      "stateMutability": "view",
      "type": "function"
    },
    {
      "constant": true,
      "inputs": [],
      "name": "rootDomainData",
      "outputs": [
        {
          "internalType": "contract BasRootDomain",
          "name": "",
          "type": "address"
        }
      ],
      "payable": false,
      "stateMutability": "view",
      "type": "function"
    },
    {
      "constant": true,
      "inputs": [],
      "name": "subDomainData",
      "outputs": [
        {
          "internalType": "contract BasSubDomain",
          "name": "",
          "type": "address"
        }
      ],
      "payable": false,
      "stateMutability": "view",
      "type": "function"
    },
    {
      "constant": true,
      "inputs": [],
      "name": "token",
      "outputs": [
        {
          "internalType": "contract ERC20",
          "name": "",
          "type": "address"
        }
      ],
      "payable": false,
      "stateMutability": "view",
      "type": "function"
    },
    {
      "constant": false,
      "inputs": [
        {
          "internalType": "address",
          "name": "_t",
          "type": "address"
        },
        {
          "internalType": "address",
          "name": "_rd",
          "type": "address"
        },
        {
          "internalType": "address",
          "name": "_sd",
          "type": "address"
        }
      ],
      "name": "setupDataRef",
      "outputs": [],
      "payable": false,
      "stateMutability": "nonpayable",
      "type": "function"
    },
    {
      "constant": false,
      "inputs": [
        {
          "internalType": "uint256",
          "name": "newDays",
          "type": "uint256"
        }
      ],
      "name": "changeAtLeastDays",
      "outputs": [],
      "payable": false,
      "stateMutability": "nonpayable",
      "type": "function"
    },
    {
      "constant": false,
      "inputs": [
        {
          "internalType": "bytes32",
          "name": "nameHash",
          "type": "bytes32"
        },
        {
          "internalType": "uint256",
          "name": "price",
          "type": "uint256"
        }
      ],
      "name": "AddToSells",
      "outputs": [],
      "payable": false,
      "stateMutability": "nonpayable",
      "type": "function"
    },
    {
      "constant": false,
      "inputs": [
        {
          "internalType": "bytes32",
          "name": "nameHash",
          "type": "bytes32"
        },
        {
          "internalType": "uint256",
          "name": "price",
          "type": "uint256"
        }
      ],
      "name": "ChangeSellPrice",
      "outputs": [],
      "payable": false,
      "stateMutability": "nonpayable",
      "type": "function"
    },
    {
      "constant": false,
      "inputs": [
        {
          "internalType": "bytes32",
          "name": "nameHash",
          "type": "bytes32"
        }
      ],
      "name": "RemoveSellOrder",
      "outputs": [],
      "payable": false,
      "stateMutability": "nonpayable",
      "type": "function"
    },
    {
      "constant": false,
      "inputs": [
        {
          "internalType": "bytes32",
          "name": "nameHash",
          "type": "bytes32"
        },
        {
          "internalType": "address",
          "name": "owner",
          "type": "address"
        }
      ],
      "name": "BuyFromSells",
      "outputs": [],
      "payable": false,
      "stateMutability": "nonpayable",
      "type": "function"
    },
    {
      "constant": true,
      "inputs": [],
      "name": "ordersCountsOf",
      "outputs": [
        {
          "internalType": "uint256",
          "name": "",
          "type": "uint256"
        }
      ],
      "payable": false,
      "stateMutability": "view",
      "type": "function"
    },
    {
      "constant": true,
      "inputs": [
        {
          "internalType": "uint256",
          "name": "start",
          "type": "uint256"
        },
        {
          "internalType": "uint256",
          "name": "end",
          "type": "uint256"
        }
      ],
      "name": "ordersOf",
      "outputs": [
        {
          "internalType": "bytes32[]",
          "name": "",
          "type": "bytes32[]"
        }
      ],
      "payable": false,
      "stateMutability": "view",
      "type": "function"
    }
  ],
  "bytecode": "0x608060405262a8c00060015534801561001757600080fd5b5060405162001d2a38038062001d2a8339818101604052606081101561003c57600080fd5b81019080805190602001909291908051906020019092919080519060200190929190505050336000806101000a81548173ffffffffffffffffffffffffffffffffffffffff021916908373ffffffffffffffffffffffffffffffffffffffff16021790555082600260006101000a81548173ffffffffffffffffffffffffffffffffffffffff021916908373ffffffffffffffffffffffffffffffffffffffff16021790555081600460006101000a81548173ffffffffffffffffffffffffffffffffffffffff021916908373ffffffffffffffffffffffffffffffffffffffff16021790555080600360006101000a81548173ffffffffffffffffffffffffffffffffffffffff021916908373ffffffffffffffffffffffffffffffffffffffff160217905550600360009054906101000a900473ffffffffffffffffffffffffffffffffffffffff1673ffffffffffffffffffffffffffffffffffffffff16635d03147a6040518163ffffffff1660e01b815260040160206040518083038186803b1580156101cc57600080fd5b505afa1580156101e0573d6000803e3d6000fd5b505050506040513d60208110156101f657600080fd5b810190808051906020019092919050505073ffffffffffffffffffffffffffffffffffffffff16600460009054906101000a900473ffffffffffffffffffffffffffffffffffffffff1673ffffffffffffffffffffffffffffffffffffffff16635d03147a6040518163ffffffff1660e01b815260040160206040518083038186803b15801561028557600080fd5b505afa158015610299573d6000803e3d6000fd5b505050506040513d60208110156102af57600080fd5b810190808051906020019092919050505073ffffffffffffffffffffffffffffffffffffffff1614610349576040517f08c379a000000000000000000000000000000000000000000000000000000000815260040180806020018281038252601c8152602001807f646f6d61696e20636f6e7472616374206465706c6f79206572726f720000000081525060200191505060405180910390fd5b600460009054906101000a900473ffffffffffffffffffffffffffffffffffffffff1673ffffffffffffffffffffffffffffffffffffffff16600560006101000a81548173ffffffffffffffffffffffffffffffffffffffff021916908373ffffffffffffffffffffffffffffffffffffffff16021790555050505061195580620003d56000396000f3fe608060405234801561001057600080fd5b50600436106101005760003560e01c8063b1f45a9011610097578063d8e2102111610066578063d8e210211461045a578063e53427ca14610488578063fc0c546a146104b6578063ff22fe7d1461050057610100565b8063b1f45a901461035e578063b49553951461037c578063d1e6d6ff146103c6578063d392eab11461041057610100565b80635d03147a116100d35780635d03147a1461020b57806365f6c15e1461025557806375a69f19146102e25780638a42876b1461031a57610100565b80631d4edd20146101055780631d6a1ed01461013d5780633a2ef9231461015b5780634c6606a3146101a9575b600080fd5b61013b6004803603604081101561011b57600080fd5b810190808035906020019092919080359060200190929190505050610584565b005b610145610790565b6040518082815260200191505060405180910390f35b6101a76004803603604081101561017157600080fd5b8101908080359060200190929190803573ffffffffffffffffffffffffffffffffffffffff169060200190929190505050610796565b005b6101f5600480360360408110156101bf57600080fd5b81019080803573ffffffffffffffffffffffffffffffffffffffff16906020019092919080359060200190929190505050610ca7565b6040518082815260200191505060405180910390f35b610213610ccc565b604051808273ffffffffffffffffffffffffffffffffffffffff1673ffffffffffffffffffffffffffffffffffffffff16815260200191505060405180910390f35b61028b6004803603604081101561026b57600080fd5b810190808035906020019092919080359060200190929190505050610cf2565b6040518080602001828103825283818151815260200191508051906020019060200280838360005b838110156102ce5780820151818401526020810190506102b3565b505050509050019250505060405180910390f35b610318600480360360408110156102f857600080fd5b810190808035906020019092919080359060200190929190505050610d4f565b005b61035c6004803603602081101561033057600080fd5b81019080803573ffffffffffffffffffffffffffffffffffffffff16906020019092919050505061112d565b005b610366611232565b6040518082815260200191505060405180910390f35b610384611280565b604051808273ffffffffffffffffffffffffffffffffffffffff1673ffffffffffffffffffffffffffffffffffffffff16815260200191505060405180910390f35b6103ce6112a6565b604051808273ffffffffffffffffffffffffffffffffffffffff1673ffffffffffffffffffffffffffffffffffffffff16815260200191505060405180910390f35b6104186112cc565b604051808273ffffffffffffffffffffffffffffffffffffffff1673ffffffffffffffffffffffffffffffffffffffff16815260200191505060405180910390f35b6104866004803603602081101561047057600080fd5b81019080803590602001909291905050506112f1565b005b6104b46004803603602081101561049e57600080fd5b81019080803590602001909291905050506113bd565b005b6104be61147f565b604051808273ffffffffffffffffffffffffffffffffffffffff1673ffffffffffffffffffffffffffffffffffffffff16815260200191505060405180910390f35b6105826004803603606081101561051657600080fd5b81019080803573ffffffffffffffffffffffffffffffffffffffff169060200190929190803573ffffffffffffffffffffffffffffffffffffffff169060200190929190803573ffffffffffffffffffffffffffffffffffffffff1690602001909291905050506114a5565b005b80600081116105fb576040517f08c379a00000000000000000000000000000000000000000000000000000000081526004018080602001828103825260138152602001807f70726963652063616e2774206265207a65726f0000000000000000000000000081525060200191505060405180910390fd5b826000600660003373ffffffffffffffffffffffffffffffffffffffff1673ffffffffffffffffffffffffffffffffffffffff168152602001908152602001600020600083815260200190815260200160002054116106c2576040517f08c379a000000000000000000000000000000000000000000000000000000000815260040180806020018281038252600c8152602001807f6e6f2073756368206974656d000000000000000000000000000000000000000081525060200191505060405180910390fd5b82600660003373ffffffffffffffffffffffffffffffffffffffff1673ffffffffffffffffffffffffffffffffffffffff1681526020019081526020016000206000868152602001908152602001600020819055507fe2fbe11a69dd3397016a8ac5cc0d982dd57cc1586c3400f8e3a3167d0dcd3634843385604051808481526020018373ffffffffffffffffffffffffffffffffffffffff1673ffffffffffffffffffffffffffffffffffffffff168152602001828152602001935050505060405180910390a150505050565b60015481565b8073ffffffffffffffffffffffffffffffffffffffff163373ffffffffffffffffffffffffffffffffffffffff161415610838576040517f08c379a00000000000000000000000000000000000000000000000000000000081526004018080602001828103825260138152602001807f63616e2774206275792066726f6d2073656c660000000000000000000000000081525060200191505060405180910390fd5b6000600660008373ffffffffffffffffffffffffffffffffffffffff1673ffffffffffffffffffffffffffffffffffffffff16815260200190815260200160002060008481526020019081526020016000205490506000600560009054906101000a900473ffffffffffffffffffffffffffffffffffffffff1673ffffffffffffffffffffffffffffffffffffffff166333eeb127856040518263ffffffff1660e01b815260040180828152602001915050604080518083038186803b15801561090157600080fd5b505afa158015610915573d6000803e3d6000fd5b505050506040513d604081101561092b57600080fd5b8101908080519060200190929190805190602001909291905050509150508061095f600154426117b990919063ffffffff16565b106109d2576040517f08c379a000000000000000000000000000000000000000000000000000000000815260040180806020018281038252601e8152602001807f74686520646f6d61696e2077696c6c206578706972652073686f72746c79000081525060200191505060405180910390fd5b600260009054906101000a900473ffffffffffffffffffffffffffffffffffffffff1673ffffffffffffffffffffffffffffffffffffffff166323b872dd3385856040518463ffffffff1660e01b8152600401808473ffffffffffffffffffffffffffffffffffffffff1673ffffffffffffffffffffffffffffffffffffffff1681526020018373ffffffffffffffffffffffffffffffffffffffff1673ffffffffffffffffffffffffffffffffffffffff1681526020018281526020019350505050602060405180830381600087803b158015610aaf57600080fd5b505af1158015610ac3573d6000803e3d6000fd5b505050506040513d6020811015610ad957600080fd5b810190808051906020019092919050505050600560009054906101000a900473ffffffffffffffffffffffffffffffffffffffff1673ffffffffffffffffffffffffffffffffffffffff166382d7bd278585336040518463ffffffff1660e01b8152600401808481526020018373ffffffffffffffffffffffffffffffffffffffff1673ffffffffffffffffffffffffffffffffffffffff1681526020018273ffffffffffffffffffffffffffffffffffffffff1673ffffffffffffffffffffffffffffffffffffffff1681526020019350505050600060405180830381600087803b158015610bc857600080fd5b505af1158015610bdc573d6000803e3d6000fd5b50505050600660008473ffffffffffffffffffffffffffffffffffffffff1673ffffffffffffffffffffffffffffffffffffffff1681526020019081526020016000206000858152602001908152602001600020600090553373ffffffffffffffffffffffffffffffffffffffff168373ffffffffffffffffffffffffffffffffffffffff167f9c0f845844791139cd02a1448f071f31346e7d1fee8cafc98925d507dc4d62448685604051808381526020018281526020019250505060405180910390a350505050565b6006602052816000526040600020602052806000526040600020600091509150505481565b600560009054906101000a900473ffffffffffffffffffffffffffffffffffffffff1681565b6060610d478383600760003373ffffffffffffffffffffffffffffffffffffffff1673ffffffffffffffffffffffffffffffffffffffff1681526020019081526020016000206117d89092919063ffffffff16565b905092915050565b81600080600560009054906101000a900473ffffffffffffffffffffffffffffffffffffffff1673ffffffffffffffffffffffffffffffffffffffff166333eeb127846040518263ffffffff1660e01b815260040180828152602001915050604080518083038186803b158015610dc557600080fd5b505afa158015610dd9573d6000803e3d6000fd5b505050506040513d6040811015610def57600080fd5b810190808051906020019092919080519060200190929190505050915091503373ffffffffffffffffffffffffffffffffffffffff168273ffffffffffffffffffffffffffffffffffffffff16148015610f5557503073ffffffffffffffffffffffffffffffffffffffff16600560009054906101000a900473ffffffffffffffffffffffffffffffffffffffff1673ffffffffffffffffffffffffffffffffffffffff1663bcf9fcad84866040518363ffffffff1660e01b8152600401808373ffffffffffffffffffffffffffffffffffffffff1673ffffffffffffffffffffffffffffffffffffffff1681526020018281526020019250505060206040518083038186803b158015610f0257600080fd5b505afa158015610f16573d6000803e3d6000fd5b505050506040513d6020811015610f2c57600080fd5b810190808051906020019092919050505073ffffffffffffffffffffffffffffffffffffffff16145b8015610f74575080610f72600154426117b990919063ffffffff16565b105b610fe6576040517f08c379a000000000000000000000000000000000000000000000000000000000815260040180806020018281038252600d8152602001807f636f6e74726f6c206572726f720000000000000000000000000000000000000081525060200191505060405180910390fd5b836000811161105d576040517f08c379a00000000000000000000000000000000000000000000000000000000081526004018080602001828103825260138152602001807f70726963652063616e2774206265207a65726f0000000000000000000000000081525060200191505060405180910390fd5b84600660003373ffffffffffffffffffffffffffffffffffffffff1673ffffffffffffffffffffffffffffffffffffffff1681526020019081526020016000206000888152602001908152602001600020819055507f10f7d9b00b30f2c94496f80f416e54d140fcd3c6040b5440ae55c39a3294086c863387604051808481526020018373ffffffffffffffffffffffffffffffffffffffff1673ffffffffffffffffffffffffffffffffffffffff168152602001828152602001935050505060405180910390a1505050505050565b6000809054906101000a900473ffffffffffffffffffffffffffffffffffffffff1673ffffffffffffffffffffffffffffffffffffffff163373ffffffffffffffffffffffffffffffffffffffff16146111ef576040517f08c379a000000000000000000000000000000000000000000000000000000000815260040180806020018281038252600a8152602001807f61646d696e206f6e6c790000000000000000000000000000000000000000000081525060200191505060405180910390fd5b806000806101000a81548173ffffffffffffffffffffffffffffffffffffffff021916908373ffffffffffffffffffffffffffffffffffffffff16021790555050565b600061127b600760003373ffffffffffffffffffffffffffffffffffffffff1673ffffffffffffffffffffffffffffffffffffffff16815260200190815260200160002061190f565b905090565b600460009054906101000a900473ffffffffffffffffffffffffffffffffffffffff1681565b600360009054906101000a900473ffffffffffffffffffffffffffffffffffffffff1681565b6000809054906101000a900473ffffffffffffffffffffffffffffffffffffffff1681565b6000809054906101000a900473ffffffffffffffffffffffffffffffffffffffff1673ffffffffffffffffffffffffffffffffffffffff163373ffffffffffffffffffffffffffffffffffffffff16146113b3576040517f08c379a000000000000000000000000000000000000000000000000000000000815260040180806020018281038252600a8152602001807f61646d696e206f6e6c790000000000000000000000000000000000000000000081525060200191505060405180910390fd5b8060018190555050565b600660003373ffffffffffffffffffffffffffffffffffffffff1673ffffffffffffffffffffffffffffffffffffffff1681526020019081526020016000206000828152602001908152602001600020600090557fd369082d239e5af317337ed91a37711a5809487a596e485189541c3219a35a0a8133604051808381526020018273ffffffffffffffffffffffffffffffffffffffff1673ffffffffffffffffffffffffffffffffffffffff1681526020019250505060405180910390a150565b600260009054906101000a900473ffffffffffffffffffffffffffffffffffffffff1681565b6000809054906101000a900473ffffffffffffffffffffffffffffffffffffffff1673ffffffffffffffffffffffffffffffffffffffff163373ffffffffffffffffffffffffffffffffffffffff1614611567576040517f08c379a000000000000000000000000000000000000000000000000000000000815260040180806020018281038252600a8152602001807f61646d696e206f6e6c790000000000000000000000000000000000000000000081525060200191505060405180910390fd5b82600260006101000a81548173ffffffffffffffffffffffffffffffffffffffff021916908373ffffffffffffffffffffffffffffffffffffffff16021790555081600460006101000a81548173ffffffffffffffffffffffffffffffffffffffff021916908373ffffffffffffffffffffffffffffffffffffffff16021790555080600360006101000a81548173ffffffffffffffffffffffffffffffffffffffff021916908373ffffffffffffffffffffffffffffffffffffffff160217905550600360009054906101000a900473ffffffffffffffffffffffffffffffffffffffff1673ffffffffffffffffffffffffffffffffffffffff1673ffffffffffffffffffffffffffffffffffffffff16600460009054906101000a900473ffffffffffffffffffffffffffffffffffffffff1673ffffffffffffffffffffffffffffffffffffffff1673ffffffffffffffffffffffffffffffffffffffff161461173b576040517f08c379a000000000000000000000000000000000000000000000000000000000815260040180806020018281038252601c8152602001807f646f6d61696e20636f6e7472616374206465706c6f79206572726f720000000081525060200191505060405180910390fd5b600460009054906101000a900473ffffffffffffffffffffffffffffffffffffffff1673ffffffffffffffffffffffffffffffffffffffff16600560006101000a81548173ffffffffffffffffffffffffffffffffffffffff021916908373ffffffffffffffffffffffffffffffffffffffff160217905550505050565b6000808284019050838110156117ce57600080fd5b8091505092915050565b6060600082141561183d578360010180548060200260200160405190810160405280929190818152602001828054801561183157602002820191906000526020600020905b81548152602001906001019080831161181d575b50505050509050611908565b818310611848578192505b606060018484030160405190808252806020026020018201604052801561187e5781602001602082028038833980820191505090505b50905060008090506000866001018054905090505b8482870111611901578082870110156118df5786600101828701815481106118b757fe5b90600052602060002001548383815181106118ce57fe5b6020026020010181815250506118fc565b6000801b8383815181106118ef57fe5b6020026020010181815250505b611893565b8293505050505b9392505050565b60008160010180549050905091905056fea265627a7a723158202fb09ae9bd55e2d24d984b1ef4cb0ab9f85f077953dae7f25b9028cb516cc7ff64736f6c63430005100032",
  "source": "pragma solidity >=0.5.0;\n\nimport \"./BasToken.sol\";\nimport \"./BasOwnership.sol\";\nimport \"./BasDomain.sol\";\nimport \"./BasLib.sol\";\n\n/*\n[DEPLOYED]\nthis contract is for domain trade\n*/\ncontract BasMarket is ManagedByDAO{\n    \n    using SafeMath for uint256;\n    using BasSet for BasSet.IndexedAsset;\n    \n    uint256 public AT_LEAST_REMAIN_TIME = 128 days;\n\n    ERC20 public token;\n    BasSubDomain public subDomainData;\n    BasRootDomain public rootDomainData;\n    BasTradableOwnership public ownership;\n    \n    constructor(address _t,\n                address _rd,\n                address _sd)\n                public{\n        token           = ERC20(_t);\n        rootDomainData  = BasRootDomain(_rd);\n        subDomainData   = BasSubDomain(_sd);\n        require(address(rootDomainData.ownership()) ==\n                address(subDomainData.ownership()), \"domain contract deploy error\");\n        ownership       = BasTradableOwnership(address(rootDomainData.ownership));            \n    }\n\n    function setupDataRef(address _t, \n                    address _rd, \n                    address _sd)\n                    public \n                    OnlyDAO{\n        \n        token           = ERC20(_t);\n        rootDomainData  = BasRootDomain(_rd);\n        subDomainData   = BasSubDomain(_sd);\n        require(address(rootDomainData.ownership) ==\n                address(subDomainData.ownership), \"domain contract deploy error\");\n        ownership       = BasTradableOwnership(address(rootDomainData.ownership));\n    }\n\n    /*\n    SoldBySell should be indexed\n    because there are scenerios like \n    get all my sold domains\n    or get all my bought domains\n    */\n    event SoldBySell(bytes32 nameHash,\n                address indexed from,\n                address indexed to,\n                uint256 price);\n\n    event SellAdded(bytes32 nameHash,\n                address operator,\n                uint256 price);\n\n    event SellChanged(bytes32 nameHash,\n                address operator,\n                uint256 price);\n\n    event SellRemoved(bytes32 nameHash,\n                address operator);\n\n    mapping(address => mapping(bytes32 => uint256)) public DomainSellOrders;\n    mapping(address => BasSet.IndexedAsset) internal _ordersOf;\n    \n    \n    \n    modifier ValidPrice(uint price){\n        require(price > 0, \"price can't be zero\");\n        _;\n    }\n    \n    modifier ItemExist(bytes32 hash){\n        require(DomainSellOrders[msg.sender][hash] > 0, \"no such item\");\n        _;\n    }\n\n    /*\n    mainly check two things\n    1. if msg.sender owns this asset\n    2. if this asset's expiration longer than AT_LEAST_REMAIN_TIME\n    3. if msg.sender approved market with this asset \n    */\n    modifier FullControl(bytes32 nameHash){\n        (address owner, uint expire) = ownership.ownerOfWithExpire(nameHash);\n        require(owner == msg.sender \n                && ownership.allowance(owner, nameHash) == address(this) \n                && now.add(AT_LEAST_REMAIN_TIME) < expire,\n            \"control error\");\n        _;\n    }\n    \n    function changeAtLeastDays(uint newDays)\n                            external\n                            OnlyDAO{\n        AT_LEAST_REMAIN_TIME = newDays;\n    }\n    \n\n    function AddToSells(bytes32 nameHash,\n                    uint256 price)\n                    external\n                    FullControl(nameHash)\n                    ValidPrice(price){\n\n        DomainSellOrders[msg.sender][nameHash] = price;\n        \n        emit SellAdded(nameHash, msg.sender, price);\n    }\n    \n    /*\n    we skip FullControl check\n    */\n    function ChangeSellPrice(bytes32 nameHash,\n                    uint256 price)\n                    external\n                    ValidPrice(price)\n                    ItemExist(nameHash){\n                        \n        DomainSellOrders[msg.sender][nameHash] = price;\n        \n        emit SellChanged(nameHash, msg.sender, price);\n    }\n\n    function RemoveSellOrder(bytes32 nameHash)\n                    public {\n\n        delete DomainSellOrders[msg.sender][nameHash];\n        \n        emit SellRemoved(nameHash, msg.sender);\n    }\n\n    /*\n    we skip peer FullControl check because it's guarenteed by transferFrom\n    */\n    function BuyFromSells(bytes32 nameHash,\n                        address owner)\n                        external {\n        \n        require(msg.sender != owner, \"can't buy from self\");\n        \n        uint price = DomainSellOrders[owner][nameHash];\n        \n        (,uint expire) = ownership.ownerOfWithExpire(nameHash);\n        require(now.add(AT_LEAST_REMAIN_TIME) < expire, \"the domain will expire shortly\");\n        \n        token.transferFrom(msg.sender, owner, price);\n        \n        ownership.transferFrom(nameHash, owner, msg.sender);\n\n        delete DomainSellOrders[owner][nameHash];\n\n        emit SoldBySell(nameHash, owner, msg.sender, price);\n    }\n    \n    function ordersCountsOf()\n                external\n                view\n                returns(uint256){\n                return _ordersOf[msg.sender].counts();                \n    }\n    \n    function ordersOf(uint256 start,\n                    uint256 end)\n                external\n                view\n                returns(bytes32[] memory){\n                return _ordersOf[msg.sender].slice(start,end);   \n    }\n}",
  "sourcePath": "/Users/mini2/workspace/truffle suite/BasChain/truffle_smart_contracts/contracts/BasMarket.sol",
  "compiler": {
    "name": "solc",
    "version": "0.5.16+commit.9c3226ce.Emscripten.clang"
  },
  "schemaVersion": "3.0.23",
  "updatedAt": "2020-04-29T08:50:58.398Z",
  "networkType": "ethereum",
  "devdoc": {
    "methods": {}
  },
  "userdoc": {
    "methods": {}
  }
}