{
  "contractName": "BasOANN",
  "abi": [
    {
      "inputs": [
        {
          "internalType": "address",
          "name": "_t",
          "type": "address"
        },
        {
          "internalType": "address",
          "name": "_rd",
          "type": "address"
        },
        {
          "internalType": "address",
          "name": "_sd",
          "type": "address"
        },
        {
          "internalType": "address",
          "name": "_acc",
          "type": "address"
        }
      ],
      "payable": false,
      "stateMutability": "nonpayable",
      "type": "constructor"
    },
    {
      "anonymous": false,
      "inputs": [
        {
          "indexed": false,
          "internalType": "uint256",
          "name": "REG_ROOT_M",
          "type": "uint256"
        },
        {
          "indexed": false,
          "internalType": "uint256",
          "name": "REG_SELF_SUB_M",
          "type": "uint256"
        },
        {
          "indexed": false,
          "internalType": "uint256",
          "name": "REG_SELF_SUB_O",
          "type": "uint256"
        },
        {
          "indexed": false,
          "internalType": "uint256",
          "name": "REG_NORMAL_SUB_M",
          "type": "uint256"
        },
        {
          "indexed": false,
          "internalType": "uint256",
          "name": "REG_NORMAL_SUB_O",
          "type": "uint256"
        },
        {
          "indexed": false,
          "internalType": "uint256",
          "name": "REG_CUSTOEMED_SUB_M",
          "type": "uint256"
        },
        {
          "indexed": false,
          "internalType": "uint256",
          "name": "REG_CUSTOEMED_SUB_O",
          "type": "uint256"
        }
      ],
      "name": "AllocationSetting",
      "type": "event"
    },
    {
      "anonymous": false,
      "inputs": [
        {
          "indexed": false,
          "internalType": "uint256",
          "name": "receiptID",
          "type": "uint256"
        },
        {
          "indexed": false,
          "internalType": "address",
          "name": "payer",
          "type": "address"
        },
        {
          "indexed": false,
          "internalType": "bytes32",
          "name": "nameHash",
          "type": "bytes32"
        },
        {
          "indexed": false,
          "internalType": "uint256",
          "name": "amount",
          "type": "uint256"
        }
      ],
      "name": "OperCustomerPrice",
      "type": "event"
    },
    {
      "anonymous": false,
      "inputs": [
        {
          "indexed": false,
          "internalType": "uint256",
          "name": "MAX_YEAR",
          "type": "uint256"
        },
        {
          "indexed": false,
          "internalType": "uint256",
          "name": "AROOT_GAS",
          "type": "uint256"
        },
        {
          "indexed": false,
          "internalType": "uint256",
          "name": "BROOT_GAS",
          "type": "uint256"
        },
        {
          "indexed": false,
          "internalType": "uint256",
          "name": "SUB_GAS",
          "type": "uint256"
        },
        {
          "indexed": false,
          "internalType": "uint256",
          "name": "CUSTOMED_PRICE_GAS",
          "type": "uint256"
        }
      ],
      "name": "PriceSetting",
      "type": "event"
    },
    {
      "anonymous": false,
      "inputs": [
        {
          "indexed": false,
          "internalType": "uint256",
          "name": "receiptID",
          "type": "uint256"
        },
        {
          "indexed": false,
          "internalType": "address",
          "name": "payer",
          "type": "address"
        },
        {
          "indexed": true,
          "internalType": "bytes32",
          "name": "nameHash",
          "type": "bytes32"
        },
        {
          "indexed": false,
          "internalType": "uint256",
          "name": "amount",
          "type": "uint256"
        },
        {
          "indexed": false,
          "internalType": "bool",
          "name": "isRoot",
          "type": "bool"
        },
        {
          "indexed": false,
          "internalType": "bool",
          "name": "isRare",
          "type": "bool"
        }
      ],
      "name": "Recharge",
      "type": "event"
    },
    {
      "anonymous": false,
      "inputs": [
        {
          "indexed": false,
          "internalType": "uint256",
          "name": "receiptID",
          "type": "uint256"
        },
        {
          "indexed": false,
          "internalType": "address",
          "name": "payer",
          "type": "address"
        },
        {
          "indexed": false,
          "internalType": "bytes",
          "name": "name",
          "type": "bytes"
        },
        {
          "indexed": false,
          "internalType": "uint256",
          "name": "amount",
          "type": "uint256"
        },
        {
          "indexed": false,
          "internalType": "bool",
          "name": "isRoot",
          "type": "bool"
        },
        {
          "indexed": false,
          "internalType": "bool",
          "name": "isRare",
          "type": "bool"
        }
      ],
      "name": "Register",
      "type": "event"
    },
    {
      "constant": true,
      "inputs": [],
      "name": "AROOT_GAS",
      "outputs": [
        {
          "internalType": "uint256",
          "name": "",
          "type": "uint256"
        }
      ],
      "payable": false,
      "stateMutability": "view",
      "type": "function"
    },
    {
      "constant": true,
      "inputs": [],
      "name": "BROOT_GAS",
      "outputs": [
        {
          "internalType": "uint256",
          "name": "",
          "type": "uint256"
        }
      ],
      "payable": false,
      "stateMutability": "view",
      "type": "function"
    },
    {
      "constant": true,
      "inputs": [],
      "name": "CUSTOMED_PRICE_GAS",
      "outputs": [
        {
          "internalType": "uint256",
          "name": "",
          "type": "uint256"
        }
      ],
      "payable": false,
      "stateMutability": "view",
      "type": "function"
    },
    {
      "constant": false,
      "inputs": [
        {
          "internalType": "address",
          "name": "newDao",
          "type": "address"
        }
      ],
      "name": "ChangeDAO",
      "outputs": [],
      "payable": false,
      "stateMutability": "nonpayable",
      "type": "function"
    },
    {
      "constant": true,
      "inputs": [],
      "name": "DAOAddress",
      "outputs": [
        {
          "internalType": "address",
          "name": "",
          "type": "address"
        }
      ],
      "payable": false,
      "stateMutability": "view",
      "type": "function"
    },
    {
      "constant": true,
      "inputs": [],
      "name": "MAX_YEAR",
      "outputs": [
        {
          "internalType": "uint256",
          "name": "",
          "type": "uint256"
        }
      ],
      "payable": false,
      "stateMutability": "view",
      "type": "function"
    },
    {
      "constant": true,
      "inputs": [],
      "name": "REG_CUSTOEMED_SUB_M",
      "outputs": [
        {
          "internalType": "uint256",
          "name": "",
          "type": "uint256"
        }
      ],
      "payable": false,
      "stateMutability": "view",
      "type": "function"
    },
    {
      "constant": true,
      "inputs": [],
      "name": "REG_CUSTOEMED_SUB_O",
      "outputs": [
        {
          "internalType": "uint256",
          "name": "",
          "type": "uint256"
        }
      ],
      "payable": false,
      "stateMutability": "view",
      "type": "function"
    },
    {
      "constant": true,
      "inputs": [],
      "name": "REG_NORMAL_SUB_M",
      "outputs": [
        {
          "internalType": "uint256",
          "name": "",
          "type": "uint256"
        }
      ],
      "payable": false,
      "stateMutability": "view",
      "type": "function"
    },
    {
      "constant": true,
      "inputs": [],
      "name": "REG_NORMAL_SUB_O",
      "outputs": [
        {
          "internalType": "uint256",
          "name": "",
          "type": "uint256"
        }
      ],
      "payable": false,
      "stateMutability": "view",
      "type": "function"
    },
    {
      "constant": true,
      "inputs": [],
      "name": "REG_ROOT_M",
      "outputs": [
        {
          "internalType": "uint256",
          "name": "",
          "type": "uint256"
        }
      ],
      "payable": false,
      "stateMutability": "view",
      "type": "function"
    },
    {
      "constant": true,
      "inputs": [],
      "name": "REG_SELF_SUB_M",
      "outputs": [
        {
          "internalType": "uint256",
          "name": "",
          "type": "uint256"
        }
      ],
      "payable": false,
      "stateMutability": "view",
      "type": "function"
    },
    {
      "constant": true,
      "inputs": [],
      "name": "REG_SELF_SUB_O",
      "outputs": [
        {
          "internalType": "uint256",
          "name": "",
          "type": "uint256"
        }
      ],
      "payable": false,
      "stateMutability": "view",
      "type": "function"
    },
    {
      "constant": true,
      "inputs": [],
      "name": "SUB_GAS",
      "outputs": [
        {
          "internalType": "uint256",
          "name": "",
          "type": "uint256"
        }
      ],
      "payable": false,
      "stateMutability": "view",
      "type": "function"
    },
    {
      "constant": true,
      "inputs": [],
      "name": "accountant",
      "outputs": [
        {
          "internalType": "contract BasAccountant",
          "name": "",
          "type": "address"
        }
      ],
      "payable": false,
      "stateMutability": "view",
      "type": "function"
    },
    {
      "constant": true,
      "inputs": [],
      "name": "receiptID",
      "outputs": [
        {
          "internalType": "uint256",
          "name": "",
          "type": "uint256"
        }
      ],
      "payable": false,
      "stateMutability": "view",
      "type": "function"
    },
    {
      "constant": true,
      "inputs": [],
      "name": "rootDomainData",
      "outputs": [
        {
          "internalType": "contract BasRootDomain",
          "name": "",
          "type": "address"
        }
      ],
      "payable": false,
      "stateMutability": "view",
      "type": "function"
    },
    {
      "constant": true,
      "inputs": [],
      "name": "subDomainData",
      "outputs": [
        {
          "internalType": "contract BasSubDomain",
          "name": "",
          "type": "address"
        }
      ],
      "payable": false,
      "stateMutability": "view",
      "type": "function"
    },
    {
      "constant": true,
      "inputs": [],
      "name": "token",
      "outputs": [
        {
          "internalType": "contract ERC20",
          "name": "",
          "type": "address"
        }
      ],
      "payable": false,
      "stateMutability": "view",
      "type": "function"
    },
    {
      "constant": false,
      "inputs": [
        {
          "internalType": "uint256",
          "name": "max_year",
          "type": "uint256"
        },
        {
          "internalType": "uint256",
          "name": "aroot_gas",
          "type": "uint256"
        },
        {
          "internalType": "uint256",
          "name": "broot_gas",
          "type": "uint256"
        },
        {
          "internalType": "uint256",
          "name": "sub_gas",
          "type": "uint256"
        },
        {
          "internalType": "uint256",
          "name": "customed_price_gas",
          "type": "uint256"
        }
      ],
      "name": "priceSetting",
      "outputs": [],
      "payable": false,
      "stateMutability": "nonpayable",
      "type": "function"
    },
    {
      "constant": false,
      "inputs": [
        {
          "internalType": "uint256",
          "name": "reg_root_m",
          "type": "uint256"
        },
        {
          "internalType": "uint256",
          "name": "reg_self_sub_m",
          "type": "uint256"
        },
        {
          "internalType": "uint256",
          "name": "reg_self_sub_o",
          "type": "uint256"
        },
        {
          "internalType": "uint256",
          "name": "reg_normal_sub_m",
          "type": "uint256"
        },
        {
          "internalType": "uint256",
          "name": "reg_normal_sub_o",
          "type": "uint256"
        },
        {
          "internalType": "uint256",
          "name": "reg_customed_sub_m",
          "type": "uint256"
        },
        {
          "internalType": "uint256",
          "name": "reg_customed_sub_o",
          "type": "uint256"
        }
      ],
      "name": "allocationSetting",
      "outputs": [],
      "payable": false,
      "stateMutability": "nonpayable",
      "type": "function"
    },
    {
      "constant": false,
      "inputs": [
        {
          "internalType": "address",
          "name": "_t",
          "type": "address"
        },
        {
          "internalType": "address",
          "name": "_rd",
          "type": "address"
        },
        {
          "internalType": "address",
          "name": "_sd",
          "type": "address"
        },
        {
          "internalType": "address",
          "name": "_acc",
          "type": "address"
        }
      ],
      "name": "setupDataRef",
      "outputs": [],
      "payable": false,
      "stateMutability": "nonpayable",
      "type": "function"
    },
    {
      "constant": false,
      "inputs": [
        {
          "internalType": "bytes",
          "name": "name",
          "type": "bytes"
        },
        {
          "internalType": "bool",
          "name": "isOpen",
          "type": "bool"
        },
        {
          "internalType": "bool",
          "name": "isCustomed",
          "type": "bool"
        },
        {
          "internalType": "uint256",
          "name": "cusPrice",
          "type": "uint256"
        },
        {
          "internalType": "uint8",
          "name": "durationInYear",
          "type": "uint8"
        }
      ],
      "name": "registerRoot",
      "outputs": [],
      "payable": false,
      "stateMutability": "nonpayable",
      "type": "function"
    },
    {
      "constant": false,
      "inputs": [
        {
          "internalType": "bytes32",
          "name": "nameHash",
          "type": "bytes32"
        },
        {
          "internalType": "uint8",
          "name": "durationInYear",
          "type": "uint8"
        }
      ],
      "name": "rechargeRoot",
      "outputs": [],
      "payable": false,
      "stateMutability": "nonpayable",
      "type": "function"
    },
    {
      "constant": false,
      "inputs": [
        {
          "internalType": "bytes32",
          "name": "nameHash",
          "type": "bytes32"
        },
        {
          "internalType": "uint256",
          "name": "price",
          "type": "uint256"
        }
      ],
      "name": "openCustomedPrice",
      "outputs": [],
      "payable": false,
      "stateMutability": "nonpayable",
      "type": "function"
    },
    {
      "constant": false,
      "inputs": [
        {
          "internalType": "bytes",
          "name": "rName",
          "type": "bytes"
        },
        {
          "internalType": "bytes",
          "name": "sName",
          "type": "bytes"
        },
        {
          "internalType": "uint8",
          "name": "durationInYear",
          "type": "uint8"
        }
      ],
      "name": "registerSub",
      "outputs": [],
      "payable": false,
      "stateMutability": "nonpayable",
      "type": "function"
    },
    {
      "constant": false,
      "inputs": [
        {
          "internalType": "bytes",
          "name": "rName",
          "type": "bytes"
        },
        {
          "internalType": "bytes",
          "name": "sName",
          "type": "bytes"
        },
        {
          "internalType": "uint8",
          "name": "durationInYear",
          "type": "uint8"
        }
      ],
      "name": "rechargeSub",
      "outputs": [],
      "payable": false,
      "stateMutability": "nonpayable",
      "type": "function"
    }
  ],
  "bytecode": "0x60806040523480156200001157600080fd5b5060405162003e2b38038062003e2b833981810160405260808110156200003757600080fd5b8101908080519060200190929190805190602001909291908051906020019092919080519060200190929190505050336000806101000a81548173ffffffffffffffffffffffffffffffffffffffff021916908373ffffffffffffffffffffffffffffffffffffffff160217905550620000df6005686c6b935b8bbd400000680ad78ebc5ac6200000673782dace9d90000068056bc75e2d631000006200020a60201b60201c565b620000fc6028806000602860146028600f6200035860201b60201c565b83600e60006101000a81548173ffffffffffffffffffffffffffffffffffffffff021916908373ffffffffffffffffffffffffffffffffffffffff16021790555080600f60006101000a81548173ffffffffffffffffffffffffffffffffffffffff021916908373ffffffffffffffffffffffffffffffffffffffff16021790555082601160006101000a81548173ffffffffffffffffffffffffffffffffffffffff021916908373ffffffffffffffffffffffffffffffffffffffff16021790555081601060006101000a81548173ffffffffffffffffffffffffffffffffffffffff021916908373ffffffffffffffffffffffffffffffffffffffff16021790555050505050620005d7565b6000809054906101000a900473ffffffffffffffffffffffffffffffffffffffff1673ffffffffffffffffffffffffffffffffffffffff163373ffffffffffffffffffffffffffffffffffffffff1614620002cd576040517f08c379a000000000000000000000000000000000000000000000000000000000815260040180806020018281038252600a8152602001807f61646d696e206f6e6c790000000000000000000000000000000000000000000081525060200191505060405180910390fd5b84600181905550836002819055508260038190555081600481905550806005819055507f1c37201e870cf4b275fd1624e5359e7912e7993e0b1f7814fca331464fd79c8b600154600254600354600454600554604051808681526020018581526020018481526020018381526020018281526020019550505050505060405180910390a15050505050565b6000809054906101000a900473ffffffffffffffffffffffffffffffffffffffff1673ffffffffffffffffffffffffffffffffffffffff163373ffffffffffffffffffffffffffffffffffffffff16146200041b576040517f08c379a000000000000000000000000000000000000000000000000000000000815260040180806020018281038252600a8152602001807f61646d696e206f6e6c790000000000000000000000000000000000000000000081525060200191505060405180910390fd5b606487111580156200044757506064620004448688620005b760201b6200318c1790919060201c565b11155b80156200046e575060646200046b8486620005b760201b6200318c1790919060201c565b11155b80156200049557506064620004928284620005b760201b6200318c1790919060201c565b11155b62000508576040517f08c379a000000000000000000000000000000000000000000000000000000000815260040180806020018281038252600b8152602001807f706172616d206572726f7200000000000000000000000000000000000000000081525060200191505060405180910390fd5b8660068190555085600781905550846008819055508360098190555082600a8190555081600b8190555080600c819055507f7fd05e1359a2ab1943b73ac071e7e73bf51533f1cb235022a5c36e08e94c61a5600654600754600854600954600a54600b54600c546040518088815260200187815260200186815260200185815260200184815260200183815260200182815260200197505050505050505060405180910390a150505050505050565b600080828401905083811015620005cd57600080fd5b8091505092915050565b61384480620005e76000396000f3fe608060405234801561001057600080fd5b50600436106101a95760003560e01c806379607e1f116100f9578063d392eab111610097578063ee9a512a11610071578063ee9a512a146107be578063fa1826bb14610899578063fc0c546a146108b7578063fcb2683014610901576101a9565b8063d392eab114610700578063d8057cce1461074a578063dc4b471414610768576101a9565b806390cd6925116100d357806390cd692514610630578063ae8b10331461064e578063b49553951461066c578063d1e6d6ff146106b6576101a9565b806379607e1f1461059357806384806d00146105ce5780638a42876b146105ec576101a9565b8063536acc1c1161016657806363d9691c1161014057806363d9691c1461044557806366561d29146104af57806370a1495c146104cd578063789dba4f14610575576101a9565b8063536acc1c146103655780635c91ad901461038357806361c9511e14610427576101a9565b806302ec0a60146101ae57806306b7d6221461028957806328835235146102a75780633d04f2fb146102c55780634255284a146102fd5780634fb3ccc51461031b575b600080fd5b610287600480360360608110156101c457600080fd5b81019080803590602001906401000000008111156101e157600080fd5b8201836020820111156101f357600080fd5b8035906020019184600183028401116401000000008311171561021557600080fd5b90919293919293908035906020019064010000000081111561023657600080fd5b82018360208201111561024857600080fd5b8035906020019184600183028401116401000000008311171561026a57600080fd5b9091929391929390803560ff16906020019092919050505061091f565b005b610291610f98565b6040518082815260200191505060405180910390f35b6102af610f9e565b6040518082815260200191505060405180910390f35b6102fb600480360360408110156102db57600080fd5b810190808035906020019092919080359060200190929190505050610fa4565b005b6103056112a3565b6040518082815260200191505060405180910390f35b6103236112a9565b604051808273ffffffffffffffffffffffffffffffffffffffff1673ffffffffffffffffffffffffffffffffffffffff16815260200191505060405180910390f35b61036d6112cf565b6040518082815260200191505060405180910390f35b6104256004803603608081101561039957600080fd5b81019080803573ffffffffffffffffffffffffffffffffffffffff169060200190929190803573ffffffffffffffffffffffffffffffffffffffff169060200190929190803573ffffffffffffffffffffffffffffffffffffffff169060200190929190803573ffffffffffffffffffffffffffffffffffffffff1690602001909291905050506112d5565b005b61042f6114a1565b6040518082815260200191505060405180910390f35b6104ad600480360360e081101561045b57600080fd5b81019080803590602001909291908035906020019092919080359060200190929190803590602001909291908035906020019092919080359060200190929190803590602001909291905050506114a7565b005b6104b76116ec565b6040518082815260200191505060405180910390f35b610573600480360360a08110156104e357600080fd5b810190808035906020019064010000000081111561050057600080fd5b82018360208201111561051257600080fd5b8035906020019184600183028401116401000000008311171561053457600080fd5b909192939192939080351515906020019092919080351515906020019092919080359060200190929190803560ff1690602001909291905050506116f2565b005b61057d611cf8565b6040518082815260200191505060405180910390f35b6105cc600480360360408110156105a957600080fd5b8101908080359060200190929190803560ff169060200190929190505050611cfe565b005b6105d66121ef565b6040518082815260200191505060405180910390f35b61062e6004803603602081101561060257600080fd5b81019080803573ffffffffffffffffffffffffffffffffffffffff1690602001909291905050506121f5565b005b6106386122fa565b6040518082815260200191505060405180910390f35b610656612300565b6040518082815260200191505060405180910390f35b610674612306565b604051808273ffffffffffffffffffffffffffffffffffffffff1673ffffffffffffffffffffffffffffffffffffffff16815260200191505060405180910390f35b6106be61232c565b604051808273ffffffffffffffffffffffffffffffffffffffff1673ffffffffffffffffffffffffffffffffffffffff16815260200191505060405180910390f35b610708612352565b604051808273ffffffffffffffffffffffffffffffffffffffff1673ffffffffffffffffffffffffffffffffffffffff16815260200191505060405180910390f35b610752612377565b6040518082815260200191505060405180910390f35b6107bc600480360360a081101561077e57600080fd5b81019080803590602001909291908035906020019092919080359060200190929190803590602001909291908035906020019092919050505061237d565b005b610897600480360360608110156107d457600080fd5b81019080803590602001906401000000008111156107f157600080fd5b82018360208201111561080357600080fd5b8035906020019184600183028401116401000000008311171561082557600080fd5b90919293919293908035906020019064010000000081111561084657600080fd5b82018360208201111561085857600080fd5b8035906020019184600183028401116401000000008311171561087a57600080fd5b9091929391929390803560ff1690602001909291905050506124ca565b005b6108a1612f24565b6040518082815260200191505060405180910390f35b6108bf612f2a565b604051808273ffffffffffffffffffffffffffffffffffffffff1673ffffffffffffffffffffffffffffffffffffffff16815260200191505060405180910390f35b610909612f50565b6040518082815260200191505060405180910390f35b806001548160ff1611158015610938575060008160ff16115b61094157600080fd5b60006109ad858589896040516020018085858082843780830192505050807f2e0000000000000000000000000000000000000000000000000000000000000081525060010183838082843780830192505050945050505050604051602081830303815290604052612f56565b905060006109fe88888080601f016020809104026020016040519081016040528093929190818152602001838380828437600081840152601f19601f82011690508083019250505050505050612f56565b9050601060009054906101000a900473ffffffffffffffffffffffffffffffffffffffff1673ffffffffffffffffffffffffffffffffffffffff1663d33d3edc836040518263ffffffff1660e01b81526004018082815260200191505060206040518083038186803b158015610a7357600080fd5b505afa158015610a87573d6000803e3d6000fd5b505050506040513d6020811015610a9d57600080fd5b8101908080519060200190929190505050610b20576040517f08c379a00000000000000000000000000000000000000000000000000000000081526004018080602001828103825260108152602001807f646f6d61696e206e6f742065786973740000000000000000000000000000000081525060200191505060405180910390fd5b600080601160009054906101000a900473ffffffffffffffffffffffffffffffffffffffff1673ffffffffffffffffffffffffffffffffffffffff166383b8202f846040518263ffffffff1660e01b81526004018082815260200191505060006040518083038186803b158015610b9657600080fd5b505afa158015610baa573d6000803e3d6000fd5b505050506040513d6000823e3d601f19601f820116820180604052506080811015610bd457600080fd5b8101908080516040519392919084640100000000821115610bf457600080fd5b83820191506020820185811115610c0a57600080fd5b8251866001820283011164010000000082111715610c2757600080fd5b8083526020830192505050908051906020019080838360005b83811015610c5b578082015181840152602081019050610c40565b50505050905090810190601f168015610c885780820380516001836020036101000a031916815260200191505b506040526020018051906020019092919080519060200190929190805190602001909291905050509350935050506000601160009054906101000a900473ffffffffffffffffffffffffffffffffffffffff1673ffffffffffffffffffffffffffffffffffffffff16635d03147a6040518163ffffffff1660e01b815260040160206040518083038186803b158015610d2057600080fd5b505afa158015610d34573d6000803e3d6000fd5b505050506040513d6020811015610d4a57600080fd5b810190808051906020019092919050505073ffffffffffffffffffffffffffffffffffffffff16637dd56411856040518263ffffffff1660e01b81526004018082815260200191505060206040518083038186803b158015610dab57600080fd5b505afa158015610dbf573d6000803e3d6000fd5b505050506040513d6020811015610dd557600080fd5b810190808051906020019092919050505090506000610e25848373ffffffffffffffffffffffffffffffffffffffff163373ffffffffffffffffffffffffffffffffffffffff1614858b86612fd1565b9050601060009054906101000a900473ffffffffffffffffffffffffffffffffffffffff1673ffffffffffffffffffffffffffffffffffffffff1663bd69144b876301e133808b60ff1602610e8b6301e13380600154024261318c90919063ffffffff16565b6040518463ffffffff1660e01b8152600401808481526020018363ffffffff1681526020018281526020019350505050600060405180830381600087803b158015610ed557600080fd5b505af1158015610ee9573d6000803e3d6000fd5b50505050857f6847e7cd53e71bd597834faa8118148eb4015bce07263391f8e931e699e7725c600d6000815480929190600101919050553384600080604051808681526020018573ffffffffffffffffffffffffffffffffffffffff1673ffffffffffffffffffffffffffffffffffffffff16815260200184815260200183151515158152602001821515151581526020019550505050505060405180910390a2505050505050505050505050565b60075481565b600a5481565b6004548111610ffe576040517f08c379a00000000000000000000000000000000000000000000000000000000081526004018080602001828103825260228152602001806137ad6022913960400191505060405180910390fd5b600e60009054906101000a900473ffffffffffffffffffffffffffffffffffffffff1673ffffffffffffffffffffffffffffffffffffffff166323b872dd33600f60009054906101000a900473ffffffffffffffffffffffffffffffffffffffff166005546040518463ffffffff1660e01b8152600401808473ffffffffffffffffffffffffffffffffffffffff1673ffffffffffffffffffffffffffffffffffffffff1681526020018373ffffffffffffffffffffffffffffffffffffffff1673ffffffffffffffffffffffffffffffffffffffff1681526020018281526020019350505050602060405180830381600087803b1580156110ff57600080fd5b505af1158015611113573d6000803e3d6000fd5b505050506040513d602081101561112957600080fd5b8101908080519060200190929190505050506111496006546005546131ab565b601160009054906101000a900473ffffffffffffffffffffffffffffffffffffffff1673ffffffffffffffffffffffffffffffffffffffff16630f737ba28383336040518463ffffffff1660e01b8152600401808481526020018381526020018273ffffffffffffffffffffffffffffffffffffffff1673ffffffffffffffffffffffffffffffffffffffff1681526020019350505050600060405180830381600087803b1580156111fa57600080fd5b505af115801561120e573d6000803e3d6000fd5b505050507f81bec66ac21183bab557434401d4a8e08d9b2cc2f93858a94bcfc329351fa46d600d6000815480929190600101919050553384600554604051808581526020018473ffffffffffffffffffffffffffffffffffffffff1673ffffffffffffffffffffffffffffffffffffffff16815260200183815260200182815260200194505050505060405180910390a15050565b60065481565b600f60009054906101000a900473ffffffffffffffffffffffffffffffffffffffff1681565b60055481565b6000809054906101000a900473ffffffffffffffffffffffffffffffffffffffff1673ffffffffffffffffffffffffffffffffffffffff163373ffffffffffffffffffffffffffffffffffffffff1614611397576040517f08c379a000000000000000000000000000000000000000000000000000000000815260040180806020018281038252600a8152602001807f61646d696e206f6e6c790000000000000000000000000000000000000000000081525060200191505060405180910390fd5b83600e60006101000a81548173ffffffffffffffffffffffffffffffffffffffff021916908373ffffffffffffffffffffffffffffffffffffffff16021790555080600f60006101000a81548173ffffffffffffffffffffffffffffffffffffffff021916908373ffffffffffffffffffffffffffffffffffffffff16021790555082601160006101000a81548173ffffffffffffffffffffffffffffffffffffffff021916908373ffffffffffffffffffffffffffffffffffffffff16021790555081601060006101000a81548173ffffffffffffffffffffffffffffffffffffffff021916908373ffffffffffffffffffffffffffffffffffffffff16021790555050505050565b60015481565b6000809054906101000a900473ffffffffffffffffffffffffffffffffffffffff1673ffffffffffffffffffffffffffffffffffffffff163373ffffffffffffffffffffffffffffffffffffffff1614611569576040517f08c379a000000000000000000000000000000000000000000000000000000000815260040180806020018281038252600a8152602001807f61646d696e206f6e6c790000000000000000000000000000000000000000000081525060200191505060405180910390fd5b6064871115801561158d5750606461158a868861318c90919063ffffffff16565b11155b80156115ac575060646115a9848661318c90919063ffffffff16565b11155b80156115cb575060646115c8828461318c90919063ffffffff16565b11155b61163d576040517f08c379a000000000000000000000000000000000000000000000000000000000815260040180806020018281038252600b8152602001807f706172616d206572726f7200000000000000000000000000000000000000000081525060200191505060405180910390fd5b8660068190555085600781905550846008819055508360098190555082600a8190555081600b8190555080600c819055507f7fd05e1359a2ab1943b73ac071e7e73bf51533f1cb235022a5c36e08e94c61a5600654600754600854600954600a54600b54600c546040518088815260200187815260200186815260200185815260200184815260200183815260200182815260200197505050505050505060405180910390a150505050505050565b600b5481565b806001548160ff161115801561170b575060008160ff16115b61171457600080fd5b600080601160009054906101000a900473ffffffffffffffffffffffffffffffffffffffff1673ffffffffffffffffffffffffffffffffffffffff1663aeb697678a8a6040518363ffffffff1660e01b815260040180806020018281038252848482818152602001925080828437600081840152601f19601f8201169050808301925050509350505050604080518083038186803b1580156117b557600080fd5b505afa1580156117c9573d6000803e3d6000fd5b505050506040513d60408110156117df57600080fd5b8101908080519060200190929190805190602001909291905050509150915081611871576040517f08c379a00000000000000000000000000000000000000000000000000000000081526004018080602001828103825260138152602001807f696e76616c696420646f6d61696e206e616d650000000000000000000000000081525060200191505060405180910390fd5b60008115611898576118918560ff166002546133e690919063ffffffff16565b90506118b3565b6118b08560ff166003546133e690919063ffffffff16565b90505b861561199f578161190f576040517f08c379a00000000000000000000000000000000000000000000000000000000081526004018080602001828103825260418152602001806137cf6041913960600191505060405180910390fd5b600454861015611987576040517f08c379a00000000000000000000000000000000000000000000000000000000081526004018080602001828103825260208152602001807f63616e2774206265206c6f776572207468616e2073797374656d20707269636581525060200191505060405180910390fd5b61199c6005548261318c90919063ffffffff16565b90505b600e60009054906101000a900473ffffffffffffffffffffffffffffffffffffffff1673ffffffffffffffffffffffffffffffffffffffff166323b872dd33600f60009054906101000a900473ffffffffffffffffffffffffffffffffffffffff16846040518463ffffffff1660e01b8152600401808473ffffffffffffffffffffffffffffffffffffffff1673ffffffffffffffffffffffffffffffffffffffff1681526020018373ffffffffffffffffffffffffffffffffffffffff1673ffffffffffffffffffffffffffffffffffffffff1681526020018281526020019350505050602060405180830381600087803b158015611a9e57600080fd5b505af1158015611ab2573d6000803e3d6000fd5b505050506040513d6020811015611ac857600080fd5b810190808051906020019092919050505050601160009054906101000a900473ffffffffffffffffffffffffffffffffffffffff1673ffffffffffffffffffffffffffffffffffffffff1663361be6048b8b611b3c6301e133808a60ff160263ffffffff164261318c90919063ffffffff16565b8c8c8c336040518863ffffffff1660e01b8152600401808060200187815260200186151515158152602001851515151581526020018481526020018373ffffffffffffffffffffffffffffffffffffffff1673ffffffffffffffffffffffffffffffffffffffff1681526020018281038252898982818152602001925080828437600081840152601f19601f82011690508083019250505098505050505050505050600060405180830381600087803b158015611bf857600080fd5b505af1158015611c0c573d6000803e3d6000fd5b50505050611c1c600654826131ab565b7f347c216a3595a114d3e1896e513acdc5da84c50ece779a0fe72b31c136b0f864600d600081548092919060010191905055338c8c85600188604051808881526020018773ffffffffffffffffffffffffffffffffffffffff1673ffffffffffffffffffffffffffffffffffffffff1681526020018060200185815260200184151515158152602001831515151581526020018281038252878782818152602001925080828437600081840152601f19601f8201169050808301925050509850505050505050505060405180910390a150505050505050505050565b60025481565b806001548160ff1611158015611d17575060008160ff16115b611d2057600080fd5b601160009054906101000a900473ffffffffffffffffffffffffffffffffffffffff1673ffffffffffffffffffffffffffffffffffffffff1663d33d3edc846040518263ffffffff1660e01b81526004018082815260200191505060206040518083038186803b158015611d9357600080fd5b505afa158015611da7573d6000803e3d6000fd5b505050506040513d6020811015611dbd57600080fd5b8101908080519060200190929190505050611e40576040517f08c379a00000000000000000000000000000000000000000000000000000000081526004018080602001828103825260108152602001807f646f6d61696e206e6f742065786973740000000000000000000000000000000081525060200191505060405180910390fd5b6000601160009054906101000a900473ffffffffffffffffffffffffffffffffffffffff1673ffffffffffffffffffffffffffffffffffffffff16638ec2c758856040518263ffffffff1660e01b815260040180828152602001915050604080518083038186803b158015611eb457600080fd5b505afa158015611ec8573d6000803e3d6000fd5b505050506040513d6040811015611ede57600080fd5b81019080805190602001909291908051906020019092919050505091505060008115611f2357611f1c8460ff166002546133e690919063ffffffff16565b9050611f3e565b611f3b8460ff166003546133e690919063ffffffff16565b90505b600e60009054906101000a900473ffffffffffffffffffffffffffffffffffffffff1673ffffffffffffffffffffffffffffffffffffffff166323b872dd33600f60009054906101000a900473ffffffffffffffffffffffffffffffffffffffff16846040518463ffffffff1660e01b8152600401808473ffffffffffffffffffffffffffffffffffffffff1673ffffffffffffffffffffffffffffffffffffffff1681526020018373ffffffffffffffffffffffffffffffffffffffff1673ffffffffffffffffffffffffffffffffffffffff1681526020018281526020019350505050602060405180830381600087803b15801561203d57600080fd5b505af1158015612051573d6000803e3d6000fd5b505050506040513d602081101561206757600080fd5b810190808051906020019092919050505050601160009054906101000a900473ffffffffffffffffffffffffffffffffffffffff1673ffffffffffffffffffffffffffffffffffffffff1663bd69144b866301e133808760ff16026120dd6301e13380600154024261318c90919063ffffffff16565b6040518463ffffffff1660e01b8152600401808481526020018363ffffffff1681526020018281526020019350505050600060405180830381600087803b15801561212757600080fd5b505af115801561213b573d6000803e3d6000fd5b5050505061214b600654826131ab565b847f6847e7cd53e71bd597834faa8118148eb4015bce07263391f8e931e699e7725c600d6000815480929190600101919050553384600187604051808681526020018573ffffffffffffffffffffffffffffffffffffffff1673ffffffffffffffffffffffffffffffffffffffff16815260200184815260200183151515158152602001821515151581526020019550505050505060405180910390a25050505050565b60085481565b6000809054906101000a900473ffffffffffffffffffffffffffffffffffffffff1673ffffffffffffffffffffffffffffffffffffffff163373ffffffffffffffffffffffffffffffffffffffff16146122b7576040517f08c379a000000000000000000000000000000000000000000000000000000000815260040180806020018281038252600a8152602001807f61646d696e206f6e6c790000000000000000000000000000000000000000000081525060200191505060405180910390fd5b806000806101000a81548173ffffffffffffffffffffffffffffffffffffffff021916908373ffffffffffffffffffffffffffffffffffffffff16021790555050565b60095481565b600c5481565b601160009054906101000a900473ffffffffffffffffffffffffffffffffffffffff1681565b601060009054906101000a900473ffffffffffffffffffffffffffffffffffffffff1681565b6000809054906101000a900473ffffffffffffffffffffffffffffffffffffffff1681565b600d5481565b6000809054906101000a900473ffffffffffffffffffffffffffffffffffffffff1673ffffffffffffffffffffffffffffffffffffffff163373ffffffffffffffffffffffffffffffffffffffff161461243f576040517f08c379a000000000000000000000000000000000000000000000000000000000815260040180806020018281038252600a8152602001807f61646d696e206f6e6c790000000000000000000000000000000000000000000081525060200191505060405180910390fd5b84600181905550836002819055508260038190555081600481905550806005819055507f1c37201e870cf4b275fd1624e5359e7912e7993e0b1f7814fca331464fd79c8b600154600254600354600454600554604051808681526020018581526020018481526020018381526020018281526020019550505050505060405180910390a15050505050565b806001548160ff16111580156124e3575060008160ff16115b6124ec57600080fd5b601060009054906101000a900473ffffffffffffffffffffffffffffffffffffffff1673ffffffffffffffffffffffffffffffffffffffff16634e99d93e85856040518363ffffffff1660e01b815260040180806020018281038252848482818152602001925080828437600081840152601f19601f820116905080830192505050935050505060206040518083038186803b15801561258b57600080fd5b505afa15801561259f573d6000803e3d6000fd5b505050506040513d60208110156125b557600080fd5b8101908080519060200190929190505050612638576040517f08c379a00000000000000000000000000000000000000000000000000000000081526004018080602001828103825260118152602001807f7375626e616d65206e6f742076616c696400000000000000000000000000000081525060200191505060405180910390fd5b600061268787878080601f016020809104026020016040519081016040528093929190818152602001838380828437600081840152601f19601f82011690508083019250505050505050612f56565b90506000806000806000601160009054906101000a900473ffffffffffffffffffffffffffffffffffffffff1673ffffffffffffffffffffffffffffffffffffffff1663d33d3edc876040518263ffffffff1660e01b81526004018082815260200191505060206040518083038186803b15801561270457600080fd5b505afa158015612718573d6000803e3d6000fd5b505050506040513d602081101561272e57600080fd5b810190808051906020019092919050505090508015612ac257601160009054906101000a900473ffffffffffffffffffffffffffffffffffffffff1673ffffffffffffffffffffffffffffffffffffffff166383b8202f876040518263ffffffff1660e01b81526004018082815260200191505060006040518083038186803b1580156127ba57600080fd5b505afa1580156127ce573d6000803e3d6000fd5b505050506040513d6000823e3d601f19601f8201168201806040525060808110156127f857600080fd5b810190808051604051939291908464010000000082111561281857600080fd5b8382019150602082018581111561282e57600080fd5b825186600182028301116401000000008211171561284b57600080fd5b8083526020830192505050908051906020019080838360005b8381101561287f578082015181840152602081019050612864565b50505050905090810190601f1680156128ac5780820380516001836020036101000a031916815260200191505b5060405260200180519060200190929190805190602001909291908051906020019092919050505090919250809550819650829750505050601160009054906101000a900473ffffffffffffffffffffffffffffffffffffffff1673ffffffffffffffffffffffffffffffffffffffff16635d03147a6040518163ffffffff1660e01b815260040160206040518083038186803b15801561294c57600080fd5b505afa158015612960573d6000803e3d6000fd5b505050506040513d602081101561297657600080fd5b810190808051906020019092919050505073ffffffffffffffffffffffffffffffffffffffff16637dd56411876040518263ffffffff1660e01b81526004018082815260200191505060206040518083038186803b1580156129d757600080fd5b505afa1580156129eb573d6000803e3d6000fd5b505050506040513d6020811015612a0157600080fd5b810190808051906020019092919050505091508480612a4b57508173ffffffffffffffffffffffffffffffffffffffff163373ffffffffffffffffffffffffffffffffffffffff16145b612abd576040517f08c379a00000000000000000000000000000000000000000000000000000000081526004018080602001828103825260168152602001807f726f6f7420646973616c6c6f772072656769737472790000000000000000000081525060200191505060405180910390fd5b612c0f565b601160009054906101000a900473ffffffffffffffffffffffffffffffffffffffff1673ffffffffffffffffffffffffffffffffffffffff16633c1f718c8d8d6040518363ffffffff1660e01b815260040180806020018281038252848482818152602001925080828437600081840152601f19601f820116905080830192505050935050505060206040518083038186803b158015612b6157600080fd5b505afa158015612b75573d6000803e3d6000fd5b505050506040513d6020811015612b8b57600080fd5b8101908080519060200190929190505050612c0e576040517f08c379a000000000000000000000000000000000000000000000000000000000815260040180806020018281038252600e8152602001807f726f6f74206e6f742076616c696400000000000000000000000000000000000081525060200191505060405180910390fd5b5b6000612c4c858473ffffffffffffffffffffffffffffffffffffffff163373ffffffffffffffffffffffffffffffffffffffff1614868c87612fd1565b905060608b8b8f8f6040516020018085858082843780830192505050807f2e00000000000000000000000000000000000000000000000000000000000000815250600101838380828437808301925050509450505050506040516020818303038152906040529050601060009054906101000a900473ffffffffffffffffffffffffffffffffffffffff1673ffffffffffffffffffffffffffffffffffffffff16636a9d2b89828a612d166301e133808f60ff160263ffffffff164261318c90919063ffffffff16565b336040518563ffffffff1660e01b815260040180806020018581526020018481526020018373ffffffffffffffffffffffffffffffffffffffff1673ffffffffffffffffffffffffffffffffffffffff168152602001828103825286818151815260200191508051906020019080838360005b83811015612da4578082015181840152602081019050612d89565b50505050905090810190601f168015612dd15780820380516001836020036101000a031916815260200191505b5095505050505050600060405180830381600087803b158015612df357600080fd5b505af1158015612e07573d6000803e3d6000fd5b505050507f347c216a3595a114d3e1896e513acdc5da84c50ece779a0fe72b31c136b0f864600d600081548092919060010191905055338385600080604051808781526020018673ffffffffffffffffffffffffffffffffffffffff1673ffffffffffffffffffffffffffffffffffffffff168152602001806020018581526020018415151515815260200183151515158152602001828103825286818151815260200191508051906020019080838360005b83811015612ed5578082015181840152602081019050612eba565b50505050905090810190601f168015612f025780820380516001836020036101000a031916815260200191505b5097505050505050505060405180910390a15050505050505050505050505050565b60045481565b600e60009054906101000a900473ffffffffffffffffffffffffffffffffffffffff1681565b60035481565b6000816040516020018082805190602001908083835b60208310612f8f5780518252602082019150602081019050602083039250612f6c565b6001836020036101000a038019825116818451168082178552505050505050905001915050604051602081830303815290604052805190602001209050919050565b6000851561300657612fef8360ff16856133e690919063ffffffff16565b9050613001600b54600c548385613420565b613031565b61301e8360ff166004546133e690919063ffffffff16565b9050613030600954600a548385613420565b5b8415613048576130476007546008548385613420565b5b600e60009054906101000a900473ffffffffffffffffffffffffffffffffffffffff1673ffffffffffffffffffffffffffffffffffffffff166323b872dd33600f60009054906101000a900473ffffffffffffffffffffffffffffffffffffffff16846040518463ffffffff1660e01b8152600401808473ffffffffffffffffffffffffffffffffffffffff1673ffffffffffffffffffffffffffffffffffffffff1681526020018373ffffffffffffffffffffffffffffffffffffffff1673ffffffffffffffffffffffffffffffffffffffff1681526020018281526020019350505050602060405180830381600087803b15801561314757600080fd5b505af115801561315b573d6000803e3d6000fd5b505050506040513d602081101561317157600080fd5b81019080805190602001909291905050505095945050505050565b6000808284019050838110156131a157600080fd5b8091505092915050565b60008211156133e257600f60009054906101000a900473ffffffffffffffffffffffffffffffffffffffff1673ffffffffffffffffffffffffffffffffffffffff16630842bd27600f60009054906101000a900473ffffffffffffffffffffffffffffffffffffffff1673ffffffffffffffffffffffffffffffffffffffff1663903cdcd36040518060400160405280600581526020017f6d696e65720000000000000000000000000000000000000000000000000000008152506040518263ffffffff1660e01b81526004018080602001828103825283818151815260200191508051906020019080838360005b838110156132b557808201518184015260208101905061329a565b50505050905090810190601f1680156132e25780820380516001836020036101000a031916815260200191505b509250505060206040518083038186803b1580156132ff57600080fd5b505afa158015613313573d6000803e3d6000fd5b505050506040513d602081101561332957600080fd5b8101908080519060200190929190505050613360606461335287876133e690919063ffffffff16565b61378690919063ffffffff16565b6040518363ffffffff1660e01b8152600401808373ffffffffffffffffffffffffffffffffffffffff1673ffffffffffffffffffffffffffffffffffffffff16815260200182815260200192505050600060405180830381600087803b1580156133c957600080fd5b505af11580156133dd573d6000803e3d6000fd5b505050505b5050565b6000808314156133f9576000905061341a565b600082840290508284828161340a57fe5b041461341557600080fd5b809150505b92915050565b600084111561365757600f60009054906101000a900473ffffffffffffffffffffffffffffffffffffffff1673ffffffffffffffffffffffffffffffffffffffff16630842bd27600f60009054906101000a900473ffffffffffffffffffffffffffffffffffffffff1673ffffffffffffffffffffffffffffffffffffffff1663903cdcd36040518060400160405280600581526020017f6d696e65720000000000000000000000000000000000000000000000000000008152506040518263ffffffff1660e01b81526004018080602001828103825283818151815260200191508051906020019080838360005b8381101561352a57808201518184015260208101905061350f565b50505050905090810190601f1680156135575780820380516001836020036101000a031916815260200191505b509250505060206040518083038186803b15801561357457600080fd5b505afa158015613588573d6000803e3d6000fd5b505050506040513d602081101561359e57600080fd5b81019080805190602001909291905050506135d560646135c789886133e690919063ffffffff16565b61378690919063ffffffff16565b6040518363ffffffff1660e01b8152600401808373ffffffffffffffffffffffffffffffffffffffff1673ffffffffffffffffffffffffffffffffffffffff16815260200182815260200192505050600060405180830381600087803b15801561363e57600080fd5b505af1158015613652573d6000803e3d6000fd5b505050505b600073ffffffffffffffffffffffffffffffffffffffff168173ffffffffffffffffffffffffffffffffffffffff16141580156136945750600083115b1561378057600f60009054906101000a900473ffffffffffffffffffffffffffffffffffffffff1673ffffffffffffffffffffffffffffffffffffffff16630842bd27826136fe60646136f088886133e690919063ffffffff16565b61378690919063ffffffff16565b6040518363ffffffff1660e01b8152600401808373ffffffffffffffffffffffffffffffffffffffff1673ffffffffffffffffffffffffffffffffffffffff16815260200182815260200192505050600060405180830381600087803b15801561376757600080fd5b505af115801561377b573d6000803e3d6000fd5b505050505b50505050565b600080821161379457600080fd5b600082848161379f57fe5b049050809150509291505056fe63616e277420736574207072696365206c6f776572207468616e2064656661756c746f6e6c79207261726520726f6f7420646f6d61696e20697320616c6c6f77656420746f20637573746f6d65726c697a652073756220646f6d61696e207072696365a265627a7a72315820599174bc3fce262b6cbdfa1921b5d63949e3c16e84fd320ab19c406b988fb34464736f6c63430005100032",
  "source": "pragma solidity >=0.5.0;\n//ICANNThe Internet Corporation for Assigned Names and Numbers\n//BOANNThe Blockchain Organizaiton for Assigned Names and Numbers\n\nimport \"./BasToken.sol\";\nimport \"./BasLib.sol\";\nimport \"./BasMiner.sol\";\nimport \"./BasDomain.sol\";\n\n/*\n[DEPLOYED]\nthis contract manages domain registry and some data change options that costs bas\nand keeps all receiptID with profit allocation plan meanwhile\n*/\ncontract BasOANN is ManagedByDAO {\n    using SafeMath for uint256;\n    \n    event PriceSetting(uint256 MAX_YEAR,\n                uint256 AROOT_GAS,\n                uint256 BROOT_GAS,\n                uint256 SUB_GAS,\n                uint256 CUSTOMED_PRICE_GAS);\n                \n    event AllocationSetting(uint256 REG_ROOT_M,\n                uint256 REG_SELF_SUB_M,\n                uint256 REG_SELF_SUB_O,\n                uint256 REG_NORMAL_SUB_M,\n                uint256 REG_NORMAL_SUB_O,\n                uint256 REG_CUSTOEMED_SUB_M,\n                uint256 REG_CUSTOEMED_SUB_O);\n    \n    event Register(uint receiptID, \n                address payer,\n                bytes name,\n                uint256 amount,\n                bool isRoot,\n                bool isRare);\n    \n    // notice nameHash is indexed            \n    event Recharge(uint receiptID, \n                address payer,\n                bytes32 indexed nameHash,\n                uint256 amount,\n                bool isRoot,\n                bool isRare);\n                \n    event OperCustomerPrice(uint receiptID, \n                address payer,\n                bytes32 nameHash,\n                uint256 amount);\n                \n    string constant MINER = \"miner\";\n    \n    uint256 public MAX_YEAR             ;//= 5\n    uint256 public AROOT_GAS            ;//= 2000 * (10**18);\n    uint256 public BROOT_GAS            ;//= 200 * (10**18);\n    uint256 public SUB_GAS              ;//= 4 * (10**18);\n    uint256 public CUSTOMED_PRICE_GAS   ;//= 100 * (10**18);\n    uint256 public REG_ROOT_M           ;//= 40;\n    uint256 public REG_SELF_SUB_M       ;//= 40;\n    uint256 public REG_SELF_SUB_O       ;//= 0;\n    uint256 public REG_NORMAL_SUB_M     ;//= 40;\n    uint256 public REG_NORMAL_SUB_O     ;//= 20;\n    uint256 public REG_CUSTOEMED_SUB_M  ;//= 40;\n    uint256 public REG_CUSTOEMED_SUB_O  ;//= 15;\n    \n    function priceSetting(uint256 max_year,\n                        uint256 aroot_gas,\n                        uint256 broot_gas,\n                        uint256 sub_gas,\n                        uint256 customed_price_gas)\n                        public\n                        OnlyDAO{\n            MAX_YEAR                    =   max_year;\n            AROOT_GAS                   =   aroot_gas;\n            BROOT_GAS                   =   broot_gas;\n            SUB_GAS                     =   sub_gas;\n            CUSTOMED_PRICE_GAS          =   customed_price_gas;\n            \n            emit PriceSetting(MAX_YEAR, AROOT_GAS, BROOT_GAS, SUB_GAS, CUSTOMED_PRICE_GAS);\n    }\n    \n    \n    function allocationSetting(uint256 reg_root_m,\n                        uint256 reg_self_sub_m,\n                        uint256 reg_self_sub_o,\n                        uint256 reg_normal_sub_m,\n                        uint256 reg_normal_sub_o,\n                        uint256 reg_customed_sub_m,\n                        uint256 reg_customed_sub_o)\n                        public\n                        OnlyDAO{\n                            \n            require(reg_root_m <= 100 &&\n                    reg_self_sub_m.add(reg_self_sub_o) <= 100 &&\n                    reg_normal_sub_m.add(reg_normal_sub_o) <= 100 &&\n                    reg_customed_sub_m.add(reg_customed_sub_o) <= 100,\n                    \"param error\");\n            \n            REG_ROOT_M                  =   reg_root_m;\n            REG_SELF_SUB_M              =   reg_self_sub_m;\n            REG_SELF_SUB_O              =   reg_self_sub_o;\n            REG_NORMAL_SUB_M            =   reg_normal_sub_m;\n            REG_NORMAL_SUB_O            =   reg_normal_sub_o;\n            REG_CUSTOEMED_SUB_M         =   reg_customed_sub_m;\n            REG_CUSTOEMED_SUB_O         =   reg_customed_sub_o;\n\n            \n            emit AllocationSetting(REG_ROOT_M, REG_SELF_SUB_M, REG_SELF_SUB_O, \n                        REG_NORMAL_SUB_M, REG_NORMAL_SUB_O,\n                        REG_CUSTOEMED_SUB_M, REG_CUSTOEMED_SUB_O);\n    }\n    \n    constructor(address _t,\n                address _rd,\n                address _sd,\n                address _acc) public {\n            priceSetting(5, 2000 * (10**18), 200 * (10**18), 4 * (10**18), 100 * (10**18));\n            allocationSetting(40, 40, 0, 40, 20, 40, 15);\n            \n            token           = ERC20(_t);\n            accountant      = BasAccountant(_acc);\n            rootDomainData  = BasRootDomain(_rd);\n            subDomainData   = BasSubDomain(_sd);\n    }\n    \n    uint public             receiptID;\n    ERC20 public            token;\n    BasAccountant public    accountant;\n    BasSubDomain public     subDomainData;\n    BasRootDomain public    rootDomainData;\n    \n    \n    modifier validDuration(uint8 y)  {\n        require (y <= MAX_YEAR && y > 0);\n        _;\n    }\n    \n    function setupDataRef(address _t,\n                    address _rd,\n                    address _sd,\n                    address _acc)\n                    public \n                    OnlyDAO{\n        \n        token           = ERC20(_t);\n        accountant      = BasAccountant(_acc);\n        rootDomainData  = BasRootDomain(_rd);\n        subDomainData   = BasSubDomain(_sd);\n    }\n    \n    \n    /*\n    this profit allocation is for root domain options\n    */\n    function _allocateProfit_m(uint256 share_m, \n                        uint cost) \n                        internal{\n        if (share_m > 0){\n            accountant.allocateProfit(accountant.contractReceivers(MINER), cost.mul(share_m).div(100));\n        }\n    }\n    \n    /*\n    this profit allocation is for sub domain options\n    */\n    function _allocateProfit_m_o(uint256 share_m,\n                        uint256 share_o,\n                        uint cost,\n                        address domainOwner) \n                        internal{\n        if (share_m > 0){\n            accountant.allocateProfit(accountant.contractReceivers(MINER), cost.mul(share_m).div(100));\n        }\n        if (domainOwner != address(0) && share_o > 0){\n            accountant.allocateProfit(domainOwner, cost.mul(share_o).div(100));\n        }\n    }\n    \n    \n    /*\n    when register a root, there are some checks and some changes about storage,\n    first, validity of characters are checked here, so is rareness,\n    then the cost is sumed and token transfered to miners\n    then the domain contract decide if this registry is new or takeover\n    lastly the ownership record the new expiration date \n    */\n    function registerRoot(bytes calldata name,\n                    bool isOpen,\n                    bool isCustomed,\n                    uint256 cusPrice,\n                    uint8 durationInYear)\n                    external\n                    validDuration(durationInYear){\n        \n        (bool isValid, bool isRare) = rootDomainData.classifyRoot(name);\n        require(isValid, \"invalid domain name\");\n\n        uint256 cost;\n        if (isRare) {\n            cost = AROOT_GAS.mul(durationInYear);\n        } else {\n            cost = BROOT_GAS.mul(durationInYear);\n        }\n\n        if (isCustomed) {\n            require(isRare, \"only rare root domain is allowed to customerlize sub domain price\");\n            require(cusPrice >= SUB_GAS, \"can't be lower than system price\");\n            cost = cost.add(CUSTOMED_PRICE_GAS);\n        }\n        \n        token.transferFrom(msg.sender, address(accountant), cost);\n        \n        rootDomainData.replaceOrCreate(name, now.add(durationInYear * 365 days), isOpen, isCustomed, cusPrice, msg.sender);\n        \n        _allocateProfit_m(REG_ROOT_M, cost);\n        \n        emit Register(receiptID++, msg.sender, name, cost, true, isRare);\n    }\n\n    /*\n    any one can recharge an existing domain\n    */\n    function rechargeRoot(bytes32 nameHash,\n                    uint8 durationInYear)\n                    external\n                    validDuration(durationInYear){\n\n        require(rootDomainData.hasDomain(nameHash), \"domain not exist\");\n        (, bool isRare) = rootDomainData.classifyRoot(nameHash);\n        \n        uint256 cost;\n        if (isRare){\n            cost = AROOT_GAS.mul(durationInYear);\n        }else{\n            cost = BROOT_GAS.mul(durationInYear);\n        }\n        \n        token.transferFrom(msg.sender, address(accountant), cost);\n        \n        rootDomainData.recharge(nameHash, durationInYear * 365 days, now.add(MAX_YEAR * 365 days));\n        \n        _allocateProfit_m(REG_ROOT_M, cost);\n        \n        emit Recharge(receiptID++, msg.sender, nameHash, cost, true, isRare);\n    }\n\n    /*\n    each time user want to change price, it should pay some token\n    to prevent from constantly changes\n    */\n    function openCustomedPrice(bytes32 nameHash,\n                            uint256 price)\n                            external{\n\n        require(price > SUB_GAS, \"can't set price lower than default\");\n        \n        token.transferFrom(msg.sender, address(accountant), CUSTOMED_PRICE_GAS);\n        \n        _allocateProfit_m(REG_ROOT_M, CUSTOMED_PRICE_GAS);\n        \n        rootDomainData.openCustomedPrice(nameHash, price, msg.sender);\n\n        emit OperCustomerPrice(receiptID++, msg.sender, nameHash, CUSTOMED_PRICE_GAS);\n    }\n\n    /*\n    registering sub domain takes more steps than root,\n    if we are registering a subdomain of an existing root, we can skip the root validity check\n    otherwise we should perform a full check\n    second, based on existence and openness and account address, decide if able to register\n    then sum cost and transfer token\n    */\n    function registerSub(bytes calldata rName,\n                    bytes calldata sName,\n                    uint8 durationInYear)\n                    external\n                    validDuration(durationInYear){\n        \n        require(subDomainData.verifySub(sName), \"subname not valid\");\n        bytes32 rootHash = BasHash.Hash(rName);\n        bool isOpen;\n        bool isCustomed;\n        uint256 customedPrice;\n        address rootOwner;\n        bool rootExist = rootDomainData.hasDomain(rootHash);\n        if (rootExist){\n            (,isOpen, isCustomed, customedPrice) = rootDomainData.Root(rootHash);\n            rootOwner = rootDomainData.ownership().ownerOf(rootHash);\n            require(isOpen || msg.sender == rootOwner, \"root disallow registry\");\n        }else{\n            require(rootDomainData.verifyRoot(rName),\"root not valid\");\n        }\n        uint256 cost = _decideCostAndDeliverToken(isCustomed, msg.sender == rootOwner, customedPrice, durationInYear, rootOwner);\n        bytes memory totalName = abi.encodePacked(sName, \".\", rName);\n\n        subDomainData.replaceOrCreate(totalName, rootHash, now.add((durationInYear * 365 days)), msg.sender);\n        \n        emit Register(receiptID++, msg.sender, totalName, cost, false, false);\n    }\n    \n    \n    /*\n    in most case, we should not check root validity again, but in case root of rareness changes,\n    recheck is needed, \n    */\n    function rechargeSub(bytes calldata rName,\n                    bytes calldata sName,\n                    uint8 durationInYear)\n                    external\n                    validDuration(durationInYear){\n        \n        bytes32 nameHash = BasHash.Hash(abi.encodePacked(sName, \".\", rName));\n        bytes32 rootHash = BasHash.Hash(rName);\n        require(subDomainData.hasDomain(nameHash), \"domain not exist\");\n        \n        (,, bool isCustomed, uint256 customedPrice) = rootDomainData.Root(rootHash);\n        address rootOwner = rootDomainData.ownership().ownerOf(rootHash);\n        \n        uint256 cost = _decideCostAndDeliverToken(isCustomed, msg.sender == rootOwner, customedPrice, durationInYear, rootOwner);\n        \n        subDomainData.recharge(nameHash, durationInYear * 365 days, now.add(MAX_YEAR * 365 days));\n        \n        emit Recharge(receiptID++, msg.sender, nameHash, cost, false, false);\n    }\n    \n    function _decideCostAndDeliverToken(bool isCustomed,\n                                    bool isSelf,\n                                    uint256 customedPrice,\n                                    uint8 durationInYear,\n                                    address rootOwner)\n                            internal\n                            returns (uint256 cost){\n                                \n        if (isCustomed){\n            \n            cost = customedPrice.mul(durationInYear);\n            _allocateProfit_m_o(REG_CUSTOEMED_SUB_M, REG_CUSTOEMED_SUB_O, cost, rootOwner);\n            \n        } else{\n            cost = SUB_GAS.mul(durationInYear);\n            _allocateProfit_m_o(REG_NORMAL_SUB_M, REG_NORMAL_SUB_O, cost, rootOwner);\n        }\n        \n        if (isSelf){\n            _allocateProfit_m_o(REG_SELF_SUB_M, REG_SELF_SUB_O, cost, rootOwner);\n        }\n        \n        token.transferFrom(msg.sender, address(accountant), cost);\n\n    }\n}\n",
  "sourcePath": "/Users/mini2/workspace/truffle suite/BasChain/truffle_smart_contracts/contracts/BasOANN.sol",
  "compiler": {
    "name": "solc",
    "version": "0.5.16+commit.9c3226ce.Emscripten.clang"
  },
  "schemaVersion": "3.0.23",
  "updatedAt": "2020-04-29T08:50:58.388Z",
  "networkType": "ethereum",
  "devdoc": {
    "methods": {}
  },
  "userdoc": {
    "methods": {}
  }
}