{
  "contractName": "BasRootDomain",
  "abi": [
    {
      "inputs": [
        {
          "internalType": "address",
          "name": "_os",
          "type": "address"
        }
      ],
      "payable": false,
      "stateMutability": "nonpayable",
      "type": "constructor"
    },
    {
      "anonymous": false,
      "inputs": [
        {
          "indexed": false,
          "internalType": "bytes32",
          "name": "nameHash",
          "type": "bytes32"
        }
      ],
      "name": "ClosedCustomedPrice",
      "type": "event"
    },
    {
      "anonymous": false,
      "inputs": [
        {
          "indexed": false,
          "internalType": "bytes",
          "name": "rootName",
          "type": "bytes"
        },
        {
          "indexed": false,
          "internalType": "bool",
          "name": "openToPublic",
          "type": "bool"
        },
        {
          "indexed": false,
          "internalType": "bool",
          "name": "isCustomed",
          "type": "bool"
        },
        {
          "indexed": false,
          "internalType": "uint256",
          "name": "customedPrice",
          "type": "uint256"
        }
      ],
      "name": "NewRootDomain",
      "type": "event"
    },
    {
      "anonymous": false,
      "inputs": [
        {
          "indexed": false,
          "internalType": "bytes32",
          "name": "nameHash",
          "type": "bytes32"
        },
        {
          "indexed": false,
          "internalType": "uint256",
          "name": "customedPrice",
          "type": "uint256"
        }
      ],
      "name": "OpenCustomedPrice",
      "type": "event"
    },
    {
      "anonymous": false,
      "inputs": [
        {
          "indexed": false,
          "internalType": "bytes32",
          "name": "nameHash",
          "type": "bytes32"
        },
        {
          "indexed": false,
          "internalType": "bool",
          "name": "openToPublic",
          "type": "bool"
        },
        {
          "indexed": false,
          "internalType": "bool",
          "name": "isCustomed",
          "type": "bool"
        },
        {
          "indexed": false,
          "internalType": "uint256",
          "name": "customedPrice",
          "type": "uint256"
        }
      ],
      "name": "RootDataReplced",
      "type": "event"
    },
    {
      "anonymous": false,
      "inputs": [
        {
          "indexed": false,
          "internalType": "bytes32",
          "name": "nameHash",
          "type": "bytes32"
        },
        {
          "indexed": false,
          "internalType": "bool",
          "name": "isOpen",
          "type": "bool"
        }
      ],
      "name": "RootPublicChagned",
      "type": "event"
    },
    {
      "anonymous": false,
      "inputs": [
        {
          "indexed": false,
          "internalType": "bytes32",
          "name": "",
          "type": "bytes32"
        },
        {
          "indexed": false,
          "internalType": "uint256",
          "name": "duration",
          "type": "uint256"
        }
      ],
      "name": "RootRecharged",
      "type": "event"
    },
    {
      "anonymous": false,
      "inputs": [
        {
          "indexed": false,
          "internalType": "bytes32",
          "name": "nameHash",
          "type": "bytes32"
        },
        {
          "indexed": false,
          "internalType": "bytes",
          "name": "rootName",
          "type": "bytes"
        },
        {
          "indexed": false,
          "internalType": "bool",
          "name": "openToPublic",
          "type": "bool"
        },
        {
          "indexed": false,
          "internalType": "bool",
          "name": "isCustomed",
          "type": "bool"
        },
        {
          "indexed": false,
          "internalType": "uint256",
          "name": "customedPrice",
          "type": "uint256"
        }
      ],
      "name": "RootUpdate",
      "type": "event"
    },
    {
      "constant": false,
      "inputs": [
        {
          "internalType": "address",
          "name": "newDao",
          "type": "address"
        }
      ],
      "name": "ChangeDAO",
      "outputs": [],
      "payable": false,
      "stateMutability": "nonpayable",
      "type": "function"
    },
    {
      "constant": true,
      "inputs": [],
      "name": "DAOAddress",
      "outputs": [
        {
          "internalType": "address",
          "name": "",
          "type": "address"
        }
      ],
      "payable": false,
      "stateMutability": "view",
      "type": "function"
    },
    {
      "constant": true,
      "inputs": [],
      "name": "RARE_LENGTH",
      "outputs": [
        {
          "internalType": "uint8",
          "name": "",
          "type": "uint8"
        }
      ],
      "payable": false,
      "stateMutability": "view",
      "type": "function"
    },
    {
      "constant": true,
      "inputs": [
        {
          "internalType": "bytes32",
          "name": "",
          "type": "bytes32"
        }
      ],
      "name": "Root",
      "outputs": [
        {
          "internalType": "bytes",
          "name": "rootName",
          "type": "bytes"
        },
        {
          "internalType": "bool",
          "name": "openToPublic",
          "type": "bool"
        },
        {
          "internalType": "bool",
          "name": "isCustomed",
          "type": "bool"
        },
        {
          "internalType": "uint256",
          "name": "customedPrice",
          "type": "uint256"
        }
      ],
      "payable": false,
      "stateMutability": "view",
      "type": "function"
    },
    {
      "constant": false,
      "inputs": [
        {
          "internalType": "address",
          "name": "_addr",
          "type": "address"
        }
      ],
      "name": "addDataKeeper",
      "outputs": [],
      "payable": false,
      "stateMutability": "nonpayable",
      "type": "function"
    },
    {
      "constant": true,
      "inputs": [
        {
          "internalType": "address",
          "name": "",
          "type": "address"
        }
      ],
      "name": "dataKeeper",
      "outputs": [
        {
          "internalType": "bool",
          "name": "",
          "type": "bool"
        }
      ],
      "payable": false,
      "stateMutability": "view",
      "type": "function"
    },
    {
      "constant": true,
      "inputs": [
        {
          "internalType": "address",
          "name": "curOwner",
          "type": "address"
        },
        {
          "internalType": "bytes32",
          "name": "hash",
          "type": "bytes32"
        }
      ],
      "name": "domainIsValid",
      "outputs": [
        {
          "internalType": "bool",
          "name": "",
          "type": "bool"
        }
      ],
      "payable": false,
      "stateMutability": "view",
      "type": "function"
    },
    {
      "constant": true,
      "inputs": [
        {
          "internalType": "bytes32",
          "name": "hash",
          "type": "bytes32"
        }
      ],
      "name": "getValidOwner",
      "outputs": [
        {
          "internalType": "address",
          "name": "",
          "type": "address"
        }
      ],
      "payable": false,
      "stateMutability": "view",
      "type": "function"
    },
    {
      "constant": true,
      "inputs": [],
      "name": "ownership",
      "outputs": [
        {
          "internalType": "contract BasExpiredOwnership",
          "name": "",
          "type": "address"
        }
      ],
      "payable": false,
      "stateMutability": "view",
      "type": "function"
    },
    {
      "constant": false,
      "inputs": [
        {
          "internalType": "address",
          "name": "_ok",
          "type": "address"
        }
      ],
      "name": "removeDataKeeper",
      "outputs": [],
      "payable": false,
      "stateMutability": "nonpayable",
      "type": "function"
    },
    {
      "constant": false,
      "inputs": [
        {
          "internalType": "address",
          "name": "_os",
          "type": "address"
        }
      ],
      "name": "setOwnership",
      "outputs": [],
      "payable": false,
      "stateMutability": "nonpayable",
      "type": "function"
    },
    {
      "constant": false,
      "inputs": [
        {
          "internalType": "uint8",
          "name": "length",
          "type": "uint8"
        }
      ],
      "name": "changeRareLength",
      "outputs": [],
      "payable": false,
      "stateMutability": "nonpayable",
      "type": "function"
    },
    {
      "constant": true,
      "inputs": [
        {
          "internalType": "bytes32",
          "name": "nameHash",
          "type": "bytes32"
        }
      ],
      "name": "classifyRoot",
      "outputs": [
        {
          "internalType": "bool",
          "name": "",
          "type": "bool"
        },
        {
          "internalType": "bool",
          "name": "",
          "type": "bool"
        }
      ],
      "payable": false,
      "stateMutability": "view",
      "type": "function"
    },
    {
      "constant": true,
      "inputs": [
        {
          "internalType": "bytes",
          "name": "name",
          "type": "bytes"
        }
      ],
      "name": "classifyRoot",
      "outputs": [
        {
          "internalType": "bool",
          "name": "",
          "type": "bool"
        },
        {
          "internalType": "bool",
          "name": "",
          "type": "bool"
        }
      ],
      "payable": false,
      "stateMutability": "view",
      "type": "function"
    },
    {
      "constant": true,
      "inputs": [
        {
          "internalType": "bytes32",
          "name": "nameHash",
          "type": "bytes32"
        }
      ],
      "name": "isRare",
      "outputs": [
        {
          "internalType": "bool",
          "name": "",
          "type": "bool"
        }
      ],
      "payable": false,
      "stateMutability": "view",
      "type": "function"
    },
    {
      "constant": true,
      "inputs": [
        {
          "internalType": "bytes",
          "name": "name",
          "type": "bytes"
        }
      ],
      "name": "verifyRoot",
      "outputs": [
        {
          "internalType": "bool",
          "name": "",
          "type": "bool"
        }
      ],
      "payable": false,
      "stateMutability": "pure",
      "type": "function"
    },
    {
      "constant": true,
      "inputs": [
        {
          "internalType": "bytes32",
          "name": "nameHash",
          "type": "bytes32"
        }
      ],
      "name": "verifyRoot",
      "outputs": [
        {
          "internalType": "bool",
          "name": "",
          "type": "bool"
        }
      ],
      "payable": false,
      "stateMutability": "view",
      "type": "function"
    },
    {
      "constant": true,
      "inputs": [
        {
          "internalType": "bytes32",
          "name": "hash",
          "type": "bytes32"
        }
      ],
      "name": "hasDomain",
      "outputs": [
        {
          "internalType": "bool",
          "name": "",
          "type": "bool"
        }
      ],
      "payable": false,
      "stateMutability": "view",
      "type": "function"
    },
    {
      "constant": true,
      "inputs": [
        {
          "internalType": "bytes32",
          "name": "hash",
          "type": "bytes32"
        }
      ],
      "name": "getNameByHash",
      "outputs": [
        {
          "internalType": "bytes",
          "name": "",
          "type": "bytes"
        }
      ],
      "payable": false,
      "stateMutability": "view",
      "type": "function"
    },
    {
      "constant": false,
      "inputs": [
        {
          "internalType": "bytes",
          "name": "rootName",
          "type": "bytes"
        },
        {
          "internalType": "bool",
          "name": "openToPublic",
          "type": "bool"
        },
        {
          "internalType": "bool",
          "name": "isCustomed",
          "type": "bool"
        },
        {
          "internalType": "uint256",
          "name": "customedPrice",
          "type": "uint256"
        }
      ],
      "name": "updateByDaoProposal",
      "outputs": [],
      "payable": false,
      "stateMutability": "nonpayable",
      "type": "function"
    },
    {
      "constant": false,
      "inputs": [
        {
          "internalType": "bytes",
          "name": "rootName",
          "type": "bytes"
        },
        {
          "internalType": "uint256",
          "name": "expire",
          "type": "uint256"
        },
        {
          "internalType": "bool",
          "name": "openToPublic",
          "type": "bool"
        },
        {
          "internalType": "bool",
          "name": "isCustomed",
          "type": "bool"
        },
        {
          "internalType": "uint256",
          "name": "customedPrice",
          "type": "uint256"
        },
        {
          "internalType": "address",
          "name": "applicant",
          "type": "address"
        }
      ],
      "name": "replaceOrCreate",
      "outputs": [],
      "payable": false,
      "stateMutability": "nonpayable",
      "type": "function"
    },
    {
      "constant": false,
      "inputs": [
        {
          "internalType": "bytes32",
          "name": "nameHash",
          "type": "bytes32"
        },
        {
          "internalType": "uint256",
          "name": "rechargeTime",
          "type": "uint256"
        },
        {
          "internalType": "uint256",
          "name": "maxEnd",
          "type": "uint256"
        }
      ],
      "name": "recharge",
      "outputs": [],
      "payable": false,
      "stateMutability": "nonpayable",
      "type": "function"
    },
    {
      "constant": false,
      "inputs": [
        {
          "internalType": "bytes32",
          "name": "nameHash",
          "type": "bytes32"
        },
        {
          "internalType": "uint256",
          "name": "customedPrice",
          "type": "uint256"
        },
        {
          "internalType": "address",
          "name": "operator",
          "type": "address"
        }
      ],
      "name": "openCustomedPrice",
      "outputs": [],
      "payable": false,
      "stateMutability": "nonpayable",
      "type": "function"
    },
    {
      "constant": false,
      "inputs": [
        {
          "internalType": "bytes32",
          "name": "nameHash",
          "type": "bytes32"
        }
      ],
      "name": "closeCustomedPrice",
      "outputs": [],
      "payable": false,
      "stateMutability": "nonpayable",
      "type": "function"
    },
    {
      "constant": false,
      "inputs": [
        {
          "internalType": "bytes32",
          "name": "nameHash",
          "type": "bytes32"
        },
        {
          "internalType": "bool",
          "name": "isOpen",
          "type": "bool"
        }
      ],
      "name": "setPublic",
      "outputs": [],
      "payable": false,
      "stateMutability": "nonpayable",
      "type": "function"
    }
  ],
  "bytecode": "0x60806040526006600260146101000a81548160ff021916908360ff16021790555034801561002c57600080fd5b506040516130b93803806130b98339818101604052602081101561004f57600080fd5b8101908080519060200190929190505050336000806101000a81548173ffffffffffffffffffffffffffffffffffffffff021916908373ffffffffffffffffffffffffffffffffffffffff16021790555080600260006101000a81548173ffffffffffffffffffffffffffffffffffffffff021916908373ffffffffffffffffffffffffffffffffffffffff16021790555050612fc8806100f16000396000f3fe608060405234801561001057600080fd5b50600436106101735760003560e01c80638a79e6b5116100de578063bd69144b11610097578063c7bd220211610071578063c7bd2202146109af578063d33d3edc14610a0b578063d392eab114610a51578063f03590bf14610a9b57610173565b8063bd69144b146108d1578063be1669f914610913578063c0bd516d1461098157610173565b80638a79e6b5146106ad5780638ec2c758146106de57806392c7e0ba1461072f578063a6aff7c714610769578063a7016023146107af578063aeb69767146107f357610173565b80635c290250116101305780635c2902501461046b5780635d03147a146104af5780636f6d7cb4146104f957806383363bcf1461055f57806383b8202f146105a55780638a42876b1461066957610173565b80630d84c531146101785780630f737ba2146102135780631e8869691461026b578063361be604146102af5780633c1f718c14610374578063547fccdb14610447575b600080fd5b6102116004803603608081101561018e57600080fd5b81019080803590602001906401000000008111156101ab57600080fd5b8201836020820111156101bd57600080fd5b803590602001918460018302840111640100000000831117156101df57600080fd5b909192939192939080351515906020019092919080351515906020019092919080359060200190929190505050610b42565b005b6102696004803603606081101561022957600080fd5b810190808035906020019092919080359060200190929190803573ffffffffffffffffffffffffffffffffffffffff169060200190929190505050610dce565b005b6102ad6004803603602081101561028157600080fd5b81019080803573ffffffffffffffffffffffffffffffffffffffff1690602001909291905050506110ba565b005b610372600480360360c08110156102c557600080fd5b81019080803590602001906401000000008111156102e257600080fd5b8201836020820111156102f457600080fd5b8035906020019184600183028401116401000000008311171561031657600080fd5b90919293919293908035906020019092919080351515906020019092919080351515906020019092919080359060200190929190803573ffffffffffffffffffffffffffffffffffffffff1690602001909291905050506111ce565b005b61042d6004803603602081101561038a57600080fd5b81019080803590602001906401000000008111156103a757600080fd5b8201836020820111156103b957600080fd5b803590602001918460018302840111640100000000831117156103db57600080fd5b91908080601f016020809104026020016040519081016040528093929190818152602001838380828437600081840152601f19601f820116905080830192505050505050509192919290505050611760565b604051808215151515815260200191505060405180910390f35b61044f6117de565b604051808260ff1660ff16815260200191505060405180910390f35b6104ad6004803603602081101561048157600080fd5b81019080803573ffffffffffffffffffffffffffffffffffffffff1690602001909291905050506117f1565b005b6104b761190d565b604051808273ffffffffffffffffffffffffffffffffffffffff1673ffffffffffffffffffffffffffffffffffffffff16815260200191505060405180910390f35b6105456004803603604081101561050f57600080fd5b81019080803573ffffffffffffffffffffffffffffffffffffffff16906020019092919080359060200190929190505050611933565b604051808215151515815260200191505060405180910390f35b61058b6004803603602081101561057557600080fd5b8101908080359060200190929190505050611a37565b604051808215151515815260200191505060405180910390f35b6105d1600480360360208110156105bb57600080fd5b8101908080359060200190929190505050611b0f565b60405180806020018515151515815260200184151515158152602001838152602001828103825286818151815260200191508051906020019080838360005b8381101561062b578082015181840152602081019050610610565b50505050905090810190601f1680156106585780820380516001836020036101000a031916815260200191505b509550505050505060405180910390f35b6106ab6004803603602081101561067f57600080fd5b81019080803573ffffffffffffffffffffffffffffffffffffffff169060200190929190505050611bf1565b005b6106dc600480360360208110156106c357600080fd5b81019080803560ff169060200190929190505050611cf6565b005b61070a600480360360208110156106f457600080fd5b8101908080359060200190929190505050611dd6565b6040518083151515158152602001821515151581526020019250505060405180910390f35b6107676004803603604081101561074557600080fd5b8101908080359060200190929190803515159060200190929190505050611eb4565b005b6107956004803603602081101561077f57600080fd5b8101908080359060200190929190505050612136565b604051808215151515815260200191505060405180910390f35b6107f1600480360360208110156107c557600080fd5b81019080803573ffffffffffffffffffffffffffffffffffffffff1690602001909291905050506122e7565b005b6108ac6004803603602081101561080957600080fd5b810190808035906020019064010000000081111561082657600080fd5b82018360208201111561083857600080fd5b8035906020019184600183028401116401000000008311171561085a57600080fd5b91908080601f016020809104026020016040519081016040528093929190818152602001838380828437600081840152601f19601f8201169050808301925050505050505091929192905050506123ed565b6040518083151515158152602001821515151581526020019250505060405180910390f35b610911600480360360608110156108e757600080fd5b81019080803590602001909291908035906020019092919080359060200190929190505050612533565b005b61093f6004803603602081101561092957600080fd5b81019080803590602001909291905050506128b2565b604051808273ffffffffffffffffffffffffffffffffffffffff1673ffffffffffffffffffffffffffffffffffffffff16815260200191505060405180910390f35b6109ad6004803603602081101561099757600080fd5b8101908080359060200190929190505050612990565b005b6109f1600480360360208110156109c557600080fd5b81019080803573ffffffffffffffffffffffffffffffffffffffff169060200190929190505050612b98565b604051808215151515815260200191505060405180910390f35b610a3760048036036020811015610a2157600080fd5b8101908080359060200190929190505050612bb8565b604051808215151515815260200191505060405180910390f35b610a59612bee565b604051808273ffffffffffffffffffffffffffffffffffffffff1673ffffffffffffffffffffffffffffffffffffffff16815260200191505060405180910390f35b610ac760048036036020811015610ab157600080fd5b8101908080359060200190929190505050612c13565b6040518080602001828103825283818151815260200191508051906020019080838360005b83811015610b07578082015181840152602081019050610aec565b50505050905090810190601f168015610b345780820380516001836020036101000a031916815260200191505b509250505060405180910390f35b6000809054906101000a900473ffffffffffffffffffffffffffffffffffffffff1673ffffffffffffffffffffffffffffffffffffffff163373ffffffffffffffffffffffffffffffffffffffff1614610c04576040517f08c379a000000000000000000000000000000000000000000000000000000000815260040180806020018281038252600a8152602001807f61646d696e206f6e6c790000000000000000000000000000000000000000000081525060200191505060405180910390fd5b6000610c5386868080601f016020809104026020016040519081016040528093929190818152602001838380828437600081840152601f19601f82011690508083019250505050505050612ccb565b9050604051806080016040528087878080601f016020809104026020016040519081016040528093929190818152602001838380828437600081840152601f19601f8201169050808301925050505050505081526020018515158152602001841515815260200183815250600360008381526020019081526020016000206000820151816000019080519060200190610ced929190612e6e565b5060208201518160010160006101000a81548160ff02191690831515021790555060408201518160010160016101000a81548160ff021916908315150217905550606082015181600201559050507f5e3a0d25ee4ea2b575d3c4115cf54f580e1a1e5f54f7ddca0ab350ae4ad149eb818787878787604051808781526020018060200185151515158152602001841515151581526020018381526020018281038252878782818152602001925080828437600081840152601f19601f82011690508083019250505097505050505050505060405180910390a1505050505050565b8083600080600260009054906101000a900473ffffffffffffffffffffffffffffffffffffffff1673ffffffffffffffffffffffffffffffffffffffff166333eeb127846040518263ffffffff1660e01b815260040180828152602001915050604080518083038186803b158015610e4557600080fd5b505afa158015610e59573d6000803e3d6000fd5b505050506040513d6040811015610e6f57600080fd5b810190808051906020019092919080519060200190929190505050915091508373ffffffffffffffffffffffffffffffffffffffff168273ffffffffffffffffffffffffffffffffffffffff16148015610ec857504281115b610f3a576040517f08c379a00000000000000000000000000000000000000000000000000000000081526004018080602001828103825260158152602001807f6f6e6c79206f776e657220697320696e76616c6964000000000000000000000081525060200191505060405180910390fd5b600160003373ffffffffffffffffffffffffffffffffffffffff1673ffffffffffffffffffffffffffffffffffffffff16815260200190815260200160002060009054906101000a900460ff16610ff9576040517f08c379a00000000000000000000000000000000000000000000000000000000081526004018080602001828103825260168152602001807f4f6e6c792064617461206b65657065722076616c69640000000000000000000081525060200191505060405180910390fd5b60016003600089815260200190815260200160002060010160016101000a81548160ff02191690831515021790555060016003600089815260200190815260200160002060010160006101000a81548160ff0219169083151502179055508560036000898152602001908152602001600020600201819055507f75ea7069c2581af37d0c8fff1270e5594b04eddac69501ca14a7c7b9773ce4138787604051808381526020018281526020019250505060405180910390a150505050505050565b6000809054906101000a900473ffffffffffffffffffffffffffffffffffffffff1673ffffffffffffffffffffffffffffffffffffffff163373ffffffffffffffffffffffffffffffffffffffff161461117c576040517f08c379a000000000000000000000000000000000000000000000000000000000815260040180806020018281038252600a8152602001807f61646d696e206f6e6c790000000000000000000000000000000000000000000081525060200191505060405180910390fd5b600160008273ffffffffffffffffffffffffffffffffffffffff1673ffffffffffffffffffffffffffffffffffffffff16815260200190815260200160002060006101000a81549060ff021916905550565b600160003373ffffffffffffffffffffffffffffffffffffffff1673ffffffffffffffffffffffffffffffffffffffff16815260200190815260200160002060009054906101000a900460ff1661128d576040517f08c379a00000000000000000000000000000000000000000000000000000000081526004018080602001828103825260168152602001807f4f6e6c792064617461206b65657065722076616c69640000000000000000000081525060200191505060405180910390fd5b60006112dc88888080601f016020809104026020016040519081016040528093929190818152602001838380828437600081840152601f19601f82011690508083019250505050505050612ccb565b9050600080600260009054906101000a900473ffffffffffffffffffffffffffffffffffffffff1673ffffffffffffffffffffffffffffffffffffffff166333eeb127846040518263ffffffff1660e01b815260040180828152602001915050604080518083038186803b15801561135357600080fd5b505afa158015611367573d6000803e3d6000fd5b505050506040513d604081101561137d57600080fd5b81019080805190602001909291908051906020019092919050505091509150866003600085815260200190815260200160002060010160006101000a81548160ff021916908315150217905550856003600085815260200190815260200160002060010160016101000a81548160ff021916908315150217905550846003600085815260200190815260200160002060020181905550600073ffffffffffffffffffffffffffffffffffffffff168273ffffffffffffffffffffffffffffffffffffffff16146115e1574281106114bc576040517f08c379a00000000000000000000000000000000000000000000000000000000081526004018080602001828103825260168152602001807f63616e27742074616b65207468697320646f6d61696e0000000000000000000081525060200191505060405180910390fd5b600260009054906101000a900473ffffffffffffffffffffffffffffffffffffffff1673ffffffffffffffffffffffffffffffffffffffff1663b9566b1084868b6040518463ffffffff1660e01b8152600401808481526020018373ffffffffffffffffffffffffffffffffffffffff1673ffffffffffffffffffffffffffffffffffffffff1681526020018281526020019350505050600060405180830381600087803b15801561156d57600080fd5b505af1158015611581573d6000803e3d6000fd5b505050507f5f1f69c34e8d0a761177db404b9251aa02b7c36644b2ed60610bde378f2b827d8388888860405180858152602001841515151581526020018315151515815260200182815260200194505050505060405180910390a1611754565b600260009054906101000a900473ffffffffffffffffffffffffffffffffffffffff1673ffffffffffffffffffffffffffffffffffffffff16634f9a1fbb84868b6040518463ffffffff1660e01b8152600401808481526020018373ffffffffffffffffffffffffffffffffffffffff1673ffffffffffffffffffffffffffffffffffffffff1681526020018281526020019350505050600060405180830381600087803b15801561169257600080fd5b505af11580156116a6573d6000803e3d6000fd5b5050505089896003600086815260200190815260200160002060000191906116cf929190612eee565b507f53fbe9a6fab0b200cc12105f9b2bcb0635a6f75da8260772e98fb2877e5d19458a8a898989604051808060200185151515158152602001841515151581526020018381526020018281038252878782818152602001925080828437600081840152601f19601f820116905080830192505050965050505050505060405180910390a15b50505050505050505050565b600080825114806117765750604060ff16825110155b1561178457600090506117d9565b60008090505b82518160ff1610156117d3576117b8838260ff16815181106117a857fe5b602001015160f81c60f81b612d46565b6117c65760009150506117d9565b808060010191505061178a565b50600190505b919050565b600260149054906101000a900460ff1681565b6000809054906101000a900473ffffffffffffffffffffffffffffffffffffffff1673ffffffffffffffffffffffffffffffffffffffff163373ffffffffffffffffffffffffffffffffffffffff16146118b3576040517f08c379a000000000000000000000000000000000000000000000000000000000815260040180806020018281038252600a8152602001807f61646d696e206f6e6c790000000000000000000000000000000000000000000081525060200191505060405180910390fd5b60018060008373ffffffffffffffffffffffffffffffffffffffff1673ffffffffffffffffffffffffffffffffffffffff16815260200190815260200160002060006101000a81548160ff02191690831515021790555050565b600260009054906101000a900473ffffffffffffffffffffffffffffffffffffffff1681565b6000806000600260009054906101000a900473ffffffffffffffffffffffffffffffffffffffff1673ffffffffffffffffffffffffffffffffffffffff166333eeb127856040518263ffffffff1660e01b815260040180828152602001915050604080518083038186803b1580156119aa57600080fd5b505afa1580156119be573d6000803e3d6000fd5b505050506040513d60408110156119d457600080fd5b810190808051906020019092919080519060200190929190505050915091508473ffffffffffffffffffffffffffffffffffffffff168273ffffffffffffffffffffffffffffffffffffffff16148015611a2d57504281115b9250505092915050565b6000611a4282612bb8565b15611b0557611afe600360008481526020019081526020016000206000018054600181600116156101000203166002900480601f016020809104026020016040519081016040528092919081815260200182805460018160011615610100020316600290048015611af45780601f10611ac957610100808354040283529160200191611af4565b820191906000526020600020905b815481529060010190602001808311611ad757829003601f168201915b5050505050611760565b9050611b0a565b600090505b919050565b6003602052806000526040600020600091509050806000018054600181600116156101000203166002900480601f016020809104026020016040519081016040528092919081815260200182805460018160011615610100020316600290048015611bbb5780601f10611b9057610100808354040283529160200191611bbb565b820191906000526020600020905b815481529060010190602001808311611b9e57829003601f168201915b5050505050908060010160009054906101000a900460ff16908060010160019054906101000a900460ff16908060020154905084565b6000809054906101000a900473ffffffffffffffffffffffffffffffffffffffff1673ffffffffffffffffffffffffffffffffffffffff163373ffffffffffffffffffffffffffffffffffffffff1614611cb3576040517f08c379a000000000000000000000000000000000000000000000000000000000815260040180806020018281038252600a8152602001807f61646d696e206f6e6c790000000000000000000000000000000000000000000081525060200191505060405180910390fd5b806000806101000a81548173ffffffffffffffffffffffffffffffffffffffff021916908373ffffffffffffffffffffffffffffffffffffffff16021790555050565b6000809054906101000a900473ffffffffffffffffffffffffffffffffffffffff1673ffffffffffffffffffffffffffffffffffffffff163373ffffffffffffffffffffffffffffffffffffffff1614611db8576040517f08c379a000000000000000000000000000000000000000000000000000000000815260040180806020018281038252600a8152602001807f61646d696e206f6e6c790000000000000000000000000000000000000000000081525060200191505060405180910390fd5b80600260146101000a81548160ff021916908360ff16021790555050565b600080611de283612bb8565b15611ea757611e9e600360008581526020019081526020016000206000018054600181600116156101000203166002900480601f016020809104026020016040519081016040528092919081815260200182805460018160011615610100020316600290048015611e945780601f10611e6957610100808354040283529160200191611e94565b820191906000526020600020905b815481529060010190602001808311611e7757829003601f168201915b50505050506123ed565b91509150611eaf565b600080915091505b915091565b3382600080600260009054906101000a900473ffffffffffffffffffffffffffffffffffffffff1673ffffffffffffffffffffffffffffffffffffffff166333eeb127846040518263ffffffff1660e01b815260040180828152602001915050604080518083038186803b158015611f2b57600080fd5b505afa158015611f3f573d6000803e3d6000fd5b505050506040513d6040811015611f5557600080fd5b810190808051906020019092919080519060200190929190505050915091508373ffffffffffffffffffffffffffffffffffffffff168273ffffffffffffffffffffffffffffffffffffffff16148015611fae57504281115b612020576040517f08c379a00000000000000000000000000000000000000000000000000000000081526004018080602001828103825260158152602001807f6f6e6c79206f776e657220697320696e76616c6964000000000000000000000081525060200191505060405180910390fd5b8415156003600088815260200190815260200160002060010160009054906101000a900460ff16151514156120bd576040517f08c379a000000000000000000000000000000000000000000000000000000000815260040180806020018281038252600f8152602001807f6e6f7468696e67206368616e676564000000000000000000000000000000000081525060200191505060405180910390fd5b846003600088815260200190815260200160002060010160006101000a81548160ff0219169083151502179055507ff5146b72ad99fa7f92a6cdc377e868f17e03c17b25b6dc8ba18a04cc349032b7868660405180838152602001821515151581526020019250505060405180910390a1505050505050565b600061214182612bb8565b61214e57600090506122e2565b6060600360008481526020019081526020016000206000018054600181600116156101000203166002900480601f0160208091040260200160405190810160405280929190818152602001828054600181600116156101000203166002900480156121fa5780601f106121cf576101008083540402835291602001916121fa565b820191906000526020600020905b8154815290600101906020018083116121dd57829003601f168201915b5050505050905060008090505b81518160ff1610156122db57600260149054906101000a900460ff1660ff168160ff161015806122755750602d60f81b828260ff168151811061224657fe5b602001015160f81c60f81b7effffffffffffffffffffffffffffffffffffffffffffffffffffffffffffff1916145b806122be5750605f60f81b828260ff168151811061228f57fe5b602001015160f81c60f81b7effffffffffffffffffffffffffffffffffffffffffffffffffffffffffffff1916145b156122ce576000925050506122e2565b8080600101915050612207565b5060019150505b919050565b6000809054906101000a900473ffffffffffffffffffffffffffffffffffffffff1673ffffffffffffffffffffffffffffffffffffffff163373ffffffffffffffffffffffffffffffffffffffff16146123a9576040517f08c379a000000000000000000000000000000000000000000000000000000000815260040180806020018281038252600a8152602001807f61646d696e206f6e6c790000000000000000000000000000000000000000000081525060200191505060405180910390fd5b80600260006101000a81548173ffffffffffffffffffffffffffffffffffffffff021916908373ffffffffffffffffffffffffffffffffffffffff16021790555050565b6000806000835114806124055750604060ff16835110155b15612416576000809150915061252e565b60006001905060008090505b84518160ff16101561252457612450858260ff168151811061244057fe5b602001015160f81c60f81b612d46565b6124625760008093509350505061252e565b811561251757600260149054906101000a900460ff1660ff168160ff161015806124ca5750602d60f81b858260ff168151811061249b57fe5b602001015160f81c60f81b7effffffffffffffffffffffffffffffffffffffffffffffffffffffffffffff1916145b806125135750605f60f81b858260ff16815181106124e457fe5b602001015160f81c60f81b7effffffffffffffffffffffffffffffffffffffffffffffffffffffffffffff1916145b1591505b8080600101915050612422565b5060018192509250505b915091565b600160003373ffffffffffffffffffffffffffffffffffffffff1673ffffffffffffffffffffffffffffffffffffffff16815260200190815260200160002060009054906101000a900460ff166125f2576040517f08c379a00000000000000000000000000000000000000000000000000000000081526004018080602001828103825260168152602001807f4f6e6c792064617461206b65657065722076616c69640000000000000000000081525060200191505060405180910390fd5b600073ffffffffffffffffffffffffffffffffffffffff16600260009054906101000a900473ffffffffffffffffffffffffffffffffffffffff1673ffffffffffffffffffffffffffffffffffffffff16637dd56411856040518263ffffffff1660e01b81526004018082815260200191505060206040518083038186803b15801561267d57600080fd5b505afa158015612691573d6000803e3d6000fd5b505050506040513d60208110156126a757600080fd5b810190808051906020019092919050505073ffffffffffffffffffffffffffffffffffffffff161415612742576040517f08c379a000000000000000000000000000000000000000000000000000000000815260040180806020018281038252600e8152602001807f6e6f207375636820646f6d61696e00000000000000000000000000000000000081525060200191505060405180910390fd5b80600260009054906101000a900473ffffffffffffffffffffffffffffffffffffffff1673ffffffffffffffffffffffffffffffffffffffff1663c3f7beda85856040518363ffffffff1660e01b81526004018083815260200182815260200192505050602060405180830381600087803b1580156127c057600080fd5b505af11580156127d4573d6000803e3d6000fd5b505050506040513d60208110156127ea57600080fd5b81019080805190602001909291905050501061286e576040517f08c379a00000000000000000000000000000000000000000000000000000000081526004018080602001828103825260188152602001807f63616e27742072656368617267652074686174206c6f6e67000000000000000081525060200191505060405180910390fd5b7f3f670b21e7f53b9af7748e542d2e97a11cb55a94c2bdc31088bd559e29aebe058383604051808381526020018281526020019250505060405180910390a1505050565b6000806000600260009054906101000a900473ffffffffffffffffffffffffffffffffffffffff1673ffffffffffffffffffffffffffffffffffffffff166333eeb127856040518263ffffffff1660e01b815260040180828152602001915050604080518083038186803b15801561292957600080fd5b505afa15801561293d573d6000803e3d6000fd5b505050506040513d604081101561295357600080fd5b81019080805190602001909291908051906020019092919050505091509150428110156129855760009250505061298b565b81925050505b919050565b3381600080600260009054906101000a900473ffffffffffffffffffffffffffffffffffffffff1673ffffffffffffffffffffffffffffffffffffffff166333eeb127846040518263ffffffff1660e01b815260040180828152602001915050604080518083038186803b158015612a0757600080fd5b505afa158015612a1b573d6000803e3d6000fd5b505050506040513d6040811015612a3157600080fd5b810190808051906020019092919080519060200190929190505050915091508373ffffffffffffffffffffffffffffffffffffffff168273ffffffffffffffffffffffffffffffffffffffff16148015612a8a57504281115b612afc576040517f08c379a00000000000000000000000000000000000000000000000000000000081526004018080602001828103825260158152602001807f6f6e6c79206f776e657220697320696e76616c6964000000000000000000000081525060200191505060405180910390fd5b60006003600087815260200190815260200160002060010160016101000a81548160ff02191690831515021790555060006003600087815260200190815260200160002060010160006101000a81548160ff0219169083151502179055507f9d69d040c7a40c8175a7fa6787a1dc4e249314e63f2cae7bc933f0b9ff55c610856040518082815260200191505060405180910390a15050505050565b60016020528060005260406000206000915054906101000a900460ff1681565b60008060036000848152602001908152602001600020600001805460018160011615610100020316600290049050119050919050565b6000809054906101000a900473ffffffffffffffffffffffffffffffffffffffff1681565b6060600360008381526020019081526020016000206000018054600181600116156101000203166002900480601f016020809104026020016040519081016040528092919081815260200182805460018160011615610100020316600290048015612cbf5780601f10612c9457610100808354040283529160200191612cbf565b820191906000526020600020905b815481529060010190602001808311612ca257829003601f168201915b50505050509050919050565b6000816040516020018082805190602001908083835b60208310612d045780518252602082019150602081019050602083039250612ce1565b6001836020036101000a038019825116818451168082178552505050505050905001915050604051602081830303815290604052805190602001209050919050565b6000603060f81b827effffffffffffffffffffffffffffffffffffffffffffffffffffffffffffff191610158015612da45750603960f81b827effffffffffffffffffffffffffffffffffffffffffffffffffffffffffffff191611155b80612e075750606160f81b827effffffffffffffffffffffffffffffffffffffffffffffffffffffffffffff191610158015612e065750607a60f81b827effffffffffffffffffffffffffffffffffffffffffffffffffffffffffffff191611155b5b80612e375750602d60f81b827effffffffffffffffffffffffffffffffffffffffffffffffffffffffffffff1916145b80612e675750605f60f81b827effffffffffffffffffffffffffffffffffffffffffffffffffffffffffffff1916145b9050919050565b828054600181600116156101000203166002900490600052602060002090601f016020900481019282601f10612eaf57805160ff1916838001178555612edd565b82800160010185558215612edd579182015b82811115612edc578251825591602001919060010190612ec1565b5b509050612eea9190612f6e565b5090565b828054600181600116156101000203166002900490600052602060002090601f016020900481019282601f10612f2f57803560ff1916838001178555612f5d565b82800160010185558215612f5d579182015b82811115612f5c578235825591602001919060010190612f41565b5b509050612f6a9190612f6e565b5090565b612f9091905b80821115612f8c576000816000905550600101612f74565b5090565b9056fea265627a7a72315820da1206785c917eee78beb0004220de0216fbd3d9d02d8c18d06f649aed73d48f64736f6c63430005100032",
  "source": "pragma solidity >=0.5.0;\n\nimport \"./BasOwnership.sol\";\n\n/*\n[INHERIT]\nthis contract just provides two functions\n*/\ncontract BasDomain is ManagedByContract, ManagedByOwner{\n    \n    uint8 constant MAX_DOMAIN_SEG_LEN   = 64;\n    \n    //[0~9, a~z, -, _]\n    function validChar(bytes1 c)\n    internal\n    pure\n    returns (bool) {\n        return\n        (c >= 0x30 && c <= 0x39) ||\n        (c >= 0x61 && c <= 0x7a) ||\n        c == 0x2d ||\n        c == 0x5f;\n    }\n    \n    function getValidOwner(bytes32 hash) \n                    external\n                    view \n                    returns (address){\n        \n        (address owner, uint expire) = ownership.ownerOfWithExpire(hash);\n        if (expire < now){\n            return address(0);\n        }\n        return owner;\n        \n    }\n    \n    function domainIsValid(address curOwner, \n                    bytes32 hash)\n                    external \n                    view \n                    returns (bool){\n        (address owner, uint expire) = ownership.ownerOfWithExpire(hash);\n        return owner == curOwner && expire > now;\n    }\n}\n\n/*\n[DEPLOYED]\nthis contract keeps root domain data\n*/\ncontract BasRootDomain is BasDomain {\n    using SafeMath for uint256;\n    \n    uint8 public RARE_LENGTH = 6; \n    \n    constructor(address _os) public{\n        ownership = BasExpiredOwnership(_os);\n    }\n    \n    struct RootItem {\n        bytes   rootName;\n        bool    openToPublic;\n        bool    isCustomed;\n        uint256 customedPrice;\n    }\n\n    event RootUpdate(bytes32 nameHash, \n                    bytes rootName, \n                    bool openToPublic,\n                    bool isCustomed, \n                    uint customedPrice);\n                    \n    event NewRootDomain(bytes rootName, \n                    bool openToPublic, \n                    bool isCustomed, \n                    uint customedPrice);\n                    \n    event RootDataReplced(bytes32 nameHash, \n                    bool openToPublic, \n                    bool isCustomed, \n                    uint customedPrice);\n    \n    event OpenCustomedPrice(bytes32 nameHash, \n                    uint customedPrice);\n    \n    event ClosedCustomedPrice(bytes32 nameHash);\n    event RootRecharged(bytes32, \n                        uint256 duration);\n    event RootPublicChagned(bytes32 nameHash,\n                            bool isOpen);\n    \n    mapping(bytes32 => RootItem) public Root;\n    \n    function changeRareLength(uint8 length)\n                    external\n                    OnlyDAO{\n                       RARE_LENGTH = length; \n    }\n    \n    function classifyRoot(bytes memory name)\n                    public\n                    view\n                    returns (bool, bool) {\n\n        if (name.length == 0 || name.length >= MAX_DOMAIN_SEG_LEN) {\n            return (false, false);\n        }\n\n        bool isRare = true;\n        for (uint8 i = 0; i < name.length; i++) {\n\n            if (!validChar(name[i])) {\n                return (false, false);\n            }\n\n            if (isRare) {\n                isRare = !(i >= RARE_LENGTH ||\n                name[i] == 0x2d ||\n                name[i] == 0x5f);\n            }\n        }\n\n        return (true, isRare);\n    }\n    \n    function classifyRoot(bytes32 nameHash)\n                    external\n                    view\n                    returns (bool, bool){\n            if (hasDomain(nameHash)){\n                return classifyRoot(Root[nameHash].rootName);\n            }else{\n                return (false,false);\n            }\n    }\n    \n    \n    /*\n    because we check by nameHash so we can skip validation\n    */\n    function isRare(bytes32 nameHash)\n                    external\n                    view\n                    returns (bool){\n            \n            if(!hasDomain(nameHash)){\n                return false;\n            }\n            bytes memory name = Root[nameHash].rootName;\n            for (uint8 i = 0; i < name.length; i++) {\n                if (i >= RARE_LENGTH ||\n                name[i] == 0x2d ||\n                name[i] == 0x5f){\n                    return false;\n                }\n            }\n            return true;\n    }\n    \n    function verifyRoot(bytes memory name)\n                    public\n                    pure\n                    returns (bool) {\n\n        if (name.length == 0 || name.length >= MAX_DOMAIN_SEG_LEN) {\n            return false;\n        }\n\n        for (uint8 i = 0; i < name.length; i++) {\n\n            if (!validChar(name[i])) {\n                return false;\n            }\n        }\n\n        return true;\n    }\n    \n    function verifyRoot(bytes32 nameHash)\n                    external\n                    view\n                    returns (bool){\n            if(hasDomain(nameHash)){\n                return verifyRoot(Root[nameHash].rootName);\n            }else{\n                return false;\n            }\n    }\n    \n    function hasDomain(bytes32 hash) \n                    public\n                    view \n                    returns (bool){\n        return Root[hash].rootName.length > 0;\n    }\n    function getNameByHash(bytes32 hash)\n                    external \n                    view \n                    returns (bytes memory){\n        return Root[hash].rootName;\n    }\n    \n    function updateByDaoProposal(bytes calldata rootName,\n                            bool openToPublic,\n                            bool isCustomed,\n                            uint256 customedPrice)\n                            external\n                            OnlyDAO {\n\n        bytes32 nameHash = BasHash.Hash(rootName);\n\n        Root[nameHash] = RootItem(\n            rootName,\n            openToPublic,\n            isCustomed,\n            customedPrice\n        );\n\n        emit RootUpdate(nameHash, rootName, openToPublic, isCustomed, customedPrice);\n    }\n    \n    /*\n    create a new item or takeover ownership of expired item\n    */\n    function replaceOrCreate(bytes calldata rootName,\n                        uint expire,\n                        bool openToPublic,\n                        bool isCustomed,\n                        uint256 customedPrice,\n                        address applicant)\n                        external\n                        OnlyDataKeeper {\n        \n        bytes32 nameHash = BasHash.Hash(rootName); \n        (address oldOwner, uint oldExpire) = ownership.ownerOfWithExpire(nameHash);\n        \n        Root[nameHash].openToPublic = openToPublic;\n        Root[nameHash].isCustomed = isCustomed;\n        Root[nameHash].customedPrice = customedPrice;\n        \n        if (oldOwner != address(0)){\n            require(oldExpire < now, \"can't take this domain\");\n            ownership.takeover(nameHash, applicant, expire);\n            \n            emit RootDataReplced(nameHash, openToPublic, isCustomed, customedPrice);\n            \n        }else{\n            ownership.newOwnership(nameHash, applicant, expire);\n            Root[nameHash].rootName = rootName;\n            \n            emit NewRootDomain(rootName, openToPublic, isCustomed, customedPrice);\n        }\n        \n    }\n    \n    /*\n    anyone can recharge a domain\n    if domain is expired, charged time will be added to now\n    if domain is not expired, charged time will be added to expiration time\n    after addition, the expiration from now should be less than 5 years\n    */\n    function recharge(bytes32 nameHash, \n                uint rechargeTime, \n                uint maxEnd)\n                external \n                OnlyDataKeeper{\n\n        require(ownership.ownerOf(nameHash) != address(0), \"no such domain\");\n        require(ownership.extendTime(nameHash, rechargeTime) < maxEnd, \"can't recharge that long\");\n        \n        emit RootRecharged(nameHash, rechargeTime);\n    }\n\n    /*\n    this function is called by OANN because open customed price costs BAS\n    but the ownership is checked here, operator is surposed to be tx.origin\n    */\n    function openCustomedPrice(bytes32 nameHash,\n                        uint customedPrice,\n                        address operator)\n                        external\n                        OnlyOwner(operator, nameHash)\n                        OnlyDataKeeper{\n        \n        Root[nameHash].isCustomed = true;\n        Root[nameHash].openToPublic = true;\n        Root[nameHash].customedPrice = customedPrice;\n        \n        emit OpenCustomedPrice(nameHash, customedPrice);\n    }\n\n    /*\n    called by user\n    */\n    function closeCustomedPrice(bytes32 nameHash)\n                            external\n                            OnlyOwner(msg.sender, nameHash) {\n            \n        Root[nameHash].isCustomed = false;\n        Root[nameHash].openToPublic = false;\n        \n        emit ClosedCustomedPrice(nameHash);\n    }\n\n    function setPublic(bytes32 nameHash,\n                    bool isOpen) \n                    external \n                    OnlyOwner(msg.sender,nameHash) {\n        \n        require(Root[nameHash].openToPublic != isOpen, \"nothing changed\");\n        Root[nameHash].openToPublic = isOpen;\n        \n        emit RootPublicChagned(nameHash, isOpen);\n    }\n    \n}\n\n/*\n[DEPLOYED]\nthis contract keeps sub domain data\n*/\ncontract BasSubDomain is BasDomain{\n    using SafeMath for uint256;\n    \n    uint16 constant MAX_SUB_DOMAIN_LEN  = 192;\n    \n    bytes1 constant DOT_CHAR_VAL        = 0x2e;\n    \n    constructor(address _os) public{\n        ownership = BasExpiredOwnership(_os);\n    }\n    \n    struct SubItem {\n        bytes   totalName;\n        bytes32 rootHash;\n    }\n    \n    event SubUpdate(bytes32 nameHash,\n                    bytes totalName,\n                    bytes32 rootHash);\n    \n    event NewSubDomain(bytes32 nameHash,\n                    bytes totalName,\n                    bytes32 rootHash);\n\n    event SubDataReplaced(bytes32 nameHash);\n    event SubRecharged(bytes32 nameHash,\n                      uint256 duration);\n    \n    \n    mapping(bytes32 => SubItem) public Sub;\n    \n    function verifySub(bytes memory name)\n                    public\n                    pure\n                    returns (bool) {\n\n        if (name.length >= MAX_SUB_DOMAIN_LEN){\n            return false;\n        }\n\n        if (name[0] == DOT_CHAR_VAL || name[name.length-1] == DOT_CHAR_VAL){\n            return false;\n        }\n\n        uint256 segementLength = 0;\n\n        for (uint256 i = 0; i < name.length; i++) {\n\n            bytes1 char = name[i];\n            if (!validChar(char) && char != DOT_CHAR_VAL){\n                return false;\n            }\n\n            if (char == DOT_CHAR_VAL){\n                if (segementLength == 0){\n                    return false;\n                }\n\n                segementLength = 0;\n                continue;\n            }\n\n            segementLength += 1;\n            if (segementLength >= MAX_DOMAIN_SEG_LEN){\n                return false;\n            }\n        }\n\n        return true;\n    }\n  \n    function hasDomain(bytes32 hash) \n                external \n                view \n                returns (bool){\n        return Sub[hash].totalName.length > 0;\n    }\n    \n    function getNameByHash(bytes32 hash) \n                external \n                view \n                returns (bytes memory){\n        return Sub[hash].totalName;\n    } \n    \n    function replaceOrCreate(bytes calldata subdomain,\n                    bytes32 rootHash,\n                    uint newExpire,\n                    address applicant)\n                    external\n                    OnlyDataKeeper{\n        \n        bytes32 subHash = BasHash.Hash(subdomain);\n        \n        (address owner, uint expire) = ownership.ownerOfWithExpire(subHash);\n        require(owner == address(0) || expire < now, \"the subdomain is still under other's control\");\n        \n        if (owner != address(0)) {\n            ownership.takeover(subHash, applicant, newExpire);\n            emit SubDataReplaced(subHash);\n        } else {\n            ownership.newOwnership(subHash, applicant, newExpire);\n            Sub[subHash] = SubItem(subdomain, rootHash);\n            emit NewSubDomain(subHash, subdomain, rootHash);\n        }\n    }\n    \n    function updateByDaoProposal(bytes calldata totalName,\n                        bytes32 rootHash)\n                        external\n                        OnlyDAO{\n\n        bytes32 nameHash = BasHash.Hash(totalName);\n        Sub[nameHash] = SubItem(totalName, rootHash);\n        emit SubUpdate(nameHash,totalName,rootHash);\n    }\n    \n    function recharge(bytes32 nameHash, \n                uint rechargeTime, \n                uint maxEnd)\n                external \n                OnlyDataKeeper{\n                    \n        BasExpiredOwnership _os = BasExpiredOwnership(ownership);\n        \n        (address owner, uint256 expire) = _os.ownerOfWithExpire(nameHash);\n        require(owner != address(0), \"no such domain\");\n        require(expire.add(rechargeTime) < maxEnd, \"can't recharge that long\");\n        \n        _os.extendTime(nameHash, rechargeTime);\n    }\n}\n\n/*\n[DEPLOYED]\nthis contract is used for DNS server, email server etc\n*/\ncontract BasDomainConf is ManagedByOwner{\n    \n    event DomainConfChanged(bytes32, uint8, bytes);\n    event DomainConfRemoved(bytes32, uint8);\n    event DomainConfClear(bytes32);\n    event DomainConfDictionChanged(uint8, string);\n    \n    uint8 public MaxTypeID;\n    mapping(uint8 => string) public TypDiction;\n    mapping(bytes32 => mapping(uint8 => bytes)) public domainConfData;\n    \n    constructor(address _os) public {\n        TypDiction[0] = \"A\";\n        TypDiction[1] = \"AAAA\";\n        TypDiction[2] = \"MX\";\n        TypDiction[3] = \"BlockChain\";\n        TypDiction[4] = \"IOTA\";\n        TypDiction[5] = \"Optional\";\n        TypDiction[6] = \"CName\";\n        TypDiction[7] = \"MXBCA\";\n        MaxTypeID = 7;\n        \n        ownership = BasExpiredOwnership(_os);\n    }\n    \n    modifier ValidDicIndex(uint8 idx){\n        require(idx <= MaxTypeID, \"no such item\");\n        _;\n    }\n    \n    function updateTypeDiction(uint8 typ, \n                    string calldata typName)\n                    external\n                    OnlyDAO{\n        TypDiction[typ] = typName;\n        if (typ > MaxTypeID){\n            MaxTypeID = typ;\n        }\n        \n        emit DomainConfDictionChanged(typ, typName);\n    }\n\n    function updateByDaoProposal(bytes32 nameHash,\n                                uint8 typ,\n                                bytes calldata data)\n                                external\n                                OnlyDAO{\n                                    \n        domainConfData[nameHash][typ] = data;\n        emit DomainConfChanged(nameHash, typ, data);\n    }\n\n    //support multiple ipv4 data, joined by \",\" \n    function updateByOwner(bytes32 nameHash,\n                        uint8 typ,\n                        bytes calldata data)\n                        external\n                        ValidDicIndex(typ)\n                        OnlyOwner(msg.sender, nameHash){\n\n        domainConfData[nameHash][typ] = data;\n        emit DomainConfChanged(nameHash, typ, data);\n    }\n\n    function query(bytes32 nameHash, \n                uint8 typ)\n                external\n                view\n                returns (bytes memory bca) {\n                    \n        return domainConfData[nameHash][typ];\n    }\n\n    function removeRecord(bytes32 nameHash,\n                        uint8 typ)\n                        external\n                        OnlyOwner(msg.sender, nameHash){\n\n        delete domainConfData[nameHash][typ];\n        emit DomainConfRemoved(nameHash, typ);\n    }\n\n    function clearRecord(bytes32 nameHash)\n                        external\n                        OnlyOwner(msg.sender, nameHash){\n                            \n        for (uint8 idx = 0; idx <= MaxTypeID; idx++){\n            delete domainConfData[nameHash][idx];\n        }\n        \n        emit DomainConfClear(nameHash);\n    }\n}",
  "sourcePath": "/Users/mini2/workspace/truffle suite/BasChain/truffle_smart_contracts/contracts/BasDomain.sol",
  "compiler": {
    "name": "solc",
    "version": "0.5.16+commit.9c3226ce.Emscripten.clang"
  },
  "schemaVersion": "3.0.23",
  "updatedAt": "2020-04-29T08:50:58.333Z",
  "networkType": "ethereum",
  "devdoc": {
    "methods": {}
  },
  "userdoc": {
    "methods": {}
  }
}