{
  "contractName": "BasTradableOwnership",
  "abi": [
    {
      "inputs": [
        {
          "internalType": "string",
          "name": "label",
          "type": "string"
        }
      ],
      "payable": false,
      "stateMutability": "nonpayable",
      "type": "constructor"
    },
    {
      "anonymous": false,
      "inputs": [
        {
          "indexed": false,
          "internalType": "bytes32",
          "name": "nameHash",
          "type": "bytes32"
        },
        {
          "indexed": false,
          "internalType": "address",
          "name": "owner",
          "type": "address"
        }
      ],
      "name": "Add",
      "type": "event"
    },
    {
      "anonymous": false,
      "inputs": [
        {
          "indexed": false,
          "internalType": "address",
          "name": "from",
          "type": "address"
        },
        {
          "indexed": false,
          "internalType": "address",
          "name": "to",
          "type": "address"
        },
        {
          "indexed": false,
          "internalType": "bytes32",
          "name": "nameHash",
          "type": "bytes32"
        }
      ],
      "name": "Approval",
      "type": "event"
    },
    {
      "anonymous": false,
      "inputs": [
        {
          "indexed": false,
          "internalType": "bytes32",
          "name": "nameHash",
          "type": "bytes32"
        },
        {
          "indexed": false,
          "internalType": "uint256",
          "name": "time",
          "type": "uint256"
        }
      ],
      "name": "Extend",
      "type": "event"
    },
    {
      "anonymous": false,
      "inputs": [
        {
          "indexed": false,
          "internalType": "address",
          "name": "from",
          "type": "address"
        },
        {
          "indexed": false,
          "internalType": "bytes32",
          "name": "nameHash",
          "type": "bytes32"
        }
      ],
      "name": "Revoke",
      "type": "event"
    },
    {
      "anonymous": false,
      "inputs": [
        {
          "indexed": false,
          "internalType": "bytes32",
          "name": "nameHash",
          "type": "bytes32"
        },
        {
          "indexed": false,
          "internalType": "address",
          "name": "from",
          "type": "address"
        },
        {
          "indexed": false,
          "internalType": "address",
          "name": "to",
          "type": "address"
        }
      ],
      "name": "Takeover",
      "type": "event"
    },
    {
      "anonymous": false,
      "inputs": [
        {
          "indexed": false,
          "internalType": "bytes32",
          "name": "nameHash",
          "type": "bytes32"
        },
        {
          "indexed": false,
          "internalType": "address",
          "name": "from",
          "type": "address"
        },
        {
          "indexed": false,
          "internalType": "address",
          "name": "to",
          "type": "address"
        }
      ],
      "name": "Transfer",
      "type": "event"
    },
    {
      "anonymous": false,
      "inputs": [
        {
          "indexed": false,
          "internalType": "bytes32",
          "name": "nameHash",
          "type": "bytes32"
        },
        {
          "indexed": false,
          "internalType": "address",
          "name": "from",
          "type": "address"
        },
        {
          "indexed": false,
          "internalType": "address",
          "name": "to",
          "type": "address"
        },
        {
          "indexed": false,
          "internalType": "address",
          "name": "by",
          "type": "address"
        }
      ],
      "name": "TransferFrom",
      "type": "event"
    },
    {
      "anonymous": false,
      "inputs": [
        {
          "indexed": false,
          "internalType": "bytes32",
          "name": "nameHash",
          "type": "bytes32"
        },
        {
          "indexed": false,
          "internalType": "address",
          "name": "owner",
          "type": "address"
        }
      ],
      "name": "Update",
      "type": "event"
    },
    {
      "constant": false,
      "inputs": [
        {
          "internalType": "address",
          "name": "newDao",
          "type": "address"
        }
      ],
      "name": "ChangeDAO",
      "outputs": [],
      "payable": false,
      "stateMutability": "nonpayable",
      "type": "function"
    },
    {
      "constant": true,
      "inputs": [],
      "name": "DAOAddress",
      "outputs": [
        {
          "internalType": "address",
          "name": "",
          "type": "address"
        }
      ],
      "payable": false,
      "stateMutability": "view",
      "type": "function"
    },
    {
      "constant": true,
      "inputs": [],
      "name": "OwnerShipLabel",
      "outputs": [
        {
          "internalType": "string",
          "name": "",
          "type": "string"
        }
      ],
      "payable": false,
      "stateMutability": "view",
      "type": "function"
    },
    {
      "constant": false,
      "inputs": [
        {
          "internalType": "address",
          "name": "_addr",
          "type": "address"
        }
      ],
      "name": "addDataKeeper",
      "outputs": [],
      "payable": false,
      "stateMutability": "nonpayable",
      "type": "function"
    },
    {
      "constant": true,
      "inputs": [],
      "name": "assetsCountsOf",
      "outputs": [
        {
          "internalType": "uint256",
          "name": "",
          "type": "uint256"
        }
      ],
      "payable": false,
      "stateMutability": "view",
      "type": "function"
    },
    {
      "constant": true,
      "inputs": [
        {
          "internalType": "uint256",
          "name": "start",
          "type": "uint256"
        },
        {
          "internalType": "uint256",
          "name": "end",
          "type": "uint256"
        }
      ],
      "name": "assetsOf",
      "outputs": [
        {
          "internalType": "bytes32[]",
          "name": "",
          "type": "bytes32[]"
        }
      ],
      "payable": false,
      "stateMutability": "view",
      "type": "function"
    },
    {
      "constant": true,
      "inputs": [
        {
          "internalType": "address",
          "name": "",
          "type": "address"
        }
      ],
      "name": "dataKeeper",
      "outputs": [
        {
          "internalType": "bool",
          "name": "",
          "type": "bool"
        }
      ],
      "payable": false,
      "stateMutability": "view",
      "type": "function"
    },
    {
      "constant": false,
      "inputs": [
        {
          "internalType": "bytes32",
          "name": "nameHash",
          "type": "bytes32"
        },
        {
          "internalType": "uint256",
          "name": "extend",
          "type": "uint256"
        }
      ],
      "name": "extendTime",
      "outputs": [
        {
          "internalType": "uint256",
          "name": "",
          "type": "uint256"
        }
      ],
      "payable": false,
      "stateMutability": "nonpayable",
      "type": "function"
    },
    {
      "constant": false,
      "inputs": [
        {
          "internalType": "bytes32",
          "name": "nameHash",
          "type": "bytes32"
        },
        {
          "internalType": "address",
          "name": "owner",
          "type": "address"
        },
        {
          "internalType": "uint256",
          "name": "expire",
          "type": "uint256"
        }
      ],
      "name": "newOwnership",
      "outputs": [],
      "payable": false,
      "stateMutability": "nonpayable",
      "type": "function"
    },
    {
      "constant": true,
      "inputs": [
        {
          "internalType": "bytes32",
          "name": "nameHash",
          "type": "bytes32"
        }
      ],
      "name": "ownerOf",
      "outputs": [
        {
          "internalType": "address",
          "name": "",
          "type": "address"
        }
      ],
      "payable": false,
      "stateMutability": "view",
      "type": "function"
    },
    {
      "constant": true,
      "inputs": [
        {
          "internalType": "bytes32",
          "name": "nameHash",
          "type": "bytes32"
        }
      ],
      "name": "ownerOfWithExpire",
      "outputs": [
        {
          "internalType": "address",
          "name": "",
          "type": "address"
        },
        {
          "internalType": "uint256",
          "name": "",
          "type": "uint256"
        }
      ],
      "payable": false,
      "stateMutability": "view",
      "type": "function"
    },
    {
      "constant": false,
      "inputs": [
        {
          "internalType": "address",
          "name": "_ok",
          "type": "address"
        }
      ],
      "name": "removeDataKeeper",
      "outputs": [],
      "payable": false,
      "stateMutability": "nonpayable",
      "type": "function"
    },
    {
      "constant": false,
      "inputs": [
        {
          "internalType": "bytes32",
          "name": "nameHash",
          "type": "bytes32"
        },
        {
          "internalType": "address",
          "name": "owner",
          "type": "address"
        },
        {
          "internalType": "uint256",
          "name": "expire",
          "type": "uint256"
        }
      ],
      "name": "takeover",
      "outputs": [],
      "payable": false,
      "stateMutability": "nonpayable",
      "type": "function"
    },
    {
      "constant": false,
      "inputs": [
        {
          "internalType": "bytes32",
          "name": "nameHash",
          "type": "bytes32"
        },
        {
          "internalType": "address",
          "name": "owner",
          "type": "address"
        },
        {
          "internalType": "uint256",
          "name": "expire",
          "type": "uint256"
        }
      ],
      "name": "updateByDaoProposal",
      "outputs": [],
      "payable": false,
      "stateMutability": "nonpayable",
      "type": "function"
    },
    {
      "constant": false,
      "inputs": [
        {
          "internalType": "bytes32",
          "name": "nameHash",
          "type": "bytes32"
        },
        {
          "internalType": "address",
          "name": "to",
          "type": "address"
        }
      ],
      "name": "transfer",
      "outputs": [],
      "payable": false,
      "stateMutability": "nonpayable",
      "type": "function"
    },
    {
      "constant": false,
      "inputs": [
        {
          "internalType": "bytes32",
          "name": "nameHash",
          "type": "bytes32"
        },
        {
          "internalType": "address",
          "name": "spender",
          "type": "address"
        }
      ],
      "name": "approve",
      "outputs": [],
      "payable": false,
      "stateMutability": "nonpayable",
      "type": "function"
    },
    {
      "constant": true,
      "inputs": [
        {
          "internalType": "address",
          "name": "owner",
          "type": "address"
        },
        {
          "internalType": "bytes32",
          "name": "nameHash",
          "type": "bytes32"
        }
      ],
      "name": "allowance",
      "outputs": [
        {
          "internalType": "address",
          "name": "",
          "type": "address"
        }
      ],
      "payable": false,
      "stateMutability": "view",
      "type": "function"
    },
    {
      "constant": false,
      "inputs": [
        {
          "internalType": "bytes32",
          "name": "nameHash",
          "type": "bytes32"
        }
      ],
      "name": "revoke",
      "outputs": [],
      "payable": false,
      "stateMutability": "nonpayable",
      "type": "function"
    },
    {
      "constant": false,
      "inputs": [
        {
          "internalType": "bytes32",
          "name": "nameHash",
          "type": "bytes32"
        },
        {
          "internalType": "address",
          "name": "from",
          "type": "address"
        },
        {
          "internalType": "address",
          "name": "to",
          "type": "address"
        }
      ],
      "name": "transferFrom",
      "outputs": [],
      "payable": false,
      "stateMutability": "nonpayable",
      "type": "function"
    }
  ],
  "bytecode": "0x60806040523480156200001157600080fd5b5060405162002afc38038062002afc833981810160405260208110156200003757600080fd5b81019080805160405193929190846401000000008211156200005857600080fd5b838201915060208201858111156200006f57600080fd5b82518660018202830111640100000000821117156200008d57600080fd5b8083526020830192505050908051906020019080838360005b83811015620000c3578082015181840152602081019050620000a6565b50505050905090810190601f168015620000f15780820380516001836020036101000a031916815260200191505b5060405250505080336000806101000a81548173ffffffffffffffffffffffffffffffffffffffff021916908373ffffffffffffffffffffffffffffffffffffffff1602179055508060029080519060200190620001519291906200015a565b50505062000209565b828054600181600116156101000203166002900490600052602060002090601f016020900481019282601f106200019d57805160ff1916838001178555620001ce565b82800160010185558215620001ce579182015b82811115620001cd578251825591602001919060010190620001b0565b5b509050620001dd9190620001e1565b5090565b6200020691905b8082111562000202576000816000905550600101620001e8565b5090565b90565b6128e380620002196000396000f3fe608060405234801561001057600080fd5b50600436106101215760003560e01c80638a42876b116100ad578063bcf9fcad11610071578063bcf9fcad146105b6578063c3f7beda14610644578063c7bd220214610690578063d2a03b51146106ec578063d392eab11461077957610121565b80638a42876b1461041b578063b057c6a31461045f578063b2e2c99b146104e2578063b75c7dc614610530578063b9566b101461055e57610121565b80635c290250116100f45780635c2902501461028f57806379ce9fac146102d35780637dd564111461032157806382d7bd271461038f5780638549ddd1146103fd57610121565b806318eb3a50146101265780631e8869691461017e57806333eeb127146101c25780634f9a1fbb14610237575b600080fd5b61017c6004803603606081101561013c57600080fd5b8101908080359060200190929190803573ffffffffffffffffffffffffffffffffffffffff169060200190929190803590602001909291905050506107c3565b005b6101c06004803603602081101561019457600080fd5b81019080803573ffffffffffffffffffffffffffffffffffffffff1690602001909291905050506109e5565b005b6101ee600480360360208110156101d857600080fd5b8101908080359060200190929190505050610af9565b604051808373ffffffffffffffffffffffffffffffffffffffff1673ffffffffffffffffffffffffffffffffffffffff1681526020018281526020019250505060405180910390f35b61028d6004803603606081101561024d57600080fd5b8101908080359060200190929190803573ffffffffffffffffffffffffffffffffffffffff16906020019092919080359060200190929190505050610b98565b005b6102d1600480360360208110156102a557600080fd5b81019080803573ffffffffffffffffffffffffffffffffffffffff169060200190929190505050610ee9565b005b61031f600480360360408110156102e957600080fd5b8101908080359060200190929190803573ffffffffffffffffffffffffffffffffffffffff169060200190929190505050611005565b005b61034d6004803603602081101561033757600080fd5b81019080803590602001909291905050506112e9565b604051808273ffffffffffffffffffffffffffffffffffffffff1673ffffffffffffffffffffffffffffffffffffffff16815260200191505060405180910390f35b6103fb600480360360608110156103a557600080fd5b8101908080359060200190929190803573ffffffffffffffffffffffffffffffffffffffff169060200190929190803573ffffffffffffffffffffffffffffffffffffffff169060200190929190505050611329565b005b6104056116f5565b6040518082815260200191505060405180910390f35b61045d6004803603602081101561043157600080fd5b81019080803573ffffffffffffffffffffffffffffffffffffffff169060200190929190505050611743565b005b610467611848565b6040518080602001828103825283818151815260200191508051906020019080838360005b838110156104a757808201518184015260208101905061048c565b50505050905090810190601f1680156104d45780820380516001836020036101000a031916815260200191505b509250505060405180910390f35b61052e600480360360408110156104f857600080fd5b8101908080359060200190929190803573ffffffffffffffffffffffffffffffffffffffff1690602001909291905050506118e6565b005b61055c6004803603602081101561054657600080fd5b8101908080359060200190929190505050611b57565b005b6105b46004803603606081101561057457600080fd5b8101908080359060200190929190803573ffffffffffffffffffffffffffffffffffffffff16906020019092919080359060200190929190505050611d77565b005b610602600480360360408110156105cc57600080fd5b81019080803573ffffffffffffffffffffffffffffffffffffffff169060200190929190803590602001909291905050506120f2565b604051808273ffffffffffffffffffffffffffffffffffffffff1673ffffffffffffffffffffffffffffffffffffffff16815260200191505060405180910390f35b61067a6004803603604081101561065a57600080fd5b81019080803590602001909291908035906020019092919050505061216d565b6040518082815260200191505060405180910390f35b6106d2600480360360208110156106a657600080fd5b81019080803573ffffffffffffffffffffffffffffffffffffffff1690602001909291905050506123b9565b604051808215151515815260200191505060405180910390f35b6107226004803603604081101561070257600080fd5b8101908080359060200190929190803590602001909291905050506123d9565b6040518080602001828103825283818151815260200191508051906020019060200280838360005b8381101561076557808201518184015260208101905061074a565b505050509050019250505060405180910390f35b610781612436565b604051808273ffffffffffffffffffffffffffffffffffffffff1673ffffffffffffffffffffffffffffffffffffffff16815260200191505060405180910390f35b6000809054906101000a900473ffffffffffffffffffffffffffffffffffffffff1673ffffffffffffffffffffffffffffffffffffffff163373ffffffffffffffffffffffffffffffffffffffff1614610885576040517f08c379a000000000000000000000000000000000000000000000000000000000815260040180806020018281038252600a8152602001807f61646d696e206f6e6c790000000000000000000000000000000000000000000081525060200191505060405180910390fd5b60006003600085815260200190815260200160002090508273ffffffffffffffffffffffffffffffffffffffff168160000160009054906101000a900473ffffffffffffffffffffffffffffffffffffffff1673ffffffffffffffffffffffffffffffffffffffff1614156108f957600080fd5b610928838260000160009054906101000a900473ffffffffffffffffffffffffffffffffffffffff168661245b565b828160000160006101000a81548173ffffffffffffffffffffffffffffffffffffffff021916908373ffffffffffffffffffffffffffffffffffffffff1602179055508181600101819055507fb2b848c23b147f2d3c11308c74cb0ff81a30b54628e5c73c4d70bf623eb98f728484604051808381526020018273ffffffffffffffffffffffffffffffffffffffff1673ffffffffffffffffffffffffffffffffffffffff1681526020019250505060405180910390a150505050565b6000809054906101000a900473ffffffffffffffffffffffffffffffffffffffff1673ffffffffffffffffffffffffffffffffffffffff163373ffffffffffffffffffffffffffffffffffffffff1614610aa7576040517f08c379a000000000000000000000000000000000000000000000000000000000815260040180806020018281038252600a8152602001807f61646d696e206f6e6c790000000000000000000000000000000000000000000081525060200191505060405180910390fd5b600160008273ffffffffffffffffffffffffffffffffffffffff1673ffffffffffffffffffffffffffffffffffffffff16815260200190815260200160002060006101000a81549060ff021916905550565b600080610b0461287e565b600360008581526020019081526020016000206040518060400160405290816000820160009054906101000a900473ffffffffffffffffffffffffffffffffffffffff1673ffffffffffffffffffffffffffffffffffffffff1673ffffffffffffffffffffffffffffffffffffffff1681526020016001820154815250509050806000015181602001519250925050915091565b600160003373ffffffffffffffffffffffffffffffffffffffff1673ffffffffffffffffffffffffffffffffffffffff16815260200190815260200160002060009054906101000a900460ff16610c57576040517f08c379a00000000000000000000000000000000000000000000000000000000081526004018080602001828103825260168152602001807f4f6e6c792064617461206b65657065722076616c69640000000000000000000081525060200191505060405180910390fd5b82610c6061287e565b600360008381526020019081526020016000206040518060400160405290816000820160009054906101000a900473ffffffffffffffffffffffffffffffffffffffff1673ffffffffffffffffffffffffffffffffffffffff1673ffffffffffffffffffffffffffffffffffffffff1681526020016001820154815250509050600073ffffffffffffffffffffffffffffffffffffffff16816000015173ffffffffffffffffffffffffffffffffffffffff161480610d225750428160200151105b610d94576040517f08c379a00000000000000000000000000000000000000000000000000000000081526004018080602001828103825260098152602001807f6e6f742076616c6964000000000000000000000000000000000000000000000081525060200191505060405180910390fd5b60405180604001604052808573ffffffffffffffffffffffffffffffffffffffff168152602001848152506003600087815260200190815260200160002060008201518160000160006101000a81548173ffffffffffffffffffffffffffffffffffffffff021916908373ffffffffffffffffffffffffffffffffffffffff16021790555060208201518160010155905050610e7785600460008773ffffffffffffffffffffffffffffffffffffffff1673ffffffffffffffffffffffffffffffffffffffff16815260200190815260200160002061250290919063ffffffff16565b7f5f17f6377b8024fbe396282bbccde46c3c704613385bd2f4b4b3ff955fd56a358585604051808381526020018273ffffffffffffffffffffffffffffffffffffffff1673ffffffffffffffffffffffffffffffffffffffff1681526020019250505060405180910390a15050505050565b6000809054906101000a900473ffffffffffffffffffffffffffffffffffffffff1673ffffffffffffffffffffffffffffffffffffffff163373ffffffffffffffffffffffffffffffffffffffff1614610fab576040517f08c379a000000000000000000000000000000000000000000000000000000000815260040180806020018281038252600a8152602001807f61646d696e206f6e6c790000000000000000000000000000000000000000000081525060200191505060405180910390fd5b60018060008373ffffffffffffffffffffffffffffffffffffffff1673ffffffffffffffffffffffffffffffffffffffff16815260200190815260200160002060006101000a81548160ff02191690831515021790555050565b8161100e61287e565b600360008381526020019081526020016000206040518060400160405290816000820160009054906101000a900473ffffffffffffffffffffffffffffffffffffffff1673ffffffffffffffffffffffffffffffffffffffff1673ffffffffffffffffffffffffffffffffffffffff16815260200160018201548152505090503373ffffffffffffffffffffffffffffffffffffffff16816000015173ffffffffffffffffffffffffffffffffffffffff161480156110d05750428160200151115b611142576040517f08c379a000000000000000000000000000000000000000000000000000000000815260040180806020018281038252600a8152602001807f6f776e6572206f6e6c790000000000000000000000000000000000000000000081525060200191505060405180910390fd5b8273ffffffffffffffffffffffffffffffffffffffff163373ffffffffffffffffffffffffffffffffffffffff1614156111e4576040517f08c379a00000000000000000000000000000000000000000000000000000000081526004018080602001828103825260108152602001807f7472616e7366657220746f2073656c660000000000000000000000000000000081525060200191505060405180910390fd5b826003600086815260200190815260200160002060000160006101000a81548173ffffffffffffffffffffffffffffffffffffffff021916908373ffffffffffffffffffffffffffffffffffffffff16021790555061124433848661245b565b7f57972c0bcb114a9f52d3501767c95a65e93901ff48da6677c7399b5593b4e999843385604051808481526020018373ffffffffffffffffffffffffffffffffffffffff1673ffffffffffffffffffffffffffffffffffffffff1681526020018273ffffffffffffffffffffffffffffffffffffffff1673ffffffffffffffffffffffffffffffffffffffff168152602001935050505060405180910390a150505050565b60006003600083815260200190815260200160002060000160009054906101000a900473ffffffffffffffffffffffffffffffffffffffff169050919050565b8173ffffffffffffffffffffffffffffffffffffffff166003600085815260200190815260200160002060000160009054906101000a900473ffffffffffffffffffffffffffffffffffffffff1673ffffffffffffffffffffffffffffffffffffffff161461139757600080fd5b3373ffffffffffffffffffffffffffffffffffffffff16600560008473ffffffffffffffffffffffffffffffffffffffff1673ffffffffffffffffffffffffffffffffffffffff168152602001908152602001600020600085815260200190815260200160002060009054906101000a900473ffffffffffffffffffffffffffffffffffffffff1673ffffffffffffffffffffffffffffffffffffffff16146114a8576040517f08c379a000000000000000000000000000000000000000000000000000000000815260040180806020018281038252600b8152602001807f6e6f7420616c6c6f77656400000000000000000000000000000000000000000081525060200191505060405180910390fd5b8073ffffffffffffffffffffffffffffffffffffffff168273ffffffffffffffffffffffffffffffffffffffff16141561154a576040517f08c379a00000000000000000000000000000000000000000000000000000000081526004018080602001828103825260108152602001807f7472616e7366657220746f2073656c660000000000000000000000000000000081525060200191505060405180910390fd5b600560008373ffffffffffffffffffffffffffffffffffffffff1673ffffffffffffffffffffffffffffffffffffffff168152602001908152602001600020600084815260200190815260200160002060006101000a81549073ffffffffffffffffffffffffffffffffffffffff0219169055806003600085815260200190815260200160002060000160006101000a81548173ffffffffffffffffffffffffffffffffffffffff021916908373ffffffffffffffffffffffffffffffffffffffff16021790555061161d82828561245b565b7f3f8c833a27e9521421e46d68c5a31e603cc465fc4bbff2226b98d964252ebb3f83838333604051808581526020018473ffffffffffffffffffffffffffffffffffffffff1673ffffffffffffffffffffffffffffffffffffffff1681526020018373ffffffffffffffffffffffffffffffffffffffff1673ffffffffffffffffffffffffffffffffffffffff1681526020018273ffffffffffffffffffffffffffffffffffffffff1673ffffffffffffffffffffffffffffffffffffffff16815260200194505050505060405180910390a1505050565b600061173e600460003373ffffffffffffffffffffffffffffffffffffffff1673ffffffffffffffffffffffffffffffffffffffff1681526020019081526020016000206125e5565b905090565b6000809054906101000a900473ffffffffffffffffffffffffffffffffffffffff1673ffffffffffffffffffffffffffffffffffffffff163373ffffffffffffffffffffffffffffffffffffffff1614611805576040517f08c379a000000000000000000000000000000000000000000000000000000000815260040180806020018281038252600a8152602001807f61646d696e206f6e6c790000000000000000000000000000000000000000000081525060200191505060405180910390fd5b806000806101000a81548173ffffffffffffffffffffffffffffffffffffffff021916908373ffffffffffffffffffffffffffffffffffffffff16021790555050565b60028054600181600116156101000203166002900480601f0160208091040260200160405190810160405280929190818152602001828054600181600116156101000203166002900480156118de5780601f106118b3576101008083540402835291602001916118de565b820191906000526020600020905b8154815290600101906020018083116118c157829003601f168201915b505050505081565b816118ef61287e565b600360008381526020019081526020016000206040518060400160405290816000820160009054906101000a900473ffffffffffffffffffffffffffffffffffffffff1673ffffffffffffffffffffffffffffffffffffffff1673ffffffffffffffffffffffffffffffffffffffff16815260200160018201548152505090503373ffffffffffffffffffffffffffffffffffffffff16816000015173ffffffffffffffffffffffffffffffffffffffff161480156119b15750428160200151115b611a23576040517f08c379a000000000000000000000000000000000000000000000000000000000815260040180806020018281038252600a8152602001807f6f776e6572206f6e6c790000000000000000000000000000000000000000000081525060200191505060405180910390fd5b82600560003373ffffffffffffffffffffffffffffffffffffffff1673ffffffffffffffffffffffffffffffffffffffff168152602001908152602001600020600086815260200190815260200160002060006101000a81548173ffffffffffffffffffffffffffffffffffffffff021916908373ffffffffffffffffffffffffffffffffffffffff1602179055507f36a9e0c1da9cdc6d8f4bd4cb261f9ad6a45eb1641a557ead7530fbeff9a26336338486604051808473ffffffffffffffffffffffffffffffffffffffff1673ffffffffffffffffffffffffffffffffffffffff1681526020018373ffffffffffffffffffffffffffffffffffffffff1673ffffffffffffffffffffffffffffffffffffffff168152602001828152602001935050505060405180910390a150505050565b80611b6061287e565b600360008381526020019081526020016000206040518060400160405290816000820160009054906101000a900473ffffffffffffffffffffffffffffffffffffffff1673ffffffffffffffffffffffffffffffffffffffff1673ffffffffffffffffffffffffffffffffffffffff16815260200160018201548152505090503373ffffffffffffffffffffffffffffffffffffffff16816000015173ffffffffffffffffffffffffffffffffffffffff16148015611c225750428160200151115b611c94576040517f08c379a000000000000000000000000000000000000000000000000000000000815260040180806020018281038252600a8152602001807f6f776e6572206f6e6c790000000000000000000000000000000000000000000081525060200191505060405180910390fd5b600560003373ffffffffffffffffffffffffffffffffffffffff1673ffffffffffffffffffffffffffffffffffffffff168152602001908152602001600020600084815260200190815260200160002060006101000a81549073ffffffffffffffffffffffffffffffffffffffff02191690557fc7fb647e59b18047309aa15aad418e5d7ca96d173ad704f1031a2c3d7591734b3384604051808373ffffffffffffffffffffffffffffffffffffffff1673ffffffffffffffffffffffffffffffffffffffff1681526020018281526020019250505060405180910390a1505050565b600160003373ffffffffffffffffffffffffffffffffffffffff1673ffffffffffffffffffffffffffffffffffffffff16815260200190815260200160002060009054906101000a900460ff16611e36576040517f08c379a00000000000000000000000000000000000000000000000000000000081526004018080602001828103825260168152602001807f4f6e6c792064617461206b65657065722076616c69640000000000000000000081525060200191505060405180910390fd5b82611e3f61287e565b600360008381526020019081526020016000206040518060400160405290816000820160009054906101000a900473ffffffffffffffffffffffffffffffffffffffff1673ffffffffffffffffffffffffffffffffffffffff1673ffffffffffffffffffffffffffffffffffffffff1681526020016001820154815250509050600073ffffffffffffffffffffffffffffffffffffffff16816000015173ffffffffffffffffffffffffffffffffffffffff161480611f015750428160200151105b611f73576040517f08c379a00000000000000000000000000000000000000000000000000000000081526004018080602001828103825260098152602001807f6e6f742076616c6964000000000000000000000000000000000000000000000081525060200191505060405180910390fd5b60006003600087815260200190815260200160002060000160009054906101000a900473ffffffffffffffffffffffffffffffffffffffff169050611fb981868861245b565b60405180604001604052808673ffffffffffffffffffffffffffffffffffffffff168152602001858152506003600088815260200190815260200160002060008201518160000160006101000a81548173ffffffffffffffffffffffffffffffffffffffff021916908373ffffffffffffffffffffffffffffffffffffffff160217905550602082015181600101559050507fae53ff61a227b196db64e2dea26e80d455bb2d90fd10372db78b44ace9cb0f62868287604051808481526020018373ffffffffffffffffffffffffffffffffffffffff1673ffffffffffffffffffffffffffffffffffffffff1681526020018273ffffffffffffffffffffffffffffffffffffffff1673ffffffffffffffffffffffffffffffffffffffff168152602001935050505060405180910390a1505050505050565b6000600560008473ffffffffffffffffffffffffffffffffffffffff1673ffffffffffffffffffffffffffffffffffffffff168152602001908152602001600020600083815260200190815260200160002060009054906101000a900473ffffffffffffffffffffffffffffffffffffffff16905092915050565b6000600160003373ffffffffffffffffffffffffffffffffffffffff1673ffffffffffffffffffffffffffffffffffffffff16815260200190815260200160002060009054906101000a900460ff1661222e576040517f08c379a00000000000000000000000000000000000000000000000000000000081526004018080602001828103825260168152602001807f4f6e6c792064617461206b65657065722076616c69640000000000000000000081525060200191505060405180910390fd5b82600073ffffffffffffffffffffffffffffffffffffffff166003600083815260200190815260200160002060000160009054906101000a900473ffffffffffffffffffffffffffffffffffffffff1673ffffffffffffffffffffffffffffffffffffffff161415612308576040517f08c379a00000000000000000000000000000000000000000000000000000000081526004018080602001828103825260088152602001807f6e6f206f776e657200000000000000000000000000000000000000000000000081525060200191505060405180910390fd5b6000600360008681526020019081526020016000209050428160010154101561234b5761233e84426125f690919063ffffffff16565b816001018190555061236b565b6123628482600101546125f690919063ffffffff16565b81600101819055505b7fe898863b26adf3af54e82709ac1a76136eaaa5f3a7d9b790ce6d539d508e75ff8585604051808381526020018281526020019250505060405180910390a180600101549250505092915050565b60016020528060005260406000206000915054906101000a900460ff1681565b606061242e8383600460003373ffffffffffffffffffffffffffffffffffffffff1673ffffffffffffffffffffffffffffffffffffffff1681526020019081526020016000206126159092919063ffffffff16565b905092915050565b6000809054906101000a900473ffffffffffffffffffffffffffffffffffffffff1681565b6124ac81600460008673ffffffffffffffffffffffffffffffffffffffff1673ffffffffffffffffffffffffffffffffffffffff16815260200190815260200160002061274c90919063ffffffff16565b6124fd81600460008573ffffffffffffffffffffffffffffffffffffffff1673ffffffffffffffffffffffffffffffffffffffff16815260200190815260200160002061250290919063ffffffff16565b505050565b600082600001600083815260200190815260200160002060009054906101000a900463ffffffff16905060008163ffffffff1614801561255c5750818360010160008154811061254e57fe5b906000526020600020015414155b8061256e575060008360010180549050145b61257757600080fd5b826001018054905083600001600084815260200190815260200160002060006101000a81548163ffffffff021916908363ffffffff16021790555082600101829080600181540180825580915050906001820390600052602060002001600090919290919091505550505050565b600081600101805490509050919050565b60008082840190508381101561260b57600080fd5b8091505092915050565b6060600082141561267a578360010180548060200260200160405190810160405280929190818152602001828054801561266e57602002820191906000526020600020905b81548152602001906001019080831161265a575b50505050509050612745565b818310612685578192505b60606001848403016040519080825280602002602001820160405280156126bb5781602001602082028038833980820191505090505b50905060008090506000866001018054905090505b848287011161273e5780828701101561271c5786600101828701815481106126f457fe5b906000526020600020015483838151811061270b57fe5b602002602001018181525050612739565b6000801b83838151811061272c57fe5b6020026020010181815250505b6126d0565b8293505050505b9392505050565b60008061275984846127fc565b63ffffffff169150915081156127f6578360010160018560010180549050038154811061278257fe5b906000526020600020015484600101828154811061279c57fe5b906000526020600020018190555083600001600084815260200190815260200160002060006101000a81549063ffffffff0219169055836001018054806127df57fe5b600190038181906000526020600020016000905590555b50505050565b600080600084600001600085815260200190815260200160002060009054906101000a900463ffffffff1690508063ffffffff168560010180549050111561286b5783856001018263ffffffff168154811061285457fe5b906000526020600020015414819250925050612877565b60008080905092509250505b9250929050565b6040518060400160405280600073ffffffffffffffffffffffffffffffffffffffff16815260200160008152509056fea265627a7a72315820af2d7f757b204e7904a8c87d75d185a11c49ffa5045c8a72a16b0089ee52ac3364736f6c63430005100032",
  "source": "pragma solidity >=0.5.0;\n\nimport \"./BasLib.sol\";\n\n/*\n[INHERIT]\ncontract inherit this will be partially under control of DAO \n*/\ncontract  ManagedByDAO {\n    \n    address public DAOAddress;\n\n    constructor() public {\n        DAOAddress = msg.sender;\n    }\n\n    modifier OnlyDAO {\n        require(msg.sender == DAOAddress, \"admin only\");\n        _;\n    }\n\n    function ChangeDAO(address newDao)\n                            external\n                            OnlyDAO {\n        DAOAddress = newDao;\n    }\n}\n\n/*\n[INHERIT]\ncontract inherit this will be a DataStore \n which remain unchanged during logic contract update\n */\ncontract ManagedByContract is ManagedByDAO{\n\n    mapping(address => bool) public dataKeeper;\n\n    modifier OnlyDataKeeper(){\n        require(dataKeeper[msg.sender], \"Only data keeper valid\");\n        _;\n    }\n\n    function addDataKeeper(address _addr)\n                    external\n                    OnlyDAO{\n        dataKeeper[_addr] = true;\n    }\n\n    function removeDataKeeper(address _ok)\n                    external\n                    OnlyDAO{\n        delete dataKeeper[_ok];\n    }\n}\n\n/*\n[INHERIT]\ncontract inherit this will be partially under control of data owner\n  (sometimes also partially under control if DAO)\n*/\ncontract ManagedByOwner is ManagedByDAO{\n    \n    BasExpiredOwnership public ownership;\n   \n    modifier OnlyOwner(address owner, \n                    bytes32 hash){\n        (address curOwner, uint256 expire) = ownership.ownerOfWithExpire(hash);\n        require(curOwner == owner && expire > now, \"only owner is invalid\");\n        _;\n    }\n    \n    function setOwnership(address _os)\n                    external \n                    OnlyDAO{\n        ownership = BasExpiredOwnership(_os);\n    }\n}\n\n/*\n[DEPLOYED]\ncontract like this is a none tradable ownership database\n(e.g email ownership)\n*/\ncontract BasExpiredOwnership is ManagedByContract{\n    \n    using SafeMath for uint256;\n    using BasSet for BasSet.IndexedAsset;\n\n    /*\n    there is no need to index any of those events\n    */\n    event Add(bytes32 nameHash, address owner);\n    event Update(bytes32 nameHash, address owner);\n    event Extend(bytes32 nameHash, uint256 time);\n    event Takeover(bytes32 nameHash, address from, address to);\n\n    struct ownerShip{\n        address ownerAddr;\n        uint256 expireDate;\n    }\n    \n    string public OwnerShipLabel;\n    mapping(bytes32 => ownerShip) internal _ownerShips;\n    mapping(address => BasSet.IndexedAsset) internal _assetsOf;\n    \n    constructor(string memory label) public{\n        OwnerShipLabel = label;\n    }\n    \n    modifier OnlyOwner(bytes32 nameHash) {\n        ownerShip memory os = _ownerShips[nameHash];\n        require(os.ownerAddr == msg.sender && os.expireDate > now, \"owner only\");\n        _;\n    }\n\n    modifier CanRegister(bytes32 nameHash) {\n        ownerShip memory os = _ownerShips[nameHash];\n        require(os.ownerAddr == address(0) || os.expireDate < now, \"not valid\");\n        _;\n    }\n\n    modifier HasOwner(bytes32 nameHash) {\n        require(_ownerShips[nameHash].ownerAddr != address(0), \"no owner\");\n        _;\n    }\n    \n    function ownerOf(bytes32 nameHash)\n                    external\n                    view\n                    returns (address){\n\n        return _ownerShips[nameHash].ownerAddr;\n    }\n    \n    \n    function ownerOfWithExpire(bytes32 nameHash)\n                    public\n                    view\n                    returns (address,uint256){\n\n        ownerShip memory os = _ownerShips[nameHash];\n        return (os.ownerAddr, os.expireDate);\n    }\n    \n    function updateByDaoProposal(bytes32 nameHash,\n                                address owner,\n                                uint256 expire)\n                                external\n                                OnlyDAO {\n\n        ownerShip storage os =  _ownerShips[nameHash];\n        require(os.ownerAddr != owner);\n\n        _relpaceOwnership(owner, os.ownerAddr, nameHash);\n        os.ownerAddr    = owner;\n        os.expireDate   = expire;\n\n        emit Update(nameHash, owner);\n    }\n\n    function newOwnership(bytes32 nameHash,\n                        address owner,\n                        uint256 expire)\n                        external\n                        OnlyDataKeeper\n                        CanRegister(nameHash) {\n\n        _ownerShips[nameHash] = ownerShip(owner, expire);\n        _assetsOf[owner].append(nameHash);\n\n        emit Add(nameHash, owner);\n    }\n    \n    function extendTime(bytes32 nameHash,\n                        uint256 extend)\n                        external\n                        OnlyDataKeeper\n                        HasOwner(nameHash) \n                        returns (uint256){\n\n        ownerShip storage os = _ownerShips[nameHash];\n        if (os.expireDate < now){\n            os.expireDate = now.add(extend);\n        }else{\n            os.expireDate = os.expireDate.add(extend);\n        }\n        emit Extend(nameHash, extend);\n        return os.expireDate;\n    }\n\n    function _relpaceOwnership(address oldOwner,\n                            address newOwner,\n                            bytes32 nameHash)\n                            internal{\n        _assetsOf[oldOwner].trimIfExist(nameHash);\n        _assetsOf[newOwner].append(nameHash);\n    }\n    \n    function takeover(bytes32 nameHash,\n                    address owner,\n                    uint256 expire)\n                    external\n                    OnlyDataKeeper\n                    CanRegister(nameHash) {\n\n        address oldOwner = _ownerShips[nameHash].ownerAddr;\n\n        _relpaceOwnership(oldOwner, owner, nameHash);\n        _ownerShips[nameHash] = ownerShip(owner, expire);\n\n        emit Takeover(nameHash, oldOwner, owner);\n    }\n    \n    function assetsCountsOf()\n                external\n                view\n                returns(uint256){\n                return _assetsOf[msg.sender].counts();                \n    }\n    \n    function assetsOf(uint256 start,\n                    uint256 end)\n                external\n                view\n                returns(bytes32[] memory){\n                return _assetsOf[msg.sender].slice(start,end);   \n    }\n}\n\n/*\n[DEPLOYED]\ncontract like this is a tradable ownership database\n(e.g domain ownership)\n*/\ncontract BasTradableOwnership is BasExpiredOwnership{\n    \n    /*\n    there is also no need to keep index on events\n    because Transfer or TransferFrom can happen on different\n    scenerios and we should keep records on business level\n    */\n    event Transfer(bytes32 nameHash, address from, address to);\n    event TransferFrom(bytes32 nameHash, address from, address to, address by);\n    event Approval(address from, address to, bytes32 nameHash);\n    event Revoke(address from, bytes32 nameHash);\n\n    mapping(address => mapping(bytes32 => address)) internal _allowed;\n    \n    constructor(string memory label) public BasExpiredOwnership(label){}\n    \n    function transfer(bytes32 nameHash,\n                    address to)\n                    external\n                    OnlyOwner(nameHash) {\n\n        require(msg.sender != to, \"transfer to self\");\n\n        _ownerShips[nameHash].ownerAddr = to;\n        _relpaceOwnership(msg.sender, to, nameHash);\n\n        emit Transfer(nameHash, msg.sender, to);\n    }\n\n    function approve(bytes32 nameHash,\n                    address spender)\n                    external\n                    OnlyOwner(nameHash){\n\n        _allowed[msg.sender][nameHash] = spender;\n        emit Approval(msg.sender, spender, nameHash);\n    }\n\n    function allowance(address owner,\n                        bytes32 nameHash)\n                        external\n                        view\n                        returns (address) {\n\n        return _allowed[owner][nameHash];\n    }\n\n    function revoke(bytes32 nameHash)\n                    external\n                    OnlyOwner(nameHash) {\n\n        delete _allowed[msg.sender][nameHash];\n        emit Revoke(msg.sender, nameHash);\n    }\n\n    function transferFrom(bytes32 nameHash,\n                        address from,\n                        address to)\n                        external {\n\n        require(_ownerShips[nameHash].ownerAddr == from);\n        require(_allowed[from][nameHash] == msg.sender, \"not allowed\");\n        require(from != to, \"transfer to self\");\n\n        delete _allowed[from][nameHash];\n        _ownerShips[nameHash].ownerAddr = to;\n        _relpaceOwnership(from, to, nameHash);\n\n        emit TransferFrom(nameHash, from, to, msg.sender);\n    }\n}",
  "sourcePath": "/Users/mini2/workspace/truffle suite/BasChain/truffle_smart_contracts/contracts/BasOwnership.sol",
  "compiler": {
    "name": "solc",
    "version": "0.5.16+commit.9c3226ce.Emscripten.clang"
  },
  "schemaVersion": "3.0.23",
  "updatedAt": "2020-04-29T08:50:58.323Z",
  "networkType": "ethereum",
  "devdoc": {
    "methods": {}
  },
  "userdoc": {
    "methods": {}
  }
}