{
  "contractName": "ManagedByOwner",
  "abi": [
    {
      "constant": false,
      "inputs": [
        {
          "internalType": "address",
          "name": "newDao",
          "type": "address"
        }
      ],
      "name": "ChangeDAO",
      "outputs": [],
      "payable": false,
      "stateMutability": "nonpayable",
      "type": "function"
    },
    {
      "constant": true,
      "inputs": [],
      "name": "DAOAddress",
      "outputs": [
        {
          "internalType": "address",
          "name": "",
          "type": "address"
        }
      ],
      "payable": false,
      "stateMutability": "view",
      "type": "function"
    },
    {
      "constant": true,
      "inputs": [],
      "name": "ownership",
      "outputs": [
        {
          "internalType": "contract BasExpiredOwnership",
          "name": "",
          "type": "address"
        }
      ],
      "payable": false,
      "stateMutability": "view",
      "type": "function"
    },
    {
      "constant": false,
      "inputs": [
        {
          "internalType": "address",
          "name": "_os",
          "type": "address"
        }
      ],
      "name": "setOwnership",
      "outputs": [],
      "payable": false,
      "stateMutability": "nonpayable",
      "type": "function"
    }
  ],
  "bytecode": "0x6080604052336000806101000a81548173ffffffffffffffffffffffffffffffffffffffff021916908373ffffffffffffffffffffffffffffffffffffffff1602179055506103f8806100536000396000f3fe608060405234801561001057600080fd5b506004361061004c5760003560e01c80635d03147a146100515780638a42876b1461009b578063a7016023146100df578063d392eab114610123575b600080fd5b61005961016d565b604051808273ffffffffffffffffffffffffffffffffffffffff1673ffffffffffffffffffffffffffffffffffffffff16815260200191505060405180910390f35b6100dd600480360360208110156100b157600080fd5b81019080803573ffffffffffffffffffffffffffffffffffffffff169060200190929190505050610193565b005b610121600480360360208110156100f557600080fd5b81019080803573ffffffffffffffffffffffffffffffffffffffff169060200190929190505050610298565b005b61012b61039e565b604051808273ffffffffffffffffffffffffffffffffffffffff1673ffffffffffffffffffffffffffffffffffffffff16815260200191505060405180910390f35b600160009054906101000a900473ffffffffffffffffffffffffffffffffffffffff1681565b6000809054906101000a900473ffffffffffffffffffffffffffffffffffffffff1673ffffffffffffffffffffffffffffffffffffffff163373ffffffffffffffffffffffffffffffffffffffff1614610255576040517f08c379a000000000000000000000000000000000000000000000000000000000815260040180806020018281038252600a8152602001807f61646d696e206f6e6c790000000000000000000000000000000000000000000081525060200191505060405180910390fd5b806000806101000a81548173ffffffffffffffffffffffffffffffffffffffff021916908373ffffffffffffffffffffffffffffffffffffffff16021790555050565b6000809054906101000a900473ffffffffffffffffffffffffffffffffffffffff1673ffffffffffffffffffffffffffffffffffffffff163373ffffffffffffffffffffffffffffffffffffffff161461035a576040517f08c379a000000000000000000000000000000000000000000000000000000000815260040180806020018281038252600a8152602001807f61646d696e206f6e6c790000000000000000000000000000000000000000000081525060200191505060405180910390fd5b80600160006101000a81548173ffffffffffffffffffffffffffffffffffffffff021916908373ffffffffffffffffffffffffffffffffffffffff16021790555050565b6000809054906101000a900473ffffffffffffffffffffffffffffffffffffffff168156fea265627a7a72315820a050e71901e3e2be978015497fad57865d759eec2e21b61eb1cbfdbd2a63a22a64736f6c63430005100032",
  "source": "pragma solidity >=0.5.0;\n\nimport \"./BasLib.sol\";\n\n/*\n[INHERIT]\ncontract inherit this will be partially under control of DAO \n*/\ncontract  ManagedByDAO {\n    \n    address public DAOAddress;\n\n    constructor() public {\n        DAOAddress = msg.sender;\n    }\n\n    modifier OnlyDAO {\n        require(msg.sender == DAOAddress, \"admin only\");\n        _;\n    }\n\n    function ChangeDAO(address newDao)\n                            external\n                            OnlyDAO {\n        DAOAddress = newDao;\n    }\n}\n\n/*\n[INHERIT]\ncontract inherit this will be a DataStore \n which remain unchanged during logic contract update\n */\ncontract ManagedByContract is ManagedByDAO{\n\n    mapping(address => bool) public dataKeeper;\n\n    modifier OnlyDataKeeper(){\n        require(dataKeeper[msg.sender], \"Only data keeper valid\");\n        _;\n    }\n\n    function addDataKeeper(address _addr)\n                    external\n                    OnlyDAO{\n        dataKeeper[_addr] = true;\n    }\n\n    function removeDataKeeper(address _ok)\n                    external\n                    OnlyDAO{\n        delete dataKeeper[_ok];\n    }\n}\n\n/*\n[INHERIT]\ncontract inherit this will be partially under control of data owner\n  (sometimes also partially under control if DAO)\n*/\ncontract ManagedByOwner is ManagedByDAO{\n    \n    BasExpiredOwnership public ownership;\n   \n    modifier OnlyOwner(address owner, \n                    bytes32 hash){\n        (address curOwner, uint256 expire) = ownership.ownerOfWithExpire(hash);\n        require(curOwner == owner && expire > now, \"only owner is invalid\");\n        _;\n    }\n    \n    function setOwnership(address _os)\n                    external \n                    OnlyDAO{\n        ownership = BasExpiredOwnership(_os);\n    }\n}\n\n/*\n[DEPLOYED]\ncontract like this is a none tradable ownership database\n(e.g email ownership)\n*/\ncontract BasExpiredOwnership is ManagedByContract{\n    \n    using SafeMath for uint256;\n    using BasSet for BasSet.IndexedAsset;\n\n    /*\n    there is no need to index any of those events\n    */\n    event Add(bytes32 nameHash, address owner);\n    event Update(bytes32 nameHash, address owner);\n    event Extend(bytes32 nameHash, uint256 time);\n    event Takeover(bytes32 nameHash, address from, address to);\n\n    struct ownerShip{\n        address ownerAddr;\n        uint256 expireDate;\n    }\n    \n    string public OwnerShipLabel;\n    mapping(bytes32 => ownerShip) internal _ownerShips;\n    mapping(address => BasSet.IndexedAsset) internal _assetsOf;\n    \n    constructor(string memory label) public{\n        OwnerShipLabel = label;\n    }\n    \n    modifier OnlyOwner(bytes32 nameHash) {\n        ownerShip memory os = _ownerShips[nameHash];\n        require(os.ownerAddr == msg.sender && os.expireDate > now, \"owner only\");\n        _;\n    }\n\n    modifier CanRegister(bytes32 nameHash) {\n        ownerShip memory os = _ownerShips[nameHash];\n        require(os.ownerAddr == address(0) || os.expireDate < now, \"not valid\");\n        _;\n    }\n\n    modifier HasOwner(bytes32 nameHash) {\n        require(_ownerShips[nameHash].ownerAddr != address(0), \"no owner\");\n        _;\n    }\n    \n    function ownerOf(bytes32 nameHash)\n                    external\n                    view\n                    returns (address){\n\n        return _ownerShips[nameHash].ownerAddr;\n    }\n    \n    \n    function ownerOfWithExpire(bytes32 nameHash)\n                    public\n                    view\n                    returns (address,uint256){\n\n        ownerShip memory os = _ownerShips[nameHash];\n        return (os.ownerAddr, os.expireDate);\n    }\n    \n    function updateByDaoProposal(bytes32 nameHash,\n                                address owner,\n                                uint256 expire)\n                                external\n                                OnlyDAO {\n\n        ownerShip storage os =  _ownerShips[nameHash];\n        require(os.ownerAddr != owner);\n\n        _relpaceOwnership(owner, os.ownerAddr, nameHash);\n        os.ownerAddr    = owner;\n        os.expireDate   = expire;\n\n        emit Update(nameHash, owner);\n    }\n\n    function newOwnership(bytes32 nameHash,\n                        address owner,\n                        uint256 expire)\n                        external\n                        OnlyDataKeeper\n                        CanRegister(nameHash) {\n\n        _ownerShips[nameHash] = ownerShip(owner, expire);\n        _assetsOf[owner].append(nameHash);\n\n        emit Add(nameHash, owner);\n    }\n    \n    function extendTime(bytes32 nameHash,\n                        uint256 extend)\n                        external\n                        OnlyDataKeeper\n                        HasOwner(nameHash) \n                        returns (uint256){\n\n        ownerShip storage os = _ownerShips[nameHash];\n        if (os.expireDate < now){\n            os.expireDate = now.add(extend);\n        }else{\n            os.expireDate = os.expireDate.add(extend);\n        }\n        emit Extend(nameHash, extend);\n        return os.expireDate;\n    }\n\n    function _relpaceOwnership(address oldOwner,\n                            address newOwner,\n                            bytes32 nameHash)\n                            internal{\n        _assetsOf[oldOwner].trimIfExist(nameHash);\n        _assetsOf[newOwner].append(nameHash);\n    }\n    \n    function takeover(bytes32 nameHash,\n                    address owner,\n                    uint256 expire)\n                    external\n                    OnlyDataKeeper\n                    CanRegister(nameHash) {\n\n        address oldOwner = _ownerShips[nameHash].ownerAddr;\n\n        _relpaceOwnership(oldOwner, owner, nameHash);\n        _ownerShips[nameHash] = ownerShip(owner, expire);\n\n        emit Takeover(nameHash, oldOwner, owner);\n    }\n    \n    function assetsCountsOf()\n                external\n                view\n                returns(uint256){\n                return _assetsOf[msg.sender].counts();                \n    }\n    \n    function assetsOf(uint256 start,\n                    uint256 end)\n                external\n                view\n                returns(bytes32[] memory){\n                return _assetsOf[msg.sender].slice(start,end);   \n    }\n}\n\n/*\n[DEPLOYED]\ncontract like this is a tradable ownership database\n(e.g domain ownership)\n*/\ncontract BasTradableOwnership is BasExpiredOwnership{\n    \n    /*\n    there is also no need to keep index on events\n    because Transfer or TransferFrom can happen on different\n    scenerios and we should keep records on business level\n    */\n    event Transfer(bytes32 nameHash, address from, address to);\n    event TransferFrom(bytes32 nameHash, address from, address to, address by);\n    event Approval(address from, address to, bytes32 nameHash);\n    event Revoke(address from, bytes32 nameHash);\n\n    mapping(address => mapping(bytes32 => address)) internal _allowed;\n    \n    constructor(string memory label) public BasExpiredOwnership(label){}\n    \n    function transfer(bytes32 nameHash,\n                    address to)\n                    external\n                    OnlyOwner(nameHash) {\n\n        require(msg.sender != to, \"transfer to self\");\n\n        _ownerShips[nameHash].ownerAddr = to;\n        _relpaceOwnership(msg.sender, to, nameHash);\n\n        emit Transfer(nameHash, msg.sender, to);\n    }\n\n    function approve(bytes32 nameHash,\n                    address spender)\n                    external\n                    OnlyOwner(nameHash){\n\n        _allowed[msg.sender][nameHash] = spender;\n        emit Approval(msg.sender, spender, nameHash);\n    }\n\n    function allowance(address owner,\n                        bytes32 nameHash)\n                        external\n                        view\n                        returns (address) {\n\n        return _allowed[owner][nameHash];\n    }\n\n    function revoke(bytes32 nameHash)\n                    external\n                    OnlyOwner(nameHash) {\n\n        delete _allowed[msg.sender][nameHash];\n        emit Revoke(msg.sender, nameHash);\n    }\n\n    function transferFrom(bytes32 nameHash,\n                        address from,\n                        address to)\n                        external {\n\n        require(_ownerShips[nameHash].ownerAddr == from);\n        require(_allowed[from][nameHash] == msg.sender, \"not allowed\");\n        require(from != to, \"transfer to self\");\n\n        delete _allowed[from][nameHash];\n        _ownerShips[nameHash].ownerAddr = to;\n        _relpaceOwnership(from, to, nameHash);\n\n        emit TransferFrom(nameHash, from, to, msg.sender);\n    }\n}",
  "sourcePath": "/Users/mini2/workspace/truffle suite/BasChain/truffle_smart_contracts/contracts/BasOwnership.sol",
  "compiler": {
    "name": "solc",
    "version": "0.5.16+commit.9c3226ce.Emscripten.clang"
  },
  "schemaVersion": "3.0.23",
  "updatedAt": "2020-04-29T08:45:55.038Z",
  "devdoc": {
    "methods": {}
  },
  "userdoc": {
    "methods": {}
  }
}